{
	"data": {
		"bytecode": {
			"linkReferences": {},
			"object": "600060028190556009805460ff191660011790556101f4608081905260a081905260c091909152600a805465ffffffffffff199081166301f401f417825561014060405260c860e05261012c6101005261012092909252600b80546501f4012c00c8931692909217909155600e80546001600160a01b031916739121530d37068f3841822057677ad0e77db141cd179055606490620000a1906012906200079d565b620000b190633b9aca00620007b5565b620000be906001620007b5565b620000ca9190620007cf565b600f556010805461ff0019169055600a60148190556015805461ffff1916905560178054336001600160a01b031991821681179092556018805490911690911790556200011a906012906200079d565b6200012a90633b9aca00620007b5565b601780546001600160a01b03908116600090815260208190526040812093909355905416907fddf252ad1be2c89b69c2b068fc378daa952ba7f163c4a11628f55a4df523b3ef6200017e6012600a6200079d565b6200018e90633b9aca00620007b5565b60405190815260200160405180910390a346603803620001d657600c8054610100600160a81b0319167410ed43c718714eb63d5aa57b78b54704e256024e0017905562000315565b466061036200020d57600c8054610100600160a81b03191674d99d1c33f9fc3444f8101754abc46c52416550d10017905562000315565b46600114806200021d5750466004145b80620002295750466003145b80620002355750466005145b156200026957600c8054610100600160a81b031916747a250d5630b4cf539739df2c5dacb4c659f2488d0017905562000315565b4661a86a03620002a157600c8054610100600160a81b0319167460ae616a2155ee3d9a68541ba4544862310933d40017905562000315565b4660fa03620002d857600c8054610100600160a81b03191674f491e7b69e4244ad4002bc14e878a34207e38c290017905562000315565b4661a4b1036200031057600c8054610100600160a81b031916741b02da8cb0d097eb8d57a175b88c7d8b479975060017905562000315565b600080fd5b600c60019054906101000a90046001600160a01b03166001600160a01b031663c45a01556040518163ffffffff1660e01b8152600401602060405180830381865afa15801562000369573d6000803e3d6000fd5b505050506040513d601f19601f820116820180604052508101906200038f9190620007f2565b6001600160a01b031663c9c65396600c60019054906101000a90046001600160a01b03166001600160a01b031663ad5c46486040518163ffffffff1660e01b8152600401602060405180830381865afa158015620003f1573d6000803e3d6000fd5b505050506040513d601f19601f82011682018060405250810190620004179190620007f2565b6040516001600160e01b031960e084901b1681526001600160a01b0390911660048201523060248201526044016020604051808303816000875af115801562000464573d6000803e3d6000fd5b505050506040513d601f19601f820116820180604052508101906200048a9190620007f2565b600d80546001600160a01b0319166001600160a01b039283169081179091556000908152600160208190526040909120805460ff19169091179055601754600c54620004e492918216916101009091041660001962000587565b600c546200050590309061010090046001600160a01b031660001962000587565b601780546001600160a01b0390811660009081526006602090815260408083208054600160ff19918216811790925530855282852080548216831790557f1aecba4ebe7a4e0673e4891b2b092b2228e4322380b579fb494fad3da8586e228054821683179055955490941683526004909152902080549092161790556200081d565b6001600160a01b038316620005d95760405162461bcd60e51b815260206004820152601360248201527245524332303a205a65726f204164647265737360681b60448201526064015b60405180910390fd5b6001600160a01b038216620006275760405162461bcd60e51b815260206004820152601360248201527245524332303a205a65726f204164647265737360681b6044820152606401620005d0565b6001600160a01b0383811660008181526003602090815260408083209487168084529482529182902085905590518481527f8c5be1e5ebec7d5bd14f71427d1e84f3dd0314c0f7b2291e5b200ac8c7c3b925910160405180910390a3505050565b634e487b7160e01b600052601160045260246000fd5b600181815b80851115620006df578160001904821115620006c357620006c362000688565b80851615620006d157918102915b93841c9390800290620006a3565b509250929050565b600082620006f85750600162000797565b81620007075750600062000797565b81600181146200072057600281146200072b576200074b565b600191505062000797565b60ff8411156200073f576200073f62000688565b50506001821b62000797565b5060208310610133831016604e8410600b841016171562000770575081810a62000797565b6200077c83836200069e565b806000190482111562000793576200079362000688565b0290505b92915050565b6000620007ae60ff841683620006e7565b9392505050565b808202811582820484141762000797576200079762000688565b600082620007ed57634e487b7160e01b600052601260045260246000fd5b500490565b6000602082840312156200080557600080fd5b81516001600160a01b0381168114620007ae57600080fd5b61437e806200082d6000396000f3fe6080604052600436106103bc5760003560e01c806350a8e016116101f2578063a9059cbb1161010d578063cf847706116100a0578063ee5d9c2d1161006f578063ee5d9c2d14610b67578063fb78680d14610b7c578063fdb78c0e14610b9c578063feadde9c14610bbb57600080fd5b8063cf84770614610ab0578063dd62ed3e14610ae1578063eafb5a3c14610b27578063eb50e70e14610b4757600080fd5b8063b3d514fb116100dc578063b3d514fb1461064e578063b7df8b3614610a56578063bcd96a2514610a70578063bfc2fc3514610a9057600080fd5b8063a9059cbb146109f6578063ab558e4d14610a16578063b1b08f711461064e578063b3ab15fb14610a3657600080fd5b806375f0a87411610185578063893d20e811610154578063893d20e8146109825780638a63bd9b146109a05780638a8c523c146109b557806395d89b41146109ca57600080fd5b806375f0a8741461090d57806378648edf1461092d57806380c581d11461094257806381cf58a91461096257600080fd5b80635c24b074116101c15780635c24b074146108695780635cce86cd1461088957806370a08231146108c2578063715018a6146108f857600080fd5b806350a8e016146107f4578063570ca73514610813578063590ffdce146108335780635a6f09181461085357600080fd5b806328577751116102e257806339a05902116102755780634bbb93eb116102445780634bbb93eb1461075b5780634e718e481461077b5780634fb2e45d1461079b5780634fbee193146107bb57600080fd5b806339a05902146106f6578063452ed4f11461070b57806346ea7ac81461072b5780634ada218b1461074157600080fd5b8063313ce567116102b1578063313ce5671461067a57806332cde6641461069657806333251a0b146106b657806336fddb04146106d657600080fd5b806328577751146106235780632b112e49146106395780632b28fc7a1461064e5780632e8fa8211461066457600080fd5b8063095ea7b31161035a57806318160ddd1161032957806318160ddd146105ae57806323b872dd146105c357806326003957146105e35780632610eaca1461060357600080fd5b8063095ea7b3146105205780630dcbcf1c146105405780630fa604e41461057957806313b4a7f41461058e57600080fd5b8063069d955f11610396578063069d955f1461044157806306fdde03146104975780630758d924146104d157806307dd79e0146104f657600080fd5b806303fd2a45146103c85780630445b667146103fb578063044df7261461041f57600080fd5b366103c357005b600080fd5b3480156103d457600080fd5b506103de61dead81565b6040516001600160a01b0390911681526020015b60405180910390f35b34801561040757600080fd5b5061041160115481565b6040519081526020016103f2565b34801561042b57600080fd5b5061043f61043a366004613c4d565b610bdb565b005b34801561044d57600080fd5b50600a546104729061ffff808216916201000081048216916401000000009091041683565b6040805161ffff948516815292841660208401529216918101919091526060016103f2565b3480156104a357600080fd5b506040805180820190915260088152670828ea492a88a86960c31b60208201525b6040516103f29190613c86565b3480156104dd57600080fd5b50600c546103de9061010090046001600160a01b031681565b34801561050257600080fd5b50600c546105109060ff1681565b60405190151581526020016103f2565b34801561052c57600080fd5b5061051061053b366004613ce9565b610c99565b34801561054c57600080fd5b5061051061055b366004613d15565b6001600160a01b031660009081526005602052604090205460ff1690565b34801561058557600080fd5b50610411610cb0565b34801561059a57600080fd5b5061043f6105a9366004613d32565b610cd0565b3480156105ba57600080fd5b50610411610e8e565b3480156105cf57600080fd5b506105106105de366004613d60565b610eaa565b3480156105ef57600080fd5b5061043f6105fe366004613da1565b610f22565b34801561060f57600080fd5b5061043f61061e366004613e99565b61106b565b34801561062f57600080fd5b5061041160145481565b34801561064557600080fd5b50610411611220565b34801561065a57600080fd5b506104116107d081565b34801561067057600080fd5b5061041160125481565b34801561068657600080fd5b50604051601281526020016103f2565b3480156106a257600080fd5b5061043f6106b1366004613f72565b61129e565b3480156106c257600080fd5b5061043f6106d1366004613d15565b611451565b3480156106e257600080fd5b5061043f6106f1366004613fb5565b611502565b34801561070257600080fd5b5061043f611575565b34801561071757600080fd5b50600d546103de906001600160a01b031681565b34801561073757600080fd5b506104116109c481565b34801561074d57600080fd5b506015546105109060ff1681565b34801561076757600080fd5b50610411610776366004613fd3565b6115fc565b34801561078757600080fd5b5061043f610796366004613fd3565b611630565b3480156107a757600080fd5b5061043f6107b6366004613d15565b6116ce565b3480156107c757600080fd5b506105106107d6366004613d15565b6001600160a01b031660009081526006602052604090205460ff1690565b34801561080057600080fd5b5060155461051090610100900460ff1681565b34801561081f57600080fd5b506019546103de906001600160a01b031681565b34801561083f57600080fd5b5061043f61084e366004613fb5565b6118d0565b34801561085f57600080fd5b5061041160165481565b34801561087557600080fd5b5061043f610884366004613d15565b611943565b34801561089557600080fd5b506105106108a4366004613d15565b6001600160a01b031660009081526007602052604090205460ff1690565b3480156108ce57600080fd5b506104116108dd366004613d15565b6001600160a01b031660009081526020819052604090205490565b34801561090457600080fd5b5061043f611a1d565b34801561091957600080fd5b50600e546103de906001600160a01b031681565b34801561093957600080fd5b5061043f611aca565b34801561094e57600080fd5b5061043f61095d366004613fb5565b611b21565b34801561096e57600080fd5b506018546103de906001600160a01b031681565b34801561098e57600080fd5b506017546001600160a01b03166103de565b3480156109ac57600080fd5b50610510611d0b565b3480156109c157600080fd5b5061043f611d7b565b3480156109d657600080fd5b506040805180820190915260038152621051d560ea1b60208201526104c4565b348015610a0257600080fd5b50610510610a11366004613ce9565b611fd1565b348015610a2257600080fd5b5061043f610a31366004613d15565b611fe8565b348015610a4257600080fd5b5061043f610a51366004613d15565b612182565b348015610a6257600080fd5b506013546105109060ff1681565b348015610a7c57600080fd5b5061043f610a8b366004613fec565b61226f565b348015610a9c57600080fd5b5061043f610aab366004613c4d565b612389565b348015610abc57600080fd5b50600b546104729061ffff808216916201000081048216916401000000009091041683565b348015610aed57600080fd5b50610411610afc366004613d32565b6001600160a01b03918216600090815260036020908152604080832093909416825291909152205490565b348015610b3357600080fd5b5061043f610b42366004613d15565b612430565b348015610b5357600080fd5b5061043f610b62366004613d15565b612831565b348015610b7357600080fd5b5061043f6128f1565b348015610b8857600080fd5b5061043f610b9736600461401f565b6129cd565b348015610ba857600080fd5b5060105461051090610100900460ff1681565b348015610bc757600080fd5b5061043f610bd6366004613fb5565b612c8f565b6017546001600160a01b03163314610c285760405162461bcd60e51b8152602060048201526011602482015260008051602061432983398151915260448201526064015b60405180910390fd5b60155460405163efbdbabd60e01b815283151560048201528215156024820152620100009091046001600160a01b03169063efbdbabd906044015b600060405180830381600087803b158015610c7d57600080fd5b505af1158015610c91573d6000803e3d6000fd5b505050505050565b6000610ca6338484612d02565b5060015b92915050565b6000610cbe6012600a61414b565b600f54610ccb919061415a565b905090565b6017546001600160a01b03163314610d185760405162461bcd60e51b815260206004820152601160248201526000805160206143298339815191526044820152606401610c1f565b60095460ff16610d2757600080fd5b6001600160a01b0382163014801590610d4957506001600160a01b0381163014155b8015610d635750600d546001600160a01b03838116911614155b8015610d7d5750600d546001600160a01b03828116911614155b610db75760405162461bcd60e51b815260206004820152600b60248201526a253ab9ba103237b713ba1760a91b6044820152606401610c1f565b806001600160a01b0316826001600160a01b031603610e19576001600160a01b03811660009081526004602090815260408083208054600160ff19918216811790925560089093529220805490911682179055610e159082906118d0565b5050565b6001600160a01b0382811660008181526004602090815260408083208054600160ff19918216811790925595871680855282852080548816831790559484526008909252808320805486168317905592825291902080549092168117909155610e839083906118d0565b610e158160016118d0565b6000610e9c6012600a61414b565b610ccb90633b9aca0061417c565b6001600160a01b038316600090815260036020908152604080832033845290915281205460001914610f0f576001600160a01b038416600090815260036020908152604080832033845290915281208054849290610f09908490614193565b90915550505b610f1a848484612dfb565b949350505050565b6017546001600160a01b03163314610f6a5760405162461bcd60e51b815260206004820152601160248201526000805160206143298339815191526044820152606401610c1f565b6064610f786012600a61414b565b610f8690633b9aca0061417c565b610f90919061415a565b8183610f9e6012600a61414b565b610fac90633b9aca0061417c565b610fb6919061417c565b610fc0919061415a565b10156110345760405162461bcd60e51b815260206004820152603060248201527f4d61782057616c6c657420616d74206d7573742062652061626f76652031252060448201527f6f6620746f74616c20737570706c792e000000000000000000000000000000006064820152608401610c1f565b80826110426012600a61414b565b61105090633b9aca0061417c565b61105a919061417c565b611064919061415a565b600f555050565b6017546001600160a01b031633146110b35760405162461bcd60e51b815260206004820152601160248201526000805160206143298339815191526044820152606401610c1f565b80518251146111045760405162461bcd60e51b815260206004820152601560248201527f4c656e6774687320646f206e6f74206d617463682e00000000000000000000006044820152606401610c1f565b60005b82518161ffff16101561121b576111206012600a61414b565b828261ffff1681518110611136576111366141a6565b6020026020010151611148919061417c565b3360009081526020819052604090205410156111a65760405162461bcd60e51b815260206004820152601260248201527f4e6f7420656e6f75676820746f6b656e732e00000000000000000000000000006044820152606401610c1f565b61120833848361ffff16815181106111c0576111c06141a6565b60200260200101516012600a6111d6919061414b565b858561ffff16815181106111ec576111ec6141a6565b60200260200101516111fe919061417c565b600080600161325a565b5080611213816141bc565b915050611107565b505050565b600060208190527fad3228b676f7d3cd4284a5443f17f1962b36e491b30a40b2405849e597ba5fb55461dead82527f44ad89ba62b98ff34f51403ac22759b55759460c0bb5521eb4b6ee3cff49cf835461127a91906141dd565b6112866012600a61414b565b61129490633b9aca0061417c565b610ccb9190614193565b6017546001600160a01b031633146112e65760405162461bcd60e51b815260206004820152601160248201526000805160206143298339815191526044820152606401610c1f565b600c5460ff16156113395760405162461bcd60e51b815260206004820152601160248201527f546178657320617265206c6f636b65642e0000000000000000000000000000006044820152606401610c1f565b6107d08361ffff161115801561135557506107d08261ffff1611155b801561136757506107d08161ffff1611155b6113b35760405162461bcd60e51b815260206004820152601760248201527f43616e6e6f7420657863656564206d6178696d756d732e0000000000000000006044820152606401610c1f565b6109c46113c083856141f0565b61ffff1611156114125760405162461bcd60e51b815260206004820181905260248201527f43616e6e6f742065786365656420726f756e6474726970206d6178696d756d2e6044820152606401610c1f565b600a805461ffff94851663ffffffff199091161762010000938516939093029290921765ffff0000000019166401000000009190931602919091179055565b6017546001600160a01b031633146114995760405162461bcd60e51b815260206004820152601160248201526000805160206143298339815191526044820152606401610c1f565b6015546040516333251a0b60e01b81526001600160a01b03838116600483015262010000909204909116906333251a0b90602401600060405180830381600087803b1580156114e757600080fd5b505af11580156114fb573d6000803e3d6000fd5b5050505050565b6017546001600160a01b0316331461154a5760405162461bcd60e51b815260206004820152601160248201526000805160206143298339815191526044820152606401610c1f565b6001600160a01b03919091166000908152600760205260409020805460ff1916911515919091179055565b6018546001600160a01b031633146115e05760405162461bcd60e51b815260206004820152602860248201527f43616e206f6e6c792062652063616c6c6564206279206f726967696e616c206460448201526732b83637bcb2b91760c11b6064820152608401610c1f565b6115ea6000612182565b601880546001600160a01b0319169055565b600d546001600160a01b03166000908152602081905260408120546127109061162690849061417c565b610caa919061415a565b6017546001600160a01b031633146116785760405162461bcd60e51b815260206004820152601160248201526000805160206143298339815191526044820152606401610c1f565b60968111156116c95760405162461bcd60e51b815260206004820152601660248201527f43616e6e6f74207365742061626f766520312e35252e000000000000000000006044820152606401610c1f565b601455565b6017546001600160a01b031633146117165760405162461bcd60e51b815260206004820152601160248201526000805160206143298339815191526044820152606401610c1f565b6001600160a01b0381166117925760405162461bcd60e51b815260206004820152603d60248201527f43616c6c2072656e6f756e63654f776e65727368697020746f207472616e736660448201527f6572206f776e657220746f20746865207a65726f20616464726573732e0000006064820152608401610c1f565b61deac196001600160a01b038216016118135760405162461bcd60e51b815260206004820152603d60248201527f43616c6c2072656e6f756e63654f776e65727368697020746f207472616e736660448201527f6572206f776e657220746f20746865207a65726f20616464726573732e0000006064820152608401610c1f565b60175461182a906001600160a01b031660006118d0565b6118358160016118d0565b6017546001600160a01b03166000908152602081905260409020541561187e576017546001600160a01b031660008181526020819052604090205461187c919083906111fe565b505b601780546001600160a01b038381166001600160a01b0319831681179093556040519116919082907f8be0079c531659141344cd1fd0a4f28419497f9722a3daafe3b4186f6b6457e090600090a35050565b6017546001600160a01b031633146119185760405162461bcd60e51b815260206004820152601160248201526000805160206143298339815191526044820152606401610c1f565b6001600160a01b03919091166000908152600660205260409020805460ff1916911515919091179055565b6017546001600160a01b0316331461198b5760405162461bcd60e51b815260206004820152601160248201526000805160206143298339815191526044820152606401610c1f565b60155460ff161561199b57600080fd5b306001600160a01b038216036119f35760405162461bcd60e51b815260206004820152600e60248201527f43616e27742062652073656c662e0000000000000000000000000000000000006044820152606401610c1f565b601580546001600160a01b03909216620100000262010000600160b01b0319909216919091179055565b6017546001600160a01b03163314611a655760405162461bcd60e51b815260206004820152601160248201526000805160206143298339815191526044820152606401610c1f565b601754611a7c906001600160a01b031660006118d0565b601780546001600160a01b031981169091556040516001600160a01b039091169060009082907f8be0079c531659141344cd1fd0a4f28419497f9722a3daafe3b4186f6b6457e0908390a350565b6017546001600160a01b03163314611b125760405162461bcd60e51b815260206004820152601160248201526000805160206143298339815191526044820152606401610c1f565b600c805460ff19166001179055565b6017546001600160a01b03163314611b695760405162461bcd60e51b815260206004820152601160248201526000805160206143298339815191526044820152606401610c1f565b80611bdc576001600160a01b03828116600081815260016020526040808220805460ff1916905560155490516380c581d160e01b815260048101939093526024830191909152620100009004909116906380c581d190604401600060405180830381600087803b158015610c7d57600080fd5b60025415611c43576203f48060025442611bf69190614193565b11611c435760405162461bcd60e51b815260206004820152600f60248201527f332044617920636f6f6c646f776e2e00000000000000000000000000000000006044820152606401610c1f565b6001600160a01b03821660009081526001602052604090205460ff1615611cac5760405162461bcd60e51b815260206004820152601b60248201527f5061697220616c726561647920616464656420746f206c6973742e00000000006044820152606401610c1f565b6001600160a01b03828116600081815260016020819052604091829020805460ff1916821790554260025560155491516380c581d160e01b815260048101939093526024830152620100009004909116906380c581d190604401610c63565b6017546000906001600160a01b03163314611d565760405162461bcd60e51b815260206004820152601160248201526000805160206143298339815191526044820152606401610c1f565b600c54611d7590309061010090046001600160a01b0316600019612d02565b50600190565b6017546001600160a01b03163314611dc35760405162461bcd60e51b815260206004820152601160248201526000805160206143298339815191526044820152606401610c1f565b60155460ff1615611e165760405162461bcd60e51b815260206004820152601860248201527f54726164696e6720616c726561647920656e61626c65642100000000000000006044820152606401610c1f565b601554610100900460ff16611e6d5760405162461bcd60e51b815260206004820152601860248201527f4c6971756964697479206d7573742062652061646465642e00000000000000006044820152606401610c1f565b6015546201000090046001600160a01b0316611e9d576015805462010000600160b01b0319163062010000021790555b601554600d54604051631b04570d60e21b81526001600160a01b03918216600482015263ffffffff4316602482015267ffffffffffffffff4216604482015260126064820152620100009092041690636c115c3490608401600060405180830381600087803b158015611f0f57600080fd5b505af1925050508015611f20575060015b50601554600d546001600160a01b03908116600090815260208190526040908190205490516312d38e5760e11b815260048101919091526201000090920416906325a71cae9060240160408051808303816000875af1925050508015611fa3575060408051601f3d908101601f19168201909252611fa091810190614212565b60015b15611fb2576011919091556012555b6015805460ff1990811660011790915560098054909116905542601655565b6000611fde338484612dfb565b5060019392505050565b6017546001600160a01b031633146120305760405162461bcd60e51b815260206004820152601160248201526000805160206143298339815191526044820152606401610c1f565b601554610100900460ff161561209857306001600160a01b038216036120985760405162461bcd60e51b815260206004820152601b60248201527f43616e6e6f74207377656570206e617469766520746f6b656e732e00000000006044820152606401610c1f565b6017546040516370a0823160e01b815230600482015282916001600160a01b038084169263a9059cbb92919091169083906370a0823190602401602060405180830381865afa1580156120ef573d6000803e3d6000fd5b505050506040513d601f19601f820116820180604052508101906121139190614236565b6040516001600160e01b031960e085901b1681526001600160a01b03909216600483015260248201526044016020604051808303816000875af115801561215e573d6000803e3d6000fd5b505050506040513d601f19601f8201168201806040525081019061121b919061424f565b6018546001600160a01b031633146121ed5760405162461bcd60e51b815260206004820152602860248201527f43616e206f6e6c792062652063616c6c6564206279206f726967696e616c206460448201526732b83637bcb2b91760c11b6064820152608401610c1f565b6019546001600160a01b0316801561222a576001600160a01b0381166000908152600460205260408120805460ff1916905561222a9082906118d0565b601980546001600160a01b0319166001600160a01b0384169081179091556000908152600460205260409020805460ff19166001908117909155610e159083906118d0565b6017546001600160a01b031633146122b75760405162461bcd60e51b815260206004820152601160248201526000805160206143298339815191526044820152606401610c1f565b600b805461ffff838116620100000263ffffffff19909216908516171790556122e081836141f0565b600b805465ffff00000000191664010000000061ffff93841602179055600a5460009161231691620100008104821691166141f0565b600b5461ffff918216925064010000000090041681101561121b5760405162461bcd60e51b815260206004820152602760248201527f43616e6e6f74206578636565642073756d206f662062757920616e642073656c60448201526636103332b2b99760c91b6064820152608401610c1f565b6017546001600160a01b031633146123d15760405162461bcd60e51b815260206004820152601160248201526000805160206143298339815191526044820152606401610c1f565b6010805461ff001916610100841515908102919091179091556013805460ff19168315151790556040519081527f7b0a47d3b0234280b6c9213c5bbff44c8b6001bea7770b3950280f9141053257906020015b60405180910390a15050565b6017546001600160a01b031633146124785760405162461bcd60e51b815260206004820152601160248201526000805160206143298339815191526044820152606401610c1f565b601554610100900460ff16156124d05760405162461bcd60e51b815260206004820152601e60248201527f43616e6e6f74206368616e6765206166746572206c69717569646974792e00006044820152606401610c1f565b60008190506000816001600160a01b031663c45a01556040518163ffffffff1660e01b8152600401602060405180830381865afa158015612515573d6000803e3d6000fd5b505050506040513d601f19601f82011682018060405250810190612539919061426c565b6001600160a01b031663e6a4390530846001600160a01b031663ad5c46486040518163ffffffff1660e01b8152600401602060405180830381865afa158015612586573d6000803e3d6000fd5b505050506040513d601f19601f820116820180604052508101906125aa919061426c565b6040516001600160e01b031960e085901b1681526001600160a01b03928316600482015291166024820152604401602060405180830381865afa1580156125f5573d6000803e3d6000fd5b505050506040513d601f19601f82011682018060405250810190612619919061426c565b600d546001600160a01b039081166000908152600160205260409020805460ff1916905590915081166127af57816001600160a01b031663c45a01556040518163ffffffff1660e01b8152600401602060405180830381865afa158015612684573d6000803e3d6000fd5b505050506040513d601f19601f820116820180604052508101906126a8919061426c565b6001600160a01b031663c9c6539630846001600160a01b031663ad5c46486040518163ffffffff1660e01b8152600401602060405180830381865afa1580156126f5573d6000803e3d6000fd5b505050506040513d601f19601f82011682018060405250810190612719919061426c565b6040516001600160e01b031960e085901b1681526001600160a01b039283166004820152911660248201526044016020604051808303816000875af1158015612766573d6000803e3d6000fd5b505050506040513d601f19601f8201168201806040525081019061278a919061426c565b600d80546001600160a01b0319166001600160a01b03929092169190911790556127cb565b600d80546001600160a01b0319166001600160a01b0383161790555b600c805474ffffffffffffffffffffffffffffffffffffffff0019166101006001600160a01b038581168202929092178355600d5482166000908152600160208190526040909120805460ff19169091179055915461121b923092910416600019612d02565b6017546001600160a01b031633146128795760405162461bcd60e51b815260206004820152601160248201526000805160206143298339815191526044820152606401610c1f565b6001600160a01b0381166128cf5760405162461bcd60e51b815260206004820152601760248201527f43616e6e6f74206265207a65726f20616464726573732e0000000000000000006044820152606401610c1f565b600e80546001600160a01b0319166001600160a01b0392909216919091179055565b6017546001600160a01b031633146129395760405162461bcd60e51b815260206004820152601160248201526000805160206143298339815191526044820152606401610c1f565b601554610100900460ff16156129915760405162461bcd60e51b815260206004820152601c60248201527f43616e6e6f742063616c6c206166746572206c69717569646974792e000000006044820152606401610c1f565b6017546040516001600160a01b03909116904780156108fc02916000818181858888f193505050501580156129ca573d6000803e3d6000fd5b50565b6017546001600160a01b03163314612a155760405162461bcd60e51b815260206004820152601160248201526000805160206143298339815191526044820152606401610c1f565b8284612a236012600a61414b565b612a3190633b9aca0061417c565b612a3b919061417c565b612a45919061415a565b6011558082612a566012600a61414b565b612a6490633b9aca0061417c565b612a6e919061417c565b612a78919061415a565b60128190556011541115612ad85760405162461bcd60e51b815260206004820152602160248201527f5468726573686f6c642063616e6e6f742062652061626f766520616d6f756e746044820152601760f91b6064820152608401610c1f565b600d546001600160a01b031660009081526020819052604090205461271090612b0290609661417c565b612b0c919061415a565b6012541115612b695760405162461bcd60e51b815260206004820152602360248201527f43616e6e6f742062652061626f766520312e3525206f662063757272656e742060448201526228249760e91b6064820152608401610c1f565b620f4240612b796012600a61414b565b612b8790633b9aca0061417c565b612b91919061415a565b6012541015612bf95760405162461bcd60e51b815260206004820152602e60248201527f43616e6e6f74206265206c6f776572207468616e20302e303030303125206f6660448201526d103a37ba30b61039bab838363c9760911b6064820152608401610c1f565b620f4240612c096012600a61414b565b612c1790633b9aca0061417c565b612c21919061415a565b6011541015612c895760405162461bcd60e51b815260206004820152602e60248201527f43616e6e6f74206265206c6f776572207468616e20302e303030303125206f6660448201526d103a37ba30b61039bab838363c9760911b6064820152608401610c1f565b50505050565b6017546001600160a01b03163314612cd75760405162461bcd60e51b815260206004820152601160248201526000805160206143298339815191526044820152606401610c1f565b6001600160a01b03919091166000908152600560205260409020805460ff1916911515919091179055565b6001600160a01b038316612d4e5760405162461bcd60e51b815260206004820152601360248201527245524332303a205a65726f204164647265737360681b6044820152606401610c1f565b6001600160a01b038216612d9a5760405162461bcd60e51b815260206004820152601360248201527245524332303a205a65726f204164647265737360681b6044820152606401610c1f565b6001600160a01b0383811660008181526003602090815260408083209487168084529482529182902085905590518481527f8c5be1e5ebec7d5bd14f71427d1e84f3dd0314c0f7b2291e5b200ac8c7c3b925910160405180910390a3505050565b60006001600160a01b038416612e615760405162461bcd60e51b815260206004820152602560248201527f45524332303a207472616e736665722066726f6d20746865207a65726f206164604482015264647265737360d81b6064820152608401610c1f565b6001600160a01b038316612ec35760405162461bcd60e51b815260206004820152602360248201527f45524332303a207472616e7366657220746f20746865207a65726f206164647260448201526265737360e81b6064820152608401610c1f565b60008211612f255760405162461bcd60e51b815260206004820152602960248201527f5472616e7366657220616d6f756e74206d7573742062652067726561746572206044820152687468616e207a65726f60b81b6064820152608401610c1f565b6001600160a01b0384166000908152600160205260408120548190819060ff1615612f535760019250612f81565b6001600160a01b03861660009081526001602052604090205460ff1615612f7d5760019150612f81565b5060015b612f8b878761350d565b156131605760155460ff1661308c5780612fe75760405162461bcd60e51b815260206004820152601860248201527f54726164696e67206e6f742079657420656e61626c65642100000000000000006044820152606401610c1f565b6001600160a01b03871660009081526005602052604090205460ff1615801561302957506001600160a01b03861660009081526005602052604090205460ff16155b1561308c5760405162461bcd60e51b815260206004820152602d60248201527f546f6b656e732063616e6e6f74206265206d6f76656420756e74696c2074726160448201526c3234b7339034b9903634bb329760991b6064820152608401610c1f565b600c546001600160a01b0387811661010090920416148015906130ad575081155b15613160576001600160a01b03861660009081526007602052604090205460ff1661316057600f54856130f5886001600160a01b031660009081526020819052604090205490565b6130ff91906141dd565b11156131605760405162461bcd60e51b815260206004820152602a60248201527f5472616e7366657220616d6f756e74206578636565647320746865206d61785760448201526930b63632ba29b4bd329760b11b6064820152608401610c1f565b81156132415760105460ff1661324157601054610100900460ff1680156131a057506001600160a01b03861660009081526008602052604090205460ff16155b80156131c557506001600160a01b03871660009081526008602052604090205460ff16155b156132415730600090815260208190526040902054601154811061323f5760125460135460ff161561322957601454600d546001600160a01b03166000908152602081905260409020546127109161321c9161417c565b613226919061415a565b90505b808210613234578091505b61323d82613624565b505b505b61324f87878786868661325a565b979650505050505050565b6000613266878761350d565b156133005760155460405163ecd07a5360e01b81526001600160a01b038981166004830152888116602483015260448201889052600092620100009004169063ecd07a53906064016020604051808303816000875af19250505080156132e9575060408051601f3d908101601f191682019092526132e69181019061424f565b60015b6132f257600080fd5b9050806132fe57600080fd5b505b6001600160a01b03871660009081526006602052604090205460019060ff168061334257506001600160a01b03871660009081526006602052604090205460ff165b1561334b575060005b6001600160a01b03881660009081526020819052604081208054889290613373908490614193565b9091555060009050816133865786613392565b6133928987878a6139ea565b9050806000808a6001600160a01b03166001600160a01b0316815260200190815260200160002060008282546133c891906141dd565b92505081905550876001600160a01b0316896001600160a01b03167fddf252ad1be2c89b69c2b068fc378daa952ba7f163c4a11628f55a4df523b3ef8360405161341491815260200190565b60405180910390a3601554610100900460ff166134fe576134358989613aff565b601554610100900460ff161580156134525750613452898961350d565b801561347757506001600160a01b03891660009081526005602052604090205460ff16155b801561349c57506001600160a01b03881660009081526005602052604090205460ff16155b80156134a6575083155b156134fe5760405162461bcd60e51b815260206004820152602260248201527f5072652d6c6971756964697479207472616e736665722070726f74656374696f604482015261371760f11b6064820152608401610c1f565b50600198975050505050505050565b6017546000906001600160a01b0384811691161480159061353c57506017546001600160a01b03838116911614155b801561355357506017546001600160a01b03163214155b801561357857506001600160a01b03821660009081526004602052604090205460ff16155b801561359d57506001600160a01b03831660009081526004602052604090205460ff16155b80156135b457506001600160a01b03821661dead14155b80156135c857506001600160a01b03821615155b80156135dd57506001600160a01b0383163014155b80156135fd57506015546001600160a01b03848116620100009092041614155b801561361d57506015546001600160a01b03838116620100009092041614155b9392505050565b6010805460ff1916600117905560408051606081018252600b5461ffff808216835262010000820481166020840152640100000000909104169181018290529060000361367157506139dd565b306000908152600360209081526040808320600c5461010090046001600160a01b03168452909152902054600019146136d457306000908152600360209081526040808320600c5461010090046001600160a01b03168452909152902060001990555b60006002826040015161ffff16836000015161ffff16856136f5919061417c565b6136ff919061415a565b613709919061415a565b905060006137178285614193565b60408051600280825260608201835292935060009290916020830190803683370190505090503081600081518110613751576137516141a6565b60200260200101906001600160a01b031690816001600160a01b031681525050600c60019054906101000a90046001600160a01b03166001600160a01b031663ad5c46486040518163ffffffff1660e01b8152600401602060405180830381865afa1580156137c4573d6000803e3d6000fd5b505050506040513d601f19601f820116820180604052508101906137e8919061426c565b816001815181106137fb576137fb6141a6565b6001600160a01b039283166020918202929092010152600c5460405163791ac94760e01b81526101009091049091169063791ac94790613848908590600090869030904290600401614289565b600060405180830381600087803b15801561386257600080fd5b505af1925050508015613873575060015b61388057505050506139dd565b4760008361388e868461417c565b613898919061415a565b9050841561397b57600c5460405163f305d71960e01b815230600482015260248101879052600060448201819052606482015261dead60848201524260a48201526101009091046001600160a01b03169063f305d71990839060c40160606040518083038185885af19350505050801561392f575060408051601f3d908101601f1916820190925261392c918101906142fa565b60015b61393e575050505050506139dd565b505060408051838152602081018890527f424db2872186fa7e7afa7a5e902ed3b49a2ef19c2f5431e672462495dd6b450692500160405180910390a15b600e546040516000916001600160a01b03169061d6d890479084818181858888f193505050503d80600081146139cd576040519150601f19603f3d011682016040523d82523d6000602084013e6139d2565b606091505b505050505050505050505b506010805460ff19169055565b6000808415613a005750600a5461ffff16613a2a565b8315613a195750600a5462010000900461ffff16613a2a565b50600a54640100000000900461ffff165b80600003613a3b5782915050610f1a565b6015546201000090046001600160a01b031630148015613a6557504660011480613a655750466038145b15613a6f57506111945b6000612710613a7e838661417c565b613a88919061415a565b90508015613af5573060009081526020819052604081208054839290613aaf9084906141dd565b909155505060405181815230906001600160a01b038916907fddf252ad1be2c89b69c2b068fc378daa952ba7f163c4a11628f55a4df523b3ef9060200160405180910390a35b61324f8185614193565b601554610100900460ff1615613b635760405162461bcd60e51b815260206004820152602360248201527f4c697175696469747920616c726561647920616464656420616e64206d61726b60448201526232b21760e91b6064820152608401610c1f565b613b6d828261350d565b158015613b875750600d546001600160a01b038281169116145b15610e15576001600160a01b038083166000908152600460209081526040808320805460ff19908116600190811790925560069093529220805490911690911790556015805461ff001916610100179081905562010000900416613bff576015805462010000600160b01b0319163062010000021790555b6010805461ff001916610100179055604051600181527f7b0a47d3b0234280b6c9213c5bbff44c8b6001bea7770b3950280f914105325790602001612424565b80151581146129ca57600080fd5b60008060408385031215613c6057600080fd5b8235613c6b81613c3f565b91506020830135613c7b81613c3f565b809150509250929050565b600060208083528351808285015260005b81811015613cb357858101830151858201604001528201613c97565b506000604082860101526040601f19601f8301168501019250505092915050565b6001600160a01b03811681146129ca57600080fd5b60008060408385031215613cfc57600080fd5b8235613d0781613cd4565b946020939093013593505050565b600060208284031215613d2757600080fd5b813561361d81613cd4565b60008060408385031215613d4557600080fd5b8235613d5081613cd4565b91506020830135613c7b81613cd4565b600080600060608486031215613d7557600080fd5b8335613d8081613cd4565b92506020840135613d9081613cd4565b929592945050506040919091013590565b60008060408385031215613db457600080fd5b50508035926020909101359150565b634e487b7160e01b600052604160045260246000fd5b604051601f8201601f1916810167ffffffffffffffff81118282101715613e0257613e02613dc3565b604052919050565b600067ffffffffffffffff821115613e2457613e24613dc3565b5060051b60200190565b600082601f830112613e3f57600080fd5b81356020613e54613e4f83613e0a565b613dd9565b82815260059290921b84018101918181019086841115613e7357600080fd5b8286015b84811015613e8e5780358352918301918301613e77565b509695505050505050565b60008060408385031215613eac57600080fd5b823567ffffffffffffffff80821115613ec457600080fd5b818501915085601f830112613ed857600080fd5b81356020613ee8613e4f83613e0a565b82815260059290921b84018101918181019089841115613f0757600080fd5b948201945b83861015613f2e578535613f1f81613cd4565b82529482019490820190613f0c565b96505086013592505080821115613f4457600080fd5b50613f5185828601613e2e565b9150509250929050565b803561ffff81168114613f6d57600080fd5b919050565b600080600060608486031215613f8757600080fd5b613f9084613f5b565b9250613f9e60208501613f5b565b9150613fac60408501613f5b565b90509250925092565b60008060408385031215613fc857600080fd5b8235613c6b81613cd4565b600060208284031215613fe557600080fd5b5035919050565b60008060408385031215613fff57600080fd5b61400883613f5b565b915061401660208401613f5b565b90509250929050565b6000806000806080858703121561403557600080fd5b5050823594602084013594506040840135936060013592509050565b634e487b7160e01b600052601160045260246000fd5b600181815b808511156140a257816000190482111561408857614088614051565b8085161561409557918102915b93841c939080029061406c565b509250929050565b6000826140b957506001610caa565b816140c657506000610caa565b81600181146140dc57600281146140e657614102565b6001915050610caa565b60ff8411156140f7576140f7614051565b50506001821b610caa565b5060208310610133831016604e8410600b8410161715614125575081810a610caa565b61412f8383614067565b806000190482111561414357614143614051565b029392505050565b600061361d60ff8416836140aa565b60008261417757634e487b7160e01b600052601260045260246000fd5b500490565b8082028115828204841417610caa57610caa614051565b81810381811115610caa57610caa614051565b634e487b7160e01b600052603260045260246000fd5b600061ffff8083168181036141d3576141d3614051565b6001019392505050565b80820180821115610caa57610caa614051565b61ffff81811683821601908082111561420b5761420b614051565b5092915050565b6000806040838503121561422557600080fd5b505080516020909101519092909150565b60006020828403121561424857600080fd5b5051919050565b60006020828403121561426157600080fd5b815161361d81613c3f565b60006020828403121561427e57600080fd5b815161361d81613cd4565b600060a082018783526020878185015260a0604085015281875180845260c086019150828901935060005b818110156142d95784516001600160a01b0316835293830193918301916001016142b4565b50506001600160a01b03969096166060850152505050608001529392505050565b60008060006060848603121561430f57600080fd5b835192506020840151915060408401519050925092509256fe43616c6c6572203d2f3d206f776e65722e000000000000000000000000000000a2646970667358221220c8c4de8726a4cc22a6af235677405077410ac0268f7ca6283a31fb1008e0d3dc64736f6c63430008120033",
			"opcodes": "PUSH1 0x0 PUSH1 0x2 DUP2 SWAP1 SSTORE PUSH1 0x9 DUP1 SLOAD PUSH1 0xFF NOT AND PUSH1 0x1 OR SWAP1 SSTORE PUSH2 0x1F4 PUSH1 0x80 DUP2 SWAP1 MSTORE PUSH1 0xA0 DUP2 SWAP1 MSTORE PUSH1 0xC0 SWAP2 SWAP1 SWAP2 MSTORE PUSH1 0xA DUP1 SLOAD PUSH6 0xFFFFFFFFFFFF NOT SWAP1 DUP2 AND PUSH4 0x1F401F4 OR DUP3 SSTORE PUSH2 0x140 PUSH1 0x40 MSTORE PUSH1 0xC8 PUSH1 0xE0 MSTORE PUSH2 0x12C PUSH2 0x100 MSTORE PUSH2 0x120 SWAP3 SWAP1 SWAP3 MSTORE PUSH1 0xB DUP1 SLOAD PUSH6 0x1F4012C00C8 SWAP4 AND SWAP3 SWAP1 SWAP3 OR SWAP1 SWAP2 SSTORE PUSH1 0xE DUP1 SLOAD PUSH1 0x1 PUSH1 0x1 PUSH1 0xA0 SHL SUB NOT AND PUSH20 0x9121530D37068F3841822057677AD0E77DB141CD OR SWAP1 SSTORE PUSH1 0x64 SWAP1 PUSH3 0xA1 SWAP1 PUSH1 0x12 SWAP1 PUSH3 0x79D JUMP JUMPDEST PUSH3 0xB1 SWAP1 PUSH4 0x3B9ACA00 PUSH3 0x7B5 JUMP JUMPDEST PUSH3 0xBE SWAP1 PUSH1 0x1 PUSH3 0x7B5 JUMP JUMPDEST PUSH3 0xCA SWAP2 SWAP1 PUSH3 0x7CF JUMP JUMPDEST PUSH1 0xF SSTORE PUSH1 0x10 DUP1 SLOAD PUSH2 0xFF00 NOT AND SWAP1 SSTORE PUSH1 0xA PUSH1 0x14 DUP2 SWAP1 SSTORE PUSH1 0x15 DUP1 SLOAD PUSH2 0xFFFF NOT AND SWAP1 SSTORE PUSH1 0x17 DUP1 SLOAD CALLER PUSH1 0x1 PUSH1 0x1 PUSH1 0xA0 SHL SUB NOT SWAP2 DUP3 AND DUP2 OR SWAP1 SWAP3 SSTORE PUSH1 0x18 DUP1 SLOAD SWAP1 SWAP2 AND SWAP1 SWAP2 OR SWAP1 SSTORE PUSH3 0x11A SWAP1 PUSH1 0x12 SWAP1 PUSH3 0x79D JUMP JUMPDEST PUSH3 0x12A SWAP1 PUSH4 0x3B9ACA00 PUSH3 0x7B5 JUMP JUMPDEST PUSH1 0x17 DUP1 SLOAD PUSH1 0x1 PUSH1 0x1 PUSH1 0xA0 SHL SUB SWAP1 DUP2 AND PUSH1 0x0 SWAP1 DUP2 MSTORE PUSH1 0x20 DUP2 SWAP1 MSTORE PUSH1 0x40 DUP2 KECCAK256 SWAP4 SWAP1 SWAP4 SSTORE SWAP1 SLOAD AND SWAP1 PUSH32 0xDDF252AD1BE2C89B69C2B068FC378DAA952BA7F163C4A11628F55A4DF523B3EF PUSH3 0x17E PUSH1 0x12 PUSH1 0xA PUSH3 0x79D JUMP JUMPDEST PUSH3 0x18E SWAP1 PUSH4 0x3B9ACA00 PUSH3 0x7B5 JUMP JUMPDEST PUSH1 0x40 MLOAD SWAP1 DUP2 MSTORE PUSH1 0x20 ADD PUSH1 0x40 MLOAD DUP1 SWAP2 SUB SWAP1 LOG3 CHAINID PUSH1 0x38 SUB PUSH3 0x1D6 JUMPI PUSH1 0xC DUP1 SLOAD PUSH2 0x100 PUSH1 0x1 PUSH1 0xA8 SHL SUB NOT AND PUSH21 0x10ED43C718714EB63D5AA57B78B54704E256024E00 OR SWAP1 SSTORE PUSH3 0x315 JUMP JUMPDEST CHAINID PUSH1 0x61 SUB PUSH3 0x20D JUMPI PUSH1 0xC DUP1 SLOAD PUSH2 0x100 PUSH1 0x1 PUSH1 0xA8 SHL SUB NOT AND PUSH21 0xD99D1C33F9FC3444F8101754ABC46C52416550D100 OR SWAP1 SSTORE PUSH3 0x315 JUMP JUMPDEST CHAINID PUSH1 0x1 EQ DUP1 PUSH3 0x21D JUMPI POP CHAINID PUSH1 0x4 EQ JUMPDEST DUP1 PUSH3 0x229 JUMPI POP CHAINID PUSH1 0x3 EQ JUMPDEST DUP1 PUSH3 0x235 JUMPI POP CHAINID PUSH1 0x5 EQ JUMPDEST ISZERO PUSH3 0x269 JUMPI PUSH1 0xC DUP1 SLOAD PUSH2 0x100 PUSH1 0x1 PUSH1 0xA8 SHL SUB NOT AND PUSH21 0x7A250D5630B4CF539739DF2C5DACB4C659F2488D00 OR SWAP1 SSTORE PUSH3 0x315 JUMP JUMPDEST CHAINID PUSH2 0xA86A SUB PUSH3 0x2A1 JUMPI PUSH1 0xC DUP1 SLOAD PUSH2 0x100 PUSH1 0x1 PUSH1 0xA8 SHL SUB NOT AND PUSH21 0x60AE616A2155EE3D9A68541BA4544862310933D400 OR SWAP1 SSTORE PUSH3 0x315 JUMP JUMPDEST CHAINID PUSH1 0xFA SUB PUSH3 0x2D8 JUMPI PUSH1 0xC DUP1 SLOAD PUSH2 0x100 PUSH1 0x1 PUSH1 0xA8 SHL SUB NOT AND PUSH21 0xF491E7B69E4244AD4002BC14E878A34207E38C2900 OR SWAP1 SSTORE PUSH3 0x315 JUMP JUMPDEST CHAINID PUSH2 0xA4B1 SUB PUSH3 0x310 JUMPI PUSH1 0xC DUP1 SLOAD PUSH2 0x100 PUSH1 0x1 PUSH1 0xA8 SHL SUB NOT AND PUSH21 0x1B02DA8CB0D097EB8D57A175B88C7D8B4799750600 OR SWAP1 SSTORE PUSH3 0x315 JUMP JUMPDEST PUSH1 0x0 DUP1 REVERT JUMPDEST PUSH1 0xC PUSH1 0x1 SWAP1 SLOAD SWAP1 PUSH2 0x100 EXP SWAP1 DIV PUSH1 0x1 PUSH1 0x1 PUSH1 0xA0 SHL SUB AND PUSH1 0x1 PUSH1 0x1 PUSH1 0xA0 SHL SUB AND PUSH4 0xC45A0155 PUSH1 0x40 MLOAD DUP2 PUSH4 0xFFFFFFFF AND PUSH1 0xE0 SHL DUP2 MSTORE PUSH1 0x4 ADD PUSH1 0x20 PUSH1 0x40 MLOAD DUP1 DUP4 SUB DUP2 DUP7 GAS STATICCALL ISZERO DUP1 ISZERO PUSH3 0x369 JUMPI RETURNDATASIZE PUSH1 0x0 DUP1 RETURNDATACOPY RETURNDATASIZE PUSH1 0x0 REVERT JUMPDEST POP POP POP POP PUSH1 0x40 MLOAD RETURNDATASIZE PUSH1 0x1F NOT PUSH1 0x1F DUP3 ADD AND DUP3 ADD DUP1 PUSH1 0x40 MSTORE POP DUP2 ADD SWAP1 PUSH3 0x38F SWAP2 SWAP1 PUSH3 0x7F2 JUMP JUMPDEST PUSH1 0x1 PUSH1 0x1 PUSH1 0xA0 SHL SUB AND PUSH4 0xC9C65396 PUSH1 0xC PUSH1 0x1 SWAP1 SLOAD SWAP1 PUSH2 0x100 EXP SWAP1 DIV PUSH1 0x1 PUSH1 0x1 PUSH1 0xA0 SHL SUB AND PUSH1 0x1 PUSH1 0x1 PUSH1 0xA0 SHL SUB AND PUSH4 0xAD5C4648 PUSH1 0x40 MLOAD DUP2 PUSH4 0xFFFFFFFF AND PUSH1 0xE0 SHL DUP2 MSTORE PUSH1 0x4 ADD PUSH1 0x20 PUSH1 0x40 MLOAD DUP1 DUP4 SUB DUP2 DUP7 GAS STATICCALL ISZERO DUP1 ISZERO PUSH3 0x3F1 JUMPI RETURNDATASIZE PUSH1 0x0 DUP1 RETURNDATACOPY RETURNDATASIZE PUSH1 0x0 REVERT JUMPDEST POP POP POP POP PUSH1 0x40 MLOAD RETURNDATASIZE PUSH1 0x1F NOT PUSH1 0x1F DUP3 ADD AND DUP3 ADD DUP1 PUSH1 0x40 MSTORE POP DUP2 ADD SWAP1 PUSH3 0x417 SWAP2 SWAP1 PUSH3 0x7F2 JUMP JUMPDEST PUSH1 0x40 MLOAD PUSH1 0x1 PUSH1 0x1 PUSH1 0xE0 SHL SUB NOT PUSH1 0xE0 DUP5 SWAP1 SHL AND DUP2 MSTORE PUSH1 0x1 PUSH1 0x1 PUSH1 0xA0 SHL SUB SWAP1 SWAP2 AND PUSH1 0x4 DUP3 ADD MSTORE ADDRESS PUSH1 0x24 DUP3 ADD MSTORE PUSH1 0x44 ADD PUSH1 0x20 PUSH1 0x40 MLOAD DUP1 DUP4 SUB DUP2 PUSH1 0x0 DUP8 GAS CALL ISZERO DUP1 ISZERO PUSH3 0x464 JUMPI RETURNDATASIZE PUSH1 0x0 DUP1 RETURNDATACOPY RETURNDATASIZE PUSH1 0x0 REVERT JUMPDEST POP POP POP POP PUSH1 0x40 MLOAD RETURNDATASIZE PUSH1 0x1F NOT PUSH1 0x1F DUP3 ADD AND DUP3 ADD DUP1 PUSH1 0x40 MSTORE POP DUP2 ADD SWAP1 PUSH3 0x48A SWAP2 SWAP1 PUSH3 0x7F2 JUMP JUMPDEST PUSH1 0xD DUP1 SLOAD PUSH1 0x1 PUSH1 0x1 PUSH1 0xA0 SHL SUB NOT AND PUSH1 0x1 PUSH1 0x1 PUSH1 0xA0 SHL SUB SWAP3 DUP4 AND SWAP1 DUP2 OR SWAP1 SWAP2 SSTORE PUSH1 0x0 SWAP1 DUP2 MSTORE PUSH1 0x1 PUSH1 0x20 DUP2 SWAP1 MSTORE PUSH1 0x40 SWAP1 SWAP2 KECCAK256 DUP1 SLOAD PUSH1 0xFF NOT AND SWAP1 SWAP2 OR SWAP1 SSTORE PUSH1 0x17 SLOAD PUSH1 0xC SLOAD PUSH3 0x4E4 SWAP3 SWAP2 DUP3 AND SWAP2 PUSH2 0x100 SWAP1 SWAP2 DIV AND PUSH1 0x0 NOT PUSH3 0x587 JUMP JUMPDEST PUSH1 0xC SLOAD PUSH3 0x505 SWAP1 ADDRESS SWAP1 PUSH2 0x100 SWAP1 DIV PUSH1 0x1 PUSH1 0x1 PUSH1 0xA0 SHL SUB AND PUSH1 0x0 NOT PUSH3 0x587 JUMP JUMPDEST PUSH1 0x17 DUP1 SLOAD PUSH1 0x1 PUSH1 0x1 PUSH1 0xA0 SHL SUB SWAP1 DUP2 AND PUSH1 0x0 SWAP1 DUP2 MSTORE PUSH1 0x6 PUSH1 0x20 SWAP1 DUP2 MSTORE PUSH1 0x40 DUP1 DUP4 KECCAK256 DUP1 SLOAD PUSH1 0x1 PUSH1 0xFF NOT SWAP2 DUP3 AND DUP2 OR SWAP1 SWAP3 SSTORE ADDRESS DUP6 MSTORE DUP3 DUP6 KECCAK256 DUP1 SLOAD DUP3 AND DUP4 OR SWAP1 SSTORE PUSH32 0x1AECBA4EBE7A4E0673E4891B2B092B2228E4322380B579FB494FAD3DA8586E22 DUP1 SLOAD DUP3 AND DUP4 OR SWAP1 SSTORE SWAP6 SLOAD SWAP1 SWAP5 AND DUP4 MSTORE PUSH1 0x4 SWAP1 SWAP2 MSTORE SWAP1 KECCAK256 DUP1 SLOAD SWAP1 SWAP3 AND OR SWAP1 SSTORE PUSH3 0x81D JUMP JUMPDEST PUSH1 0x1 PUSH1 0x1 PUSH1 0xA0 SHL SUB DUP4 AND PUSH3 0x5D9 JUMPI PUSH1 0x40 MLOAD PUSH3 0x461BCD PUSH1 0xE5 SHL DUP2 MSTORE PUSH1 0x20 PUSH1 0x4 DUP3 ADD MSTORE PUSH1 0x13 PUSH1 0x24 DUP3 ADD MSTORE PUSH19 0x45524332303A205A65726F2041646472657373 PUSH1 0x68 SHL PUSH1 0x44 DUP3 ADD MSTORE PUSH1 0x64 ADD JUMPDEST PUSH1 0x40 MLOAD DUP1 SWAP2 SUB SWAP1 REVERT JUMPDEST PUSH1 0x1 PUSH1 0x1 PUSH1 0xA0 SHL SUB DUP3 AND PUSH3 0x627 JUMPI PUSH1 0x40 MLOAD PUSH3 0x461BCD PUSH1 0xE5 SHL DUP2 MSTORE PUSH1 0x20 PUSH1 0x4 DUP3 ADD MSTORE PUSH1 0x13 PUSH1 0x24 DUP3 ADD MSTORE PUSH19 0x45524332303A205A65726F2041646472657373 PUSH1 0x68 SHL PUSH1 0x44 DUP3 ADD MSTORE PUSH1 0x64 ADD PUSH3 0x5D0 JUMP JUMPDEST PUSH1 0x1 PUSH1 0x1 PUSH1 0xA0 SHL SUB DUP4 DUP2 AND PUSH1 0x0 DUP2 DUP2 MSTORE PUSH1 0x3 PUSH1 0x20 SWAP1 DUP2 MSTORE PUSH1 0x40 DUP1 DUP4 KECCAK256 SWAP5 DUP8 AND DUP1 DUP5 MSTORE SWAP5 DUP3 MSTORE SWAP2 DUP3 SWAP1 KECCAK256 DUP6 SWAP1 SSTORE SWAP1 MLOAD DUP5 DUP2 MSTORE PUSH32 0x8C5BE1E5EBEC7D5BD14F71427D1E84F3DD0314C0F7B2291E5B200AC8C7C3B925 SWAP2 ADD PUSH1 0x40 MLOAD DUP1 SWAP2 SUB SWAP1 LOG3 POP POP POP JUMP JUMPDEST PUSH4 0x4E487B71 PUSH1 0xE0 SHL PUSH1 0x0 MSTORE PUSH1 0x11 PUSH1 0x4 MSTORE PUSH1 0x24 PUSH1 0x0 REVERT JUMPDEST PUSH1 0x1 DUP2 DUP2 JUMPDEST DUP1 DUP6 GT ISZERO PUSH3 0x6DF JUMPI DUP2 PUSH1 0x0 NOT DIV DUP3 GT ISZERO PUSH3 0x6C3 JUMPI PUSH3 0x6C3 PUSH3 0x688 JUMP JUMPDEST DUP1 DUP6 AND ISZERO PUSH3 0x6D1 JUMPI SWAP2 DUP2 MUL SWAP2 JUMPDEST SWAP4 DUP5 SHR SWAP4 SWAP1 DUP1 MUL SWAP1 PUSH3 0x6A3 JUMP JUMPDEST POP SWAP3 POP SWAP3 SWAP1 POP JUMP JUMPDEST PUSH1 0x0 DUP3 PUSH3 0x6F8 JUMPI POP PUSH1 0x1 PUSH3 0x797 JUMP JUMPDEST DUP2 PUSH3 0x707 JUMPI POP PUSH1 0x0 PUSH3 0x797 JUMP JUMPDEST DUP2 PUSH1 0x1 DUP2 EQ PUSH3 0x720 JUMPI PUSH1 0x2 DUP2 EQ PUSH3 0x72B JUMPI PUSH3 0x74B JUMP JUMPDEST PUSH1 0x1 SWAP2 POP POP PUSH3 0x797 JUMP JUMPDEST PUSH1 0xFF DUP5 GT ISZERO PUSH3 0x73F JUMPI PUSH3 0x73F PUSH3 0x688 JUMP JUMPDEST POP POP PUSH1 0x1 DUP3 SHL PUSH3 0x797 JUMP JUMPDEST POP PUSH1 0x20 DUP4 LT PUSH2 0x133 DUP4 LT AND PUSH1 0x4E DUP5 LT PUSH1 0xB DUP5 LT AND OR ISZERO PUSH3 0x770 JUMPI POP DUP2 DUP2 EXP PUSH3 0x797 JUMP JUMPDEST PUSH3 0x77C DUP4 DUP4 PUSH3 0x69E JUMP JUMPDEST DUP1 PUSH1 0x0 NOT DIV DUP3 GT ISZERO PUSH3 0x793 JUMPI PUSH3 0x793 PUSH3 0x688 JUMP JUMPDEST MUL SWAP1 POP JUMPDEST SWAP3 SWAP2 POP POP JUMP JUMPDEST PUSH1 0x0 PUSH3 0x7AE PUSH1 0xFF DUP5 AND DUP4 PUSH3 0x6E7 JUMP JUMPDEST SWAP4 SWAP3 POP POP POP JUMP JUMPDEST DUP1 DUP3 MUL DUP2 ISZERO DUP3 DUP3 DIV DUP5 EQ OR PUSH3 0x797 JUMPI PUSH3 0x797 PUSH3 0x688 JUMP JUMPDEST PUSH1 0x0 DUP3 PUSH3 0x7ED JUMPI PUSH4 0x4E487B71 PUSH1 0xE0 SHL PUSH1 0x0 MSTORE PUSH1 0x12 PUSH1 0x4 MSTORE PUSH1 0x24 PUSH1 0x0 REVERT JUMPDEST POP DIV SWAP1 JUMP JUMPDEST PUSH1 0x0 PUSH1 0x20 DUP3 DUP5 SUB SLT ISZERO PUSH3 0x805 JUMPI PUSH1 0x0 DUP1 REVERT JUMPDEST DUP2 MLOAD PUSH1 0x1 PUSH1 0x1 PUSH1 0xA0 SHL SUB DUP2 AND DUP2 EQ PUSH3 0x7AE JUMPI PUSH1 0x0 DUP1 REVERT JUMPDEST PUSH2 0x437E DUP1 PUSH3 0x82D PUSH1 0x0 CODECOPY PUSH1 0x0 RETURN INVALID PUSH1 0x80 PUSH1 0x40 MSTORE PUSH1 0x4 CALLDATASIZE LT PUSH2 0x3BC JUMPI PUSH1 0x0 CALLDATALOAD PUSH1 0xE0 SHR DUP1 PUSH4 0x50A8E016 GT PUSH2 0x1F2 JUMPI DUP1 PUSH4 0xA9059CBB GT PUSH2 0x10D JUMPI DUP1 PUSH4 0xCF847706 GT PUSH2 0xA0 JUMPI DUP1 PUSH4 0xEE5D9C2D GT PUSH2 0x6F JUMPI DUP1 PUSH4 0xEE5D9C2D EQ PUSH2 0xB67 JUMPI DUP1 PUSH4 0xFB78680D EQ PUSH2 0xB7C JUMPI DUP1 PUSH4 0xFDB78C0E EQ PUSH2 0xB9C JUMPI DUP1 PUSH4 0xFEADDE9C EQ PUSH2 0xBBB JUMPI PUSH1 0x0 DUP1 REVERT JUMPDEST DUP1 PUSH4 0xCF847706 EQ PUSH2 0xAB0 JUMPI DUP1 PUSH4 0xDD62ED3E EQ PUSH2 0xAE1 JUMPI DUP1 PUSH4 0xEAFB5A3C EQ PUSH2 0xB27 JUMPI DUP1 PUSH4 0xEB50E70E EQ PUSH2 0xB47 JUMPI PUSH1 0x0 DUP1 REVERT JUMPDEST DUP1 PUSH4 0xB3D514FB GT PUSH2 0xDC JUMPI DUP1 PUSH4 0xB3D514FB EQ PUSH2 0x64E JUMPI DUP1 PUSH4 0xB7DF8B36 EQ PUSH2 0xA56 JUMPI DUP1 PUSH4 0xBCD96A25 EQ PUSH2 0xA70 JUMPI DUP1 PUSH4 0xBFC2FC35 EQ PUSH2 0xA90 JUMPI PUSH1 0x0 DUP1 REVERT JUMPDEST DUP1 PUSH4 0xA9059CBB EQ PUSH2 0x9F6 JUMPI DUP1 PUSH4 0xAB558E4D EQ PUSH2 0xA16 JUMPI DUP1 PUSH4 0xB1B08F71 EQ PUSH2 0x64E JUMPI DUP1 PUSH4 0xB3AB15FB EQ PUSH2 0xA36 JUMPI PUSH1 0x0 DUP1 REVERT JUMPDEST DUP1 PUSH4 0x75F0A874 GT PUSH2 0x185 JUMPI DUP1 PUSH4 0x893D20E8 GT PUSH2 0x154 JUMPI DUP1 PUSH4 0x893D20E8 EQ PUSH2 0x982 JUMPI DUP1 PUSH4 0x8A63BD9B EQ PUSH2 0x9A0 JUMPI DUP1 PUSH4 0x8A8C523C EQ PUSH2 0x9B5 JUMPI DUP1 PUSH4 0x95D89B41 EQ PUSH2 0x9CA JUMPI PUSH1 0x0 DUP1 REVERT JUMPDEST DUP1 PUSH4 0x75F0A874 EQ PUSH2 0x90D JUMPI DUP1 PUSH4 0x78648EDF EQ PUSH2 0x92D JUMPI DUP1 PUSH4 0x80C581D1 EQ PUSH2 0x942 JUMPI DUP1 PUSH4 0x81CF58A9 EQ PUSH2 0x962 JUMPI PUSH1 0x0 DUP1 REVERT JUMPDEST DUP1 PUSH4 0x5C24B074 GT PUSH2 0x1C1 JUMPI DUP1 PUSH4 0x5C24B074 EQ PUSH2 0x869 JUMPI DUP1 PUSH4 0x5CCE86CD EQ PUSH2 0x889 JUMPI DUP1 PUSH4 0x70A08231 EQ PUSH2 0x8C2 JUMPI DUP1 PUSH4 0x715018A6 EQ PUSH2 0x8F8 JUMPI PUSH1 0x0 DUP1 REVERT JUMPDEST DUP1 PUSH4 0x50A8E016 EQ PUSH2 0x7F4 JUMPI DUP1 PUSH4 0x570CA735 EQ PUSH2 0x813 JUMPI DUP1 PUSH4 0x590FFDCE EQ PUSH2 0x833 JUMPI DUP1 PUSH4 0x5A6F0918 EQ PUSH2 0x853 JUMPI PUSH1 0x0 DUP1 REVERT JUMPDEST DUP1 PUSH4 0x28577751 GT PUSH2 0x2E2 JUMPI DUP1 PUSH4 0x39A05902 GT PUSH2 0x275 JUMPI DUP1 PUSH4 0x4BBB93EB GT PUSH2 0x244 JUMPI DUP1 PUSH4 0x4BBB93EB EQ PUSH2 0x75B JUMPI DUP1 PUSH4 0x4E718E48 EQ PUSH2 0x77B JUMPI DUP1 PUSH4 0x4FB2E45D EQ PUSH2 0x79B JUMPI DUP1 PUSH4 0x4FBEE193 EQ PUSH2 0x7BB JUMPI PUSH1 0x0 DUP1 REVERT JUMPDEST DUP1 PUSH4 0x39A05902 EQ PUSH2 0x6F6 JUMPI DUP1 PUSH4 0x452ED4F1 EQ PUSH2 0x70B JUMPI DUP1 PUSH4 0x46EA7AC8 EQ PUSH2 0x72B JUMPI DUP1 PUSH4 0x4ADA218B EQ PUSH2 0x741 JUMPI PUSH1 0x0 DUP1 REVERT JUMPDEST DUP1 PUSH4 0x313CE567 GT PUSH2 0x2B1 JUMPI DUP1 PUSH4 0x313CE567 EQ PUSH2 0x67A JUMPI DUP1 PUSH4 0x32CDE664 EQ PUSH2 0x696 JUMPI DUP1 PUSH4 0x33251A0B EQ PUSH2 0x6B6 JUMPI DUP1 PUSH4 0x36FDDB04 EQ PUSH2 0x6D6 JUMPI PUSH1 0x0 DUP1 REVERT JUMPDEST DUP1 PUSH4 0x28577751 EQ PUSH2 0x623 JUMPI DUP1 PUSH4 0x2B112E49 EQ PUSH2 0x639 JUMPI DUP1 PUSH4 0x2B28FC7A EQ PUSH2 0x64E JUMPI DUP1 PUSH4 0x2E8FA821 EQ PUSH2 0x664 JUMPI PUSH1 0x0 DUP1 REVERT JUMPDEST DUP1 PUSH4 0x95EA7B3 GT PUSH2 0x35A JUMPI DUP1 PUSH4 0x18160DDD GT PUSH2 0x329 JUMPI DUP1 PUSH4 0x18160DDD EQ PUSH2 0x5AE JUMPI DUP1 PUSH4 0x23B872DD EQ PUSH2 0x5C3 JUMPI DUP1 PUSH4 0x26003957 EQ PUSH2 0x5E3 JUMPI DUP1 PUSH4 0x2610EACA EQ PUSH2 0x603 JUMPI PUSH1 0x0 DUP1 REVERT JUMPDEST DUP1 PUSH4 0x95EA7B3 EQ PUSH2 0x520 JUMPI DUP1 PUSH4 0xDCBCF1C EQ PUSH2 0x540 JUMPI DUP1 PUSH4 0xFA604E4 EQ PUSH2 0x579 JUMPI DUP1 PUSH4 0x13B4A7F4 EQ PUSH2 0x58E JUMPI PUSH1 0x0 DUP1 REVERT JUMPDEST DUP1 PUSH4 0x69D955F GT PUSH2 0x396 JUMPI DUP1 PUSH4 0x69D955F EQ PUSH2 0x441 JUMPI DUP1 PUSH4 0x6FDDE03 EQ PUSH2 0x497 JUMPI DUP1 PUSH4 0x758D924 EQ PUSH2 0x4D1 JUMPI DUP1 PUSH4 0x7DD79E0 EQ PUSH2 0x4F6 JUMPI PUSH1 0x0 DUP1 REVERT JUMPDEST DUP1 PUSH4 0x3FD2A45 EQ PUSH2 0x3C8 JUMPI DUP1 PUSH4 0x445B667 EQ PUSH2 0x3FB JUMPI DUP1 PUSH4 0x44DF726 EQ PUSH2 0x41F JUMPI PUSH1 0x0 DUP1 REVERT JUMPDEST CALLDATASIZE PUSH2 0x3C3 JUMPI STOP JUMPDEST PUSH1 0x0 DUP1 REVERT JUMPDEST CALLVALUE DUP1 ISZERO PUSH2 0x3D4 JUMPI PUSH1 0x0 DUP1 REVERT JUMPDEST POP PUSH2 0x3DE PUSH2 0xDEAD DUP2 JUMP JUMPDEST PUSH1 0x40 MLOAD PUSH1 0x1 PUSH1 0x1 PUSH1 0xA0 SHL SUB SWAP1 SWAP2 AND DUP2 MSTORE PUSH1 0x20 ADD JUMPDEST PUSH1 0x40 MLOAD DUP1 SWAP2 SUB SWAP1 RETURN JUMPDEST CALLVALUE DUP1 ISZERO PUSH2 0x407 JUMPI PUSH1 0x0 DUP1 REVERT JUMPDEST POP PUSH2 0x411 PUSH1 0x11 SLOAD DUP2 JUMP JUMPDEST PUSH1 0x40 MLOAD SWAP1 DUP2 MSTORE PUSH1 0x20 ADD PUSH2 0x3F2 JUMP JUMPDEST CALLVALUE DUP1 ISZERO PUSH2 0x42B JUMPI PUSH1 0x0 DUP1 REVERT JUMPDEST POP PUSH2 0x43F PUSH2 0x43A CALLDATASIZE PUSH1 0x4 PUSH2 0x3C4D JUMP JUMPDEST PUSH2 0xBDB JUMP JUMPDEST STOP JUMPDEST CALLVALUE DUP1 ISZERO PUSH2 0x44D JUMPI PUSH1 0x0 DUP1 REVERT JUMPDEST POP PUSH1 0xA SLOAD PUSH2 0x472 SWAP1 PUSH2 0xFFFF DUP1 DUP3 AND SWAP2 PUSH3 0x10000 DUP2 DIV DUP3 AND SWAP2 PUSH5 0x100000000 SWAP1 SWAP2 DIV AND DUP4 JUMP JUMPDEST PUSH1 0x40 DUP1 MLOAD PUSH2 0xFFFF SWAP5 DUP6 AND DUP2 MSTORE SWAP3 DUP5 AND PUSH1 0x20 DUP5 ADD MSTORE SWAP3 AND SWAP2 DUP2 ADD SWAP2 SWAP1 SWAP2 MSTORE PUSH1 0x60 ADD PUSH2 0x3F2 JUMP JUMPDEST CALLVALUE DUP1 ISZERO PUSH2 0x4A3 JUMPI PUSH1 0x0 DUP1 REVERT JUMPDEST POP PUSH1 0x40 DUP1 MLOAD DUP1 DUP3 ADD SWAP1 SWAP2 MSTORE PUSH1 0x8 DUP2 MSTORE PUSH8 0x828EA492A88A869 PUSH1 0xC3 SHL PUSH1 0x20 DUP3 ADD MSTORE JUMPDEST PUSH1 0x40 MLOAD PUSH2 0x3F2 SWAP2 SWAP1 PUSH2 0x3C86 JUMP JUMPDEST CALLVALUE DUP1 ISZERO PUSH2 0x4DD JUMPI PUSH1 0x0 DUP1 REVERT JUMPDEST POP PUSH1 0xC SLOAD PUSH2 0x3DE SWAP1 PUSH2 0x100 SWAP1 DIV PUSH1 0x1 PUSH1 0x1 PUSH1 0xA0 SHL SUB AND DUP2 JUMP JUMPDEST CALLVALUE DUP1 ISZERO PUSH2 0x502 JUMPI PUSH1 0x0 DUP1 REVERT JUMPDEST POP PUSH1 0xC SLOAD PUSH2 0x510 SWAP1 PUSH1 0xFF AND DUP2 JUMP JUMPDEST PUSH1 0x40 MLOAD SWAP1 ISZERO ISZERO DUP2 MSTORE PUSH1 0x20 ADD PUSH2 0x3F2 JUMP JUMPDEST CALLVALUE DUP1 ISZERO PUSH2 0x52C JUMPI PUSH1 0x0 DUP1 REVERT JUMPDEST POP PUSH2 0x510 PUSH2 0x53B CALLDATASIZE PUSH1 0x4 PUSH2 0x3CE9 JUMP JUMPDEST PUSH2 0xC99 JUMP JUMPDEST CALLVALUE DUP1 ISZERO PUSH2 0x54C JUMPI PUSH1 0x0 DUP1 REVERT JUMPDEST POP PUSH2 0x510 PUSH2 0x55B CALLDATASIZE PUSH1 0x4 PUSH2 0x3D15 JUMP JUMPDEST PUSH1 0x1 PUSH1 0x1 PUSH1 0xA0 SHL SUB AND PUSH1 0x0 SWAP1 DUP2 MSTORE PUSH1 0x5 PUSH1 0x20 MSTORE PUSH1 0x40 SWAP1 KECCAK256 SLOAD PUSH1 0xFF AND SWAP1 JUMP JUMPDEST CALLVALUE DUP1 ISZERO PUSH2 0x585 JUMPI PUSH1 0x0 DUP1 REVERT JUMPDEST POP PUSH2 0x411 PUSH2 0xCB0 JUMP JUMPDEST CALLVALUE DUP1 ISZERO PUSH2 0x59A JUMPI PUSH1 0x0 DUP1 REVERT JUMPDEST POP PUSH2 0x43F PUSH2 0x5A9 CALLDATASIZE PUSH1 0x4 PUSH2 0x3D32 JUMP JUMPDEST PUSH2 0xCD0 JUMP JUMPDEST CALLVALUE DUP1 ISZERO PUSH2 0x5BA JUMPI PUSH1 0x0 DUP1 REVERT JUMPDEST POP PUSH2 0x411 PUSH2 0xE8E JUMP JUMPDEST CALLVALUE DUP1 ISZERO PUSH2 0x5CF JUMPI PUSH1 0x0 DUP1 REVERT JUMPDEST POP PUSH2 0x510 PUSH2 0x5DE CALLDATASIZE PUSH1 0x4 PUSH2 0x3D60 JUMP JUMPDEST PUSH2 0xEAA JUMP JUMPDEST CALLVALUE DUP1 ISZERO PUSH2 0x5EF JUMPI PUSH1 0x0 DUP1 REVERT JUMPDEST POP PUSH2 0x43F PUSH2 0x5FE CALLDATASIZE PUSH1 0x4 PUSH2 0x3DA1 JUMP JUMPDEST PUSH2 0xF22 JUMP JUMPDEST CALLVALUE DUP1 ISZERO PUSH2 0x60F JUMPI PUSH1 0x0 DUP1 REVERT JUMPDEST POP PUSH2 0x43F PUSH2 0x61E CALLDATASIZE PUSH1 0x4 PUSH2 0x3E99 JUMP JUMPDEST PUSH2 0x106B JUMP JUMPDEST CALLVALUE DUP1 ISZERO PUSH2 0x62F JUMPI PUSH1 0x0 DUP1 REVERT JUMPDEST POP PUSH2 0x411 PUSH1 0x14 SLOAD DUP2 JUMP JUMPDEST CALLVALUE DUP1 ISZERO PUSH2 0x645 JUMPI PUSH1 0x0 DUP1 REVERT JUMPDEST POP PUSH2 0x411 PUSH2 0x1220 JUMP JUMPDEST CALLVALUE DUP1 ISZERO PUSH2 0x65A JUMPI PUSH1 0x0 DUP1 REVERT JUMPDEST POP PUSH2 0x411 PUSH2 0x7D0 DUP2 JUMP JUMPDEST CALLVALUE DUP1 ISZERO PUSH2 0x670 JUMPI PUSH1 0x0 DUP1 REVERT JUMPDEST POP PUSH2 0x411 PUSH1 0x12 SLOAD DUP2 JUMP JUMPDEST CALLVALUE DUP1 ISZERO PUSH2 0x686 JUMPI PUSH1 0x0 DUP1 REVERT JUMPDEST POP PUSH1 0x40 MLOAD PUSH1 0x12 DUP2 MSTORE PUSH1 0x20 ADD PUSH2 0x3F2 JUMP JUMPDEST CALLVALUE DUP1 ISZERO PUSH2 0x6A2 JUMPI PUSH1 0x0 DUP1 REVERT JUMPDEST POP PUSH2 0x43F PUSH2 0x6B1 CALLDATASIZE PUSH1 0x4 PUSH2 0x3F72 JUMP JUMPDEST PUSH2 0x129E JUMP JUMPDEST CALLVALUE DUP1 ISZERO PUSH2 0x6C2 JUMPI PUSH1 0x0 DUP1 REVERT JUMPDEST POP PUSH2 0x43F PUSH2 0x6D1 CALLDATASIZE PUSH1 0x4 PUSH2 0x3D15 JUMP JUMPDEST PUSH2 0x1451 JUMP JUMPDEST CALLVALUE DUP1 ISZERO PUSH2 0x6E2 JUMPI PUSH1 0x0 DUP1 REVERT JUMPDEST POP PUSH2 0x43F PUSH2 0x6F1 CALLDATASIZE PUSH1 0x4 PUSH2 0x3FB5 JUMP JUMPDEST PUSH2 0x1502 JUMP JUMPDEST CALLVALUE DUP1 ISZERO PUSH2 0x702 JUMPI PUSH1 0x0 DUP1 REVERT JUMPDEST POP PUSH2 0x43F PUSH2 0x1575 JUMP JUMPDEST CALLVALUE DUP1 ISZERO PUSH2 0x717 JUMPI PUSH1 0x0 DUP1 REVERT JUMPDEST POP PUSH1 0xD SLOAD PUSH2 0x3DE SWAP1 PUSH1 0x1 PUSH1 0x1 PUSH1 0xA0 SHL SUB AND DUP2 JUMP JUMPDEST CALLVALUE DUP1 ISZERO PUSH2 0x737 JUMPI PUSH1 0x0 DUP1 REVERT JUMPDEST POP PUSH2 0x411 PUSH2 0x9C4 DUP2 JUMP JUMPDEST CALLVALUE DUP1 ISZERO PUSH2 0x74D JUMPI PUSH1 0x0 DUP1 REVERT JUMPDEST POP PUSH1 0x15 SLOAD PUSH2 0x510 SWAP1 PUSH1 0xFF AND DUP2 JUMP JUMPDEST CALLVALUE DUP1 ISZERO PUSH2 0x767 JUMPI PUSH1 0x0 DUP1 REVERT JUMPDEST POP PUSH2 0x411 PUSH2 0x776 CALLDATASIZE PUSH1 0x4 PUSH2 0x3FD3 JUMP JUMPDEST PUSH2 0x15FC JUMP JUMPDEST CALLVALUE DUP1 ISZERO PUSH2 0x787 JUMPI PUSH1 0x0 DUP1 REVERT JUMPDEST POP PUSH2 0x43F PUSH2 0x796 CALLDATASIZE PUSH1 0x4 PUSH2 0x3FD3 JUMP JUMPDEST PUSH2 0x1630 JUMP JUMPDEST CALLVALUE DUP1 ISZERO PUSH2 0x7A7 JUMPI PUSH1 0x0 DUP1 REVERT JUMPDEST POP PUSH2 0x43F PUSH2 0x7B6 CALLDATASIZE PUSH1 0x4 PUSH2 0x3D15 JUMP JUMPDEST PUSH2 0x16CE JUMP JUMPDEST CALLVALUE DUP1 ISZERO PUSH2 0x7C7 JUMPI PUSH1 0x0 DUP1 REVERT JUMPDEST POP PUSH2 0x510 PUSH2 0x7D6 CALLDATASIZE PUSH1 0x4 PUSH2 0x3D15 JUMP JUMPDEST PUSH1 0x1 PUSH1 0x1 PUSH1 0xA0 SHL SUB AND PUSH1 0x0 SWAP1 DUP2 MSTORE PUSH1 0x6 PUSH1 0x20 MSTORE PUSH1 0x40 SWAP1 KECCAK256 SLOAD PUSH1 0xFF AND SWAP1 JUMP JUMPDEST CALLVALUE DUP1 ISZERO PUSH2 0x800 JUMPI PUSH1 0x0 DUP1 REVERT JUMPDEST POP PUSH1 0x15 SLOAD PUSH2 0x510 SWAP1 PUSH2 0x100 SWAP1 DIV PUSH1 0xFF AND DUP2 JUMP JUMPDEST CALLVALUE DUP1 ISZERO PUSH2 0x81F JUMPI PUSH1 0x0 DUP1 REVERT JUMPDEST POP PUSH1 0x19 SLOAD PUSH2 0x3DE SWAP1 PUSH1 0x1 PUSH1 0x1 PUSH1 0xA0 SHL SUB AND DUP2 JUMP JUMPDEST CALLVALUE DUP1 ISZERO PUSH2 0x83F JUMPI PUSH1 0x0 DUP1 REVERT JUMPDEST POP PUSH2 0x43F PUSH2 0x84E CALLDATASIZE PUSH1 0x4 PUSH2 0x3FB5 JUMP JUMPDEST PUSH2 0x18D0 JUMP JUMPDEST CALLVALUE DUP1 ISZERO PUSH2 0x85F JUMPI PUSH1 0x0 DUP1 REVERT JUMPDEST POP PUSH2 0x411 PUSH1 0x16 SLOAD DUP2 JUMP JUMPDEST CALLVALUE DUP1 ISZERO PUSH2 0x875 JUMPI PUSH1 0x0 DUP1 REVERT JUMPDEST POP PUSH2 0x43F PUSH2 0x884 CALLDATASIZE PUSH1 0x4 PUSH2 0x3D15 JUMP JUMPDEST PUSH2 0x1943 JUMP JUMPDEST CALLVALUE DUP1 ISZERO PUSH2 0x895 JUMPI PUSH1 0x0 DUP1 REVERT JUMPDEST POP PUSH2 0x510 PUSH2 0x8A4 CALLDATASIZE PUSH1 0x4 PUSH2 0x3D15 JUMP JUMPDEST PUSH1 0x1 PUSH1 0x1 PUSH1 0xA0 SHL SUB AND PUSH1 0x0 SWAP1 DUP2 MSTORE PUSH1 0x7 PUSH1 0x20 MSTORE PUSH1 0x40 SWAP1 KECCAK256 SLOAD PUSH1 0xFF AND SWAP1 JUMP JUMPDEST CALLVALUE DUP1 ISZERO PUSH2 0x8CE JUMPI PUSH1 0x0 DUP1 REVERT JUMPDEST POP PUSH2 0x411 PUSH2 0x8DD CALLDATASIZE PUSH1 0x4 PUSH2 0x3D15 JUMP JUMPDEST PUSH1 0x1 PUSH1 0x1 PUSH1 0xA0 SHL SUB AND PUSH1 0x0 SWAP1 DUP2 MSTORE PUSH1 0x20 DUP2 SWAP1 MSTORE PUSH1 0x40 SWAP1 KECCAK256 SLOAD SWAP1 JUMP JUMPDEST CALLVALUE DUP1 ISZERO PUSH2 0x904 JUMPI PUSH1 0x0 DUP1 REVERT JUMPDEST POP PUSH2 0x43F PUSH2 0x1A1D JUMP JUMPDEST CALLVALUE DUP1 ISZERO PUSH2 0x919 JUMPI PUSH1 0x0 DUP1 REVERT JUMPDEST POP PUSH1 0xE SLOAD PUSH2 0x3DE SWAP1 PUSH1 0x1 PUSH1 0x1 PUSH1 0xA0 SHL SUB AND DUP2 JUMP JUMPDEST CALLVALUE DUP1 ISZERO PUSH2 0x939 JUMPI PUSH1 0x0 DUP1 REVERT JUMPDEST POP PUSH2 0x43F PUSH2 0x1ACA JUMP JUMPDEST CALLVALUE DUP1 ISZERO PUSH2 0x94E JUMPI PUSH1 0x0 DUP1 REVERT JUMPDEST POP PUSH2 0x43F PUSH2 0x95D CALLDATASIZE PUSH1 0x4 PUSH2 0x3FB5 JUMP JUMPDEST PUSH2 0x1B21 JUMP JUMPDEST CALLVALUE DUP1 ISZERO PUSH2 0x96E JUMPI PUSH1 0x0 DUP1 REVERT JUMPDEST POP PUSH1 0x18 SLOAD PUSH2 0x3DE SWAP1 PUSH1 0x1 PUSH1 0x1 PUSH1 0xA0 SHL SUB AND DUP2 JUMP JUMPDEST CALLVALUE DUP1 ISZERO PUSH2 0x98E JUMPI PUSH1 0x0 DUP1 REVERT JUMPDEST POP PUSH1 0x17 SLOAD PUSH1 0x1 PUSH1 0x1 PUSH1 0xA0 SHL SUB AND PUSH2 0x3DE JUMP JUMPDEST CALLVALUE DUP1 ISZERO PUSH2 0x9AC JUMPI PUSH1 0x0 DUP1 REVERT JUMPDEST POP PUSH2 0x510 PUSH2 0x1D0B JUMP JUMPDEST CALLVALUE DUP1 ISZERO PUSH2 0x9C1 JUMPI PUSH1 0x0 DUP1 REVERT JUMPDEST POP PUSH2 0x43F PUSH2 0x1D7B JUMP JUMPDEST CALLVALUE DUP1 ISZERO PUSH2 0x9D6 JUMPI PUSH1 0x0 DUP1 REVERT JUMPDEST POP PUSH1 0x40 DUP1 MLOAD DUP1 DUP3 ADD SWAP1 SWAP2 MSTORE PUSH1 0x3 DUP2 MSTORE PUSH3 0x1051D5 PUSH1 0xEA SHL PUSH1 0x20 DUP3 ADD MSTORE PUSH2 0x4C4 JUMP JUMPDEST CALLVALUE DUP1 ISZERO PUSH2 0xA02 JUMPI PUSH1 0x0 DUP1 REVERT JUMPDEST POP PUSH2 0x510 PUSH2 0xA11 CALLDATASIZE PUSH1 0x4 PUSH2 0x3CE9 JUMP JUMPDEST PUSH2 0x1FD1 JUMP JUMPDEST CALLVALUE DUP1 ISZERO PUSH2 0xA22 JUMPI PUSH1 0x0 DUP1 REVERT JUMPDEST POP PUSH2 0x43F PUSH2 0xA31 CALLDATASIZE PUSH1 0x4 PUSH2 0x3D15 JUMP JUMPDEST PUSH2 0x1FE8 JUMP JUMPDEST CALLVALUE DUP1 ISZERO PUSH2 0xA42 JUMPI PUSH1 0x0 DUP1 REVERT JUMPDEST POP PUSH2 0x43F PUSH2 0xA51 CALLDATASIZE PUSH1 0x4 PUSH2 0x3D15 JUMP JUMPDEST PUSH2 0x2182 JUMP JUMPDEST CALLVALUE DUP1 ISZERO PUSH2 0xA62 JUMPI PUSH1 0x0 DUP1 REVERT JUMPDEST POP PUSH1 0x13 SLOAD PUSH2 0x510 SWAP1 PUSH1 0xFF AND DUP2 JUMP JUMPDEST CALLVALUE DUP1 ISZERO PUSH2 0xA7C JUMPI PUSH1 0x0 DUP1 REVERT JUMPDEST POP PUSH2 0x43F PUSH2 0xA8B CALLDATASIZE PUSH1 0x4 PUSH2 0x3FEC JUMP JUMPDEST PUSH2 0x226F JUMP JUMPDEST CALLVALUE DUP1 ISZERO PUSH2 0xA9C JUMPI PUSH1 0x0 DUP1 REVERT JUMPDEST POP PUSH2 0x43F PUSH2 0xAAB CALLDATASIZE PUSH1 0x4 PUSH2 0x3C4D JUMP JUMPDEST PUSH2 0x2389 JUMP JUMPDEST CALLVALUE DUP1 ISZERO PUSH2 0xABC JUMPI PUSH1 0x0 DUP1 REVERT JUMPDEST POP PUSH1 0xB SLOAD PUSH2 0x472 SWAP1 PUSH2 0xFFFF DUP1 DUP3 AND SWAP2 PUSH3 0x10000 DUP2 DIV DUP3 AND SWAP2 PUSH5 0x100000000 SWAP1 SWAP2 DIV AND DUP4 JUMP JUMPDEST CALLVALUE DUP1 ISZERO PUSH2 0xAED JUMPI PUSH1 0x0 DUP1 REVERT JUMPDEST POP PUSH2 0x411 PUSH2 0xAFC CALLDATASIZE PUSH1 0x4 PUSH2 0x3D32 JUMP JUMPDEST PUSH1 0x1 PUSH1 0x1 PUSH1 0xA0 SHL SUB SWAP2 DUP3 AND PUSH1 0x0 SWAP1 DUP2 MSTORE PUSH1 0x3 PUSH1 0x20 SWAP1 DUP2 MSTORE PUSH1 0x40 DUP1 DUP4 KECCAK256 SWAP4 SWAP1 SWAP5 AND DUP3 MSTORE SWAP2 SWAP1 SWAP2 MSTORE KECCAK256 SLOAD SWAP1 JUMP JUMPDEST CALLVALUE DUP1 ISZERO PUSH2 0xB33 JUMPI PUSH1 0x0 DUP1 REVERT JUMPDEST POP PUSH2 0x43F PUSH2 0xB42 CALLDATASIZE PUSH1 0x4 PUSH2 0x3D15 JUMP JUMPDEST PUSH2 0x2430 JUMP JUMPDEST CALLVALUE DUP1 ISZERO PUSH2 0xB53 JUMPI PUSH1 0x0 DUP1 REVERT JUMPDEST POP PUSH2 0x43F PUSH2 0xB62 CALLDATASIZE PUSH1 0x4 PUSH2 0x3D15 JUMP JUMPDEST PUSH2 0x2831 JUMP JUMPDEST CALLVALUE DUP1 ISZERO PUSH2 0xB73 JUMPI PUSH1 0x0 DUP1 REVERT JUMPDEST POP PUSH2 0x43F PUSH2 0x28F1 JUMP JUMPDEST CALLVALUE DUP1 ISZERO PUSH2 0xB88 JUMPI PUSH1 0x0 DUP1 REVERT JUMPDEST POP PUSH2 0x43F PUSH2 0xB97 CALLDATASIZE PUSH1 0x4 PUSH2 0x401F JUMP JUMPDEST PUSH2 0x29CD JUMP JUMPDEST CALLVALUE DUP1 ISZERO PUSH2 0xBA8 JUMPI PUSH1 0x0 DUP1 REVERT JUMPDEST POP PUSH1 0x10 SLOAD PUSH2 0x510 SWAP1 PUSH2 0x100 SWAP1 DIV PUSH1 0xFF AND DUP2 JUMP JUMPDEST CALLVALUE DUP1 ISZERO PUSH2 0xBC7 JUMPI PUSH1 0x0 DUP1 REVERT JUMPDEST POP PUSH2 0x43F PUSH2 0xBD6 CALLDATASIZE PUSH1 0x4 PUSH2 0x3FB5 JUMP JUMPDEST PUSH2 0x2C8F JUMP JUMPDEST PUSH1 0x17 SLOAD PUSH1 0x1 PUSH1 0x1 PUSH1 0xA0 SHL SUB AND CALLER EQ PUSH2 0xC28 JUMPI PUSH1 0x40 MLOAD PUSH3 0x461BCD PUSH1 0xE5 SHL DUP2 MSTORE PUSH1 0x20 PUSH1 0x4 DUP3 ADD MSTORE PUSH1 0x11 PUSH1 0x24 DUP3 ADD MSTORE PUSH1 0x0 DUP1 MLOAD PUSH1 0x20 PUSH2 0x4329 DUP4 CODECOPY DUP2 MLOAD SWAP2 MSTORE PUSH1 0x44 DUP3 ADD MSTORE PUSH1 0x64 ADD JUMPDEST PUSH1 0x40 MLOAD DUP1 SWAP2 SUB SWAP1 REVERT JUMPDEST PUSH1 0x15 SLOAD PUSH1 0x40 MLOAD PUSH4 0xEFBDBABD PUSH1 0xE0 SHL DUP2 MSTORE DUP4 ISZERO ISZERO PUSH1 0x4 DUP3 ADD MSTORE DUP3 ISZERO ISZERO PUSH1 0x24 DUP3 ADD MSTORE PUSH3 0x10000 SWAP1 SWAP2 DIV PUSH1 0x1 PUSH1 0x1 PUSH1 0xA0 SHL SUB AND SWAP1 PUSH4 0xEFBDBABD SWAP1 PUSH1 0x44 ADD JUMPDEST PUSH1 0x0 PUSH1 0x40 MLOAD DUP1 DUP4 SUB DUP2 PUSH1 0x0 DUP8 DUP1 EXTCODESIZE ISZERO DUP1 ISZERO PUSH2 0xC7D JUMPI PUSH1 0x0 DUP1 REVERT JUMPDEST POP GAS CALL ISZERO DUP1 ISZERO PUSH2 0xC91 JUMPI RETURNDATASIZE PUSH1 0x0 DUP1 RETURNDATACOPY RETURNDATASIZE PUSH1 0x0 REVERT JUMPDEST POP POP POP POP POP POP JUMP JUMPDEST PUSH1 0x0 PUSH2 0xCA6 CALLER DUP5 DUP5 PUSH2 0x2D02 JUMP JUMPDEST POP PUSH1 0x1 JUMPDEST SWAP3 SWAP2 POP POP JUMP JUMPDEST PUSH1 0x0 PUSH2 0xCBE PUSH1 0x12 PUSH1 0xA PUSH2 0x414B JUMP JUMPDEST PUSH1 0xF SLOAD PUSH2 0xCCB SWAP2 SWAP1 PUSH2 0x415A JUMP JUMPDEST SWAP1 POP SWAP1 JUMP JUMPDEST PUSH1 0x17 SLOAD PUSH1 0x1 PUSH1 0x1 PUSH1 0xA0 SHL SUB AND CALLER EQ PUSH2 0xD18 JUMPI PUSH1 0x40 MLOAD PUSH3 0x461BCD PUSH1 0xE5 SHL DUP2 MSTORE PUSH1 0x20 PUSH1 0x4 DUP3 ADD MSTORE PUSH1 0x11 PUSH1 0x24 DUP3 ADD MSTORE PUSH1 0x0 DUP1 MLOAD PUSH1 0x20 PUSH2 0x4329 DUP4 CODECOPY DUP2 MLOAD SWAP2 MSTORE PUSH1 0x44 DUP3 ADD MSTORE PUSH1 0x64 ADD PUSH2 0xC1F JUMP JUMPDEST PUSH1 0x9 SLOAD PUSH1 0xFF AND PUSH2 0xD27 JUMPI PUSH1 0x0 DUP1 REVERT JUMPDEST PUSH1 0x1 PUSH1 0x1 PUSH1 0xA0 SHL SUB DUP3 AND ADDRESS EQ DUP1 ISZERO SWAP1 PUSH2 0xD49 JUMPI POP PUSH1 0x1 PUSH1 0x1 PUSH1 0xA0 SHL SUB DUP2 AND ADDRESS EQ ISZERO JUMPDEST DUP1 ISZERO PUSH2 0xD63 JUMPI POP PUSH1 0xD SLOAD PUSH1 0x1 PUSH1 0x1 PUSH1 0xA0 SHL SUB DUP4 DUP2 AND SWAP2 AND EQ ISZERO JUMPDEST DUP1 ISZERO PUSH2 0xD7D JUMPI POP PUSH1 0xD SLOAD PUSH1 0x1 PUSH1 0x1 PUSH1 0xA0 SHL SUB DUP3 DUP2 AND SWAP2 AND EQ ISZERO JUMPDEST PUSH2 0xDB7 JUMPI PUSH1 0x40 MLOAD PUSH3 0x461BCD PUSH1 0xE5 SHL DUP2 MSTORE PUSH1 0x20 PUSH1 0x4 DUP3 ADD MSTORE PUSH1 0xB PUSH1 0x24 DUP3 ADD MSTORE PUSH11 0x253AB9BA103237B713BA17 PUSH1 0xA9 SHL PUSH1 0x44 DUP3 ADD MSTORE PUSH1 0x64 ADD PUSH2 0xC1F JUMP JUMPDEST DUP1 PUSH1 0x1 PUSH1 0x1 PUSH1 0xA0 SHL SUB AND DUP3 PUSH1 0x1 PUSH1 0x1 PUSH1 0xA0 SHL SUB AND SUB PUSH2 0xE19 JUMPI PUSH1 0x1 PUSH1 0x1 PUSH1 0xA0 SHL SUB DUP2 AND PUSH1 0x0 SWAP1 DUP2 MSTORE PUSH1 0x4 PUSH1 0x20 SWAP1 DUP2 MSTORE PUSH1 0x40 DUP1 DUP4 KECCAK256 DUP1 SLOAD PUSH1 0x1 PUSH1 0xFF NOT SWAP2 DUP3 AND DUP2 OR SWAP1 SWAP3 SSTORE PUSH1 0x8 SWAP1 SWAP4 MSTORE SWAP3 KECCAK256 DUP1 SLOAD SWAP1 SWAP2 AND DUP3 OR SWAP1 SSTORE PUSH2 0xE15 SWAP1 DUP3 SWAP1 PUSH2 0x18D0 JUMP JUMPDEST POP POP JUMP JUMPDEST PUSH1 0x1 PUSH1 0x1 PUSH1 0xA0 SHL SUB DUP3 DUP2 AND PUSH1 0x0 DUP2 DUP2 MSTORE PUSH1 0x4 PUSH1 0x20 SWAP1 DUP2 MSTORE PUSH1 0x40 DUP1 DUP4 KECCAK256 DUP1 SLOAD PUSH1 0x1 PUSH1 0xFF NOT SWAP2 DUP3 AND DUP2 OR SWAP1 SWAP3 SSTORE SWAP6 DUP8 AND DUP1 DUP6 MSTORE DUP3 DUP6 KECCAK256 DUP1 SLOAD DUP9 AND DUP4 OR SWAP1 SSTORE SWAP5 DUP5 MSTORE PUSH1 0x8 SWAP1 SWAP3 MSTORE DUP1 DUP4 KECCAK256 DUP1 SLOAD DUP7 AND DUP4 OR SWAP1 SSTORE SWAP3 DUP3 MSTORE SWAP2 SWAP1 KECCAK256 DUP1 SLOAD SWAP1 SWAP3 AND DUP2 OR SWAP1 SWAP2 SSTORE PUSH2 0xE83 SWAP1 DUP4 SWAP1 PUSH2 0x18D0 JUMP JUMPDEST PUSH2 0xE15 DUP2 PUSH1 0x1 PUSH2 0x18D0 JUMP JUMPDEST PUSH1 0x0 PUSH2 0xE9C PUSH1 0x12 PUSH1 0xA PUSH2 0x414B JUMP JUMPDEST PUSH2 0xCCB SWAP1 PUSH4 0x3B9ACA00 PUSH2 0x417C JUMP JUMPDEST PUSH1 0x1 PUSH1 0x1 PUSH1 0xA0 SHL SUB DUP4 AND PUSH1 0x0 SWAP1 DUP2 MSTORE PUSH1 0x3 PUSH1 0x20 SWAP1 DUP2 MSTORE PUSH1 0x40 DUP1 DUP4 KECCAK256 CALLER DUP5 MSTORE SWAP1 SWAP2 MSTORE DUP2 KECCAK256 SLOAD PUSH1 0x0 NOT EQ PUSH2 0xF0F JUMPI PUSH1 0x1 PUSH1 0x1 PUSH1 0xA0 SHL SUB DUP5 AND PUSH1 0x0 SWAP1 DUP2 MSTORE PUSH1 0x3 PUSH1 0x20 SWAP1 DUP2 MSTORE PUSH1 0x40 DUP1 DUP4 KECCAK256 CALLER DUP5 MSTORE SWAP1 SWAP2 MSTORE DUP2 KECCAK256 DUP1 SLOAD DUP5 SWAP3 SWAP1 PUSH2 0xF09 SWAP1 DUP5 SWAP1 PUSH2 0x4193 JUMP JUMPDEST SWAP1 SWAP2 SSTORE POP POP JUMPDEST PUSH2 0xF1A DUP5 DUP5 DUP5 PUSH2 0x2DFB JUMP JUMPDEST SWAP5 SWAP4 POP POP POP POP JUMP JUMPDEST PUSH1 0x17 SLOAD PUSH1 0x1 PUSH1 0x1 PUSH1 0xA0 SHL SUB AND CALLER EQ PUSH2 0xF6A JUMPI PUSH1 0x40 MLOAD PUSH3 0x461BCD PUSH1 0xE5 SHL DUP2 MSTORE PUSH1 0x20 PUSH1 0x4 DUP3 ADD MSTORE PUSH1 0x11 PUSH1 0x24 DUP3 ADD MSTORE PUSH1 0x0 DUP1 MLOAD PUSH1 0x20 PUSH2 0x4329 DUP4 CODECOPY DUP2 MLOAD SWAP2 MSTORE PUSH1 0x44 DUP3 ADD MSTORE PUSH1 0x64 ADD PUSH2 0xC1F JUMP JUMPDEST PUSH1 0x64 PUSH2 0xF78 PUSH1 0x12 PUSH1 0xA PUSH2 0x414B JUMP JUMPDEST PUSH2 0xF86 SWAP1 PUSH4 0x3B9ACA00 PUSH2 0x417C JUMP JUMPDEST PUSH2 0xF90 SWAP2 SWAP1 PUSH2 0x415A JUMP JUMPDEST DUP2 DUP4 PUSH2 0xF9E PUSH1 0x12 PUSH1 0xA PUSH2 0x414B JUMP JUMPDEST PUSH2 0xFAC SWAP1 PUSH4 0x3B9ACA00 PUSH2 0x417C JUMP JUMPDEST PUSH2 0xFB6 SWAP2 SWAP1 PUSH2 0x417C JUMP JUMPDEST PUSH2 0xFC0 SWAP2 SWAP1 PUSH2 0x415A JUMP JUMPDEST LT ISZERO PUSH2 0x1034 JUMPI PUSH1 0x40 MLOAD PUSH3 0x461BCD PUSH1 0xE5 SHL DUP2 MSTORE PUSH1 0x20 PUSH1 0x4 DUP3 ADD MSTORE PUSH1 0x30 PUSH1 0x24 DUP3 ADD MSTORE PUSH32 0x4D61782057616C6C657420616D74206D7573742062652061626F766520312520 PUSH1 0x44 DUP3 ADD MSTORE PUSH32 0x6F6620746F74616C20737570706C792E00000000000000000000000000000000 PUSH1 0x64 DUP3 ADD MSTORE PUSH1 0x84 ADD PUSH2 0xC1F JUMP JUMPDEST DUP1 DUP3 PUSH2 0x1042 PUSH1 0x12 PUSH1 0xA PUSH2 0x414B JUMP JUMPDEST PUSH2 0x1050 SWAP1 PUSH4 0x3B9ACA00 PUSH2 0x417C JUMP JUMPDEST PUSH2 0x105A SWAP2 SWAP1 PUSH2 0x417C JUMP JUMPDEST PUSH2 0x1064 SWAP2 SWAP1 PUSH2 0x415A JUMP JUMPDEST PUSH1 0xF SSTORE POP POP JUMP JUMPDEST PUSH1 0x17 SLOAD PUSH1 0x1 PUSH1 0x1 PUSH1 0xA0 SHL SUB AND CALLER EQ PUSH2 0x10B3 JUMPI PUSH1 0x40 MLOAD PUSH3 0x461BCD PUSH1 0xE5 SHL DUP2 MSTORE PUSH1 0x20 PUSH1 0x4 DUP3 ADD MSTORE PUSH1 0x11 PUSH1 0x24 DUP3 ADD MSTORE PUSH1 0x0 DUP1 MLOAD PUSH1 0x20 PUSH2 0x4329 DUP4 CODECOPY DUP2 MLOAD SWAP2 MSTORE PUSH1 0x44 DUP3 ADD MSTORE PUSH1 0x64 ADD PUSH2 0xC1F JUMP JUMPDEST DUP1 MLOAD DUP3 MLOAD EQ PUSH2 0x1104 JUMPI PUSH1 0x40 MLOAD PUSH3 0x461BCD PUSH1 0xE5 SHL DUP2 MSTORE PUSH1 0x20 PUSH1 0x4 DUP3 ADD MSTORE PUSH1 0x15 PUSH1 0x24 DUP3 ADD MSTORE PUSH32 0x4C656E6774687320646F206E6F74206D617463682E0000000000000000000000 PUSH1 0x44 DUP3 ADD MSTORE PUSH1 0x64 ADD PUSH2 0xC1F JUMP JUMPDEST PUSH1 0x0 JUMPDEST DUP3 MLOAD DUP2 PUSH2 0xFFFF AND LT ISZERO PUSH2 0x121B JUMPI PUSH2 0x1120 PUSH1 0x12 PUSH1 0xA PUSH2 0x414B JUMP JUMPDEST DUP3 DUP3 PUSH2 0xFFFF AND DUP2 MLOAD DUP2 LT PUSH2 0x1136 JUMPI PUSH2 0x1136 PUSH2 0x41A6 JUMP JUMPDEST PUSH1 0x20 MUL PUSH1 0x20 ADD ADD MLOAD PUSH2 0x1148 SWAP2 SWAP1 PUSH2 0x417C JUMP JUMPDEST CALLER PUSH1 0x0 SWAP1 DUP2 MSTORE PUSH1 0x20 DUP2 SWAP1 MSTORE PUSH1 0x40 SWAP1 KECCAK256 SLOAD LT ISZERO PUSH2 0x11A6 JUMPI PUSH1 0x40 MLOAD PUSH3 0x461BCD PUSH1 0xE5 SHL DUP2 MSTORE PUSH1 0x20 PUSH1 0x4 DUP3 ADD MSTORE PUSH1 0x12 PUSH1 0x24 DUP3 ADD MSTORE PUSH32 0x4E6F7420656E6F75676820746F6B656E732E0000000000000000000000000000 PUSH1 0x44 DUP3 ADD MSTORE PUSH1 0x64 ADD PUSH2 0xC1F JUMP JUMPDEST PUSH2 0x1208 CALLER DUP5 DUP4 PUSH2 0xFFFF AND DUP2 MLOAD DUP2 LT PUSH2 0x11C0 JUMPI PUSH2 0x11C0 PUSH2 0x41A6 JUMP JUMPDEST PUSH1 0x20 MUL PUSH1 0x20 ADD ADD MLOAD PUSH1 0x12 PUSH1 0xA PUSH2 0x11D6 SWAP2 SWAP1 PUSH2 0x414B JUMP JUMPDEST DUP6 DUP6 PUSH2 0xFFFF AND DUP2 MLOAD DUP2 LT PUSH2 0x11EC JUMPI PUSH2 0x11EC PUSH2 0x41A6 JUMP JUMPDEST PUSH1 0x20 MUL PUSH1 0x20 ADD ADD MLOAD PUSH2 0x11FE SWAP2 SWAP1 PUSH2 0x417C JUMP JUMPDEST PUSH1 0x0 DUP1 PUSH1 0x1 PUSH2 0x325A JUMP JUMPDEST POP DUP1 PUSH2 0x1213 DUP2 PUSH2 0x41BC JUMP JUMPDEST SWAP2 POP POP PUSH2 0x1107 JUMP JUMPDEST POP POP POP JUMP JUMPDEST PUSH1 0x0 PUSH1 0x20 DUP2 SWAP1 MSTORE PUSH32 0xAD3228B676F7D3CD4284A5443F17F1962B36E491B30A40B2405849E597BA5FB5 SLOAD PUSH2 0xDEAD DUP3 MSTORE PUSH32 0x44AD89BA62B98FF34F51403AC22759B55759460C0BB5521EB4B6EE3CFF49CF83 SLOAD PUSH2 0x127A SWAP2 SWAP1 PUSH2 0x41DD JUMP JUMPDEST PUSH2 0x1286 PUSH1 0x12 PUSH1 0xA PUSH2 0x414B JUMP JUMPDEST PUSH2 0x1294 SWAP1 PUSH4 0x3B9ACA00 PUSH2 0x417C JUMP JUMPDEST PUSH2 0xCCB SWAP2 SWAP1 PUSH2 0x4193 JUMP JUMPDEST PUSH1 0x17 SLOAD PUSH1 0x1 PUSH1 0x1 PUSH1 0xA0 SHL SUB AND CALLER EQ PUSH2 0x12E6 JUMPI PUSH1 0x40 MLOAD PUSH3 0x461BCD PUSH1 0xE5 SHL DUP2 MSTORE PUSH1 0x20 PUSH1 0x4 DUP3 ADD MSTORE PUSH1 0x11 PUSH1 0x24 DUP3 ADD MSTORE PUSH1 0x0 DUP1 MLOAD PUSH1 0x20 PUSH2 0x4329 DUP4 CODECOPY DUP2 MLOAD SWAP2 MSTORE PUSH1 0x44 DUP3 ADD MSTORE PUSH1 0x64 ADD PUSH2 0xC1F JUMP JUMPDEST PUSH1 0xC SLOAD PUSH1 0xFF AND ISZERO PUSH2 0x1339 JUMPI PUSH1 0x40 MLOAD PUSH3 0x461BCD PUSH1 0xE5 SHL DUP2 MSTORE PUSH1 0x20 PUSH1 0x4 DUP3 ADD MSTORE PUSH1 0x11 PUSH1 0x24 DUP3 ADD MSTORE PUSH32 0x546178657320617265206C6F636B65642E000000000000000000000000000000 PUSH1 0x44 DUP3 ADD MSTORE PUSH1 0x64 ADD PUSH2 0xC1F JUMP JUMPDEST PUSH2 0x7D0 DUP4 PUSH2 0xFFFF AND GT ISZERO DUP1 ISZERO PUSH2 0x1355 JUMPI POP PUSH2 0x7D0 DUP3 PUSH2 0xFFFF AND GT ISZERO JUMPDEST DUP1 ISZERO PUSH2 0x1367 JUMPI POP PUSH2 0x7D0 DUP2 PUSH2 0xFFFF AND GT ISZERO JUMPDEST PUSH2 0x13B3 JUMPI PUSH1 0x40 MLOAD PUSH3 0x461BCD PUSH1 0xE5 SHL DUP2 MSTORE PUSH1 0x20 PUSH1 0x4 DUP3 ADD MSTORE PUSH1 0x17 PUSH1 0x24 DUP3 ADD MSTORE PUSH32 0x43616E6E6F7420657863656564206D6178696D756D732E000000000000000000 PUSH1 0x44 DUP3 ADD MSTORE PUSH1 0x64 ADD PUSH2 0xC1F JUMP JUMPDEST PUSH2 0x9C4 PUSH2 0x13C0 DUP4 DUP6 PUSH2 0x41F0 JUMP JUMPDEST PUSH2 0xFFFF AND GT ISZERO PUSH2 0x1412 JUMPI PUSH1 0x40 MLOAD PUSH3 0x461BCD PUSH1 0xE5 SHL DUP2 MSTORE PUSH1 0x20 PUSH1 0x4 DUP3 ADD DUP2 SWAP1 MSTORE PUSH1 0x24 DUP3 ADD MSTORE PUSH32 0x43616E6E6F742065786365656420726F756E6474726970206D6178696D756D2E PUSH1 0x44 DUP3 ADD MSTORE PUSH1 0x64 ADD PUSH2 0xC1F JUMP JUMPDEST PUSH1 0xA DUP1 SLOAD PUSH2 0xFFFF SWAP5 DUP6 AND PUSH4 0xFFFFFFFF NOT SWAP1 SWAP2 AND OR PUSH3 0x10000 SWAP4 DUP6 AND SWAP4 SWAP1 SWAP4 MUL SWAP3 SWAP1 SWAP3 OR PUSH6 0xFFFF00000000 NOT AND PUSH5 0x100000000 SWAP2 SWAP1 SWAP4 AND MUL SWAP2 SWAP1 SWAP2 OR SWAP1 SSTORE JUMP JUMPDEST PUSH1 0x17 SLOAD PUSH1 0x1 PUSH1 0x1 PUSH1 0xA0 SHL SUB AND CALLER EQ PUSH2 0x1499 JUMPI PUSH1 0x40 MLOAD PUSH3 0x461BCD PUSH1 0xE5 SHL DUP2 MSTORE PUSH1 0x20 PUSH1 0x4 DUP3 ADD MSTORE PUSH1 0x11 PUSH1 0x24 DUP3 ADD MSTORE PUSH1 0x0 DUP1 MLOAD PUSH1 0x20 PUSH2 0x4329 DUP4 CODECOPY DUP2 MLOAD SWAP2 MSTORE PUSH1 0x44 DUP3 ADD MSTORE PUSH1 0x64 ADD PUSH2 0xC1F JUMP JUMPDEST PUSH1 0x15 SLOAD PUSH1 0x40 MLOAD PUSH4 0x33251A0B PUSH1 0xE0 SHL DUP2 MSTORE PUSH1 0x1 PUSH1 0x1 PUSH1 0xA0 SHL SUB DUP4 DUP2 AND PUSH1 0x4 DUP4 ADD MSTORE PUSH3 0x10000 SWAP1 SWAP3 DIV SWAP1 SWAP2 AND SWAP1 PUSH4 0x33251A0B SWAP1 PUSH1 0x24 ADD PUSH1 0x0 PUSH1 0x40 MLOAD DUP1 DUP4 SUB DUP2 PUSH1 0x0 DUP8 DUP1 EXTCODESIZE ISZERO DUP1 ISZERO PUSH2 0x14E7 JUMPI PUSH1 0x0 DUP1 REVERT JUMPDEST POP GAS CALL ISZERO DUP1 ISZERO PUSH2 0x14FB JUMPI RETURNDATASIZE PUSH1 0x0 DUP1 RETURNDATACOPY RETURNDATASIZE PUSH1 0x0 REVERT JUMPDEST POP POP POP POP POP JUMP JUMPDEST PUSH1 0x17 SLOAD PUSH1 0x1 PUSH1 0x1 PUSH1 0xA0 SHL SUB AND CALLER EQ PUSH2 0x154A JUMPI PUSH1 0x40 MLOAD PUSH3 0x461BCD PUSH1 0xE5 SHL DUP2 MSTORE PUSH1 0x20 PUSH1 0x4 DUP3 ADD MSTORE PUSH1 0x11 PUSH1 0x24 DUP3 ADD MSTORE PUSH1 0x0 DUP1 MLOAD PUSH1 0x20 PUSH2 0x4329 DUP4 CODECOPY DUP2 MLOAD SWAP2 MSTORE PUSH1 0x44 DUP3 ADD MSTORE PUSH1 0x64 ADD PUSH2 0xC1F JUMP JUMPDEST PUSH1 0x1 PUSH1 0x1 PUSH1 0xA0 SHL SUB SWAP2 SWAP1 SWAP2 AND PUSH1 0x0 SWAP1 DUP2 MSTORE PUSH1 0x7 PUSH1 0x20 MSTORE PUSH1 0x40 SWAP1 KECCAK256 DUP1 SLOAD PUSH1 0xFF NOT AND SWAP2 ISZERO ISZERO SWAP2 SWAP1 SWAP2 OR SWAP1 SSTORE JUMP JUMPDEST PUSH1 0x18 SLOAD PUSH1 0x1 PUSH1 0x1 PUSH1 0xA0 SHL SUB AND CALLER EQ PUSH2 0x15E0 JUMPI PUSH1 0x40 MLOAD PUSH3 0x461BCD PUSH1 0xE5 SHL DUP2 MSTORE PUSH1 0x20 PUSH1 0x4 DUP3 ADD MSTORE PUSH1 0x28 PUSH1 0x24 DUP3 ADD MSTORE PUSH32 0x43616E206F6E6C792062652063616C6C6564206279206F726967696E616C2064 PUSH1 0x44 DUP3 ADD MSTORE PUSH8 0x32B83637BCB2B917 PUSH1 0xC1 SHL PUSH1 0x64 DUP3 ADD MSTORE PUSH1 0x84 ADD PUSH2 0xC1F JUMP JUMPDEST PUSH2 0x15EA PUSH1 0x0 PUSH2 0x2182 JUMP JUMPDEST PUSH1 0x18 DUP1 SLOAD PUSH1 0x1 PUSH1 0x1 PUSH1 0xA0 SHL SUB NOT AND SWAP1 SSTORE JUMP JUMPDEST PUSH1 0xD SLOAD PUSH1 0x1 PUSH1 0x1 PUSH1 0xA0 SHL SUB AND PUSH1 0x0 SWAP1 DUP2 MSTORE PUSH1 0x20 DUP2 SWAP1 MSTORE PUSH1 0x40 DUP2 KECCAK256 SLOAD PUSH2 0x2710 SWAP1 PUSH2 0x1626 SWAP1 DUP5 SWAP1 PUSH2 0x417C JUMP JUMPDEST PUSH2 0xCAA SWAP2 SWAP1 PUSH2 0x415A JUMP JUMPDEST PUSH1 0x17 SLOAD PUSH1 0x1 PUSH1 0x1 PUSH1 0xA0 SHL SUB AND CALLER EQ PUSH2 0x1678 JUMPI PUSH1 0x40 MLOAD PUSH3 0x461BCD PUSH1 0xE5 SHL DUP2 MSTORE PUSH1 0x20 PUSH1 0x4 DUP3 ADD MSTORE PUSH1 0x11 PUSH1 0x24 DUP3 ADD MSTORE PUSH1 0x0 DUP1 MLOAD PUSH1 0x20 PUSH2 0x4329 DUP4 CODECOPY DUP2 MLOAD SWAP2 MSTORE PUSH1 0x44 DUP3 ADD MSTORE PUSH1 0x64 ADD PUSH2 0xC1F JUMP JUMPDEST PUSH1 0x96 DUP2 GT ISZERO PUSH2 0x16C9 JUMPI PUSH1 0x40 MLOAD PUSH3 0x461BCD PUSH1 0xE5 SHL DUP2 MSTORE PUSH1 0x20 PUSH1 0x4 DUP3 ADD MSTORE PUSH1 0x16 PUSH1 0x24 DUP3 ADD MSTORE PUSH32 0x43616E6E6F74207365742061626F766520312E35252E00000000000000000000 PUSH1 0x44 DUP3 ADD MSTORE PUSH1 0x64 ADD PUSH2 0xC1F JUMP JUMPDEST PUSH1 0x14 SSTORE JUMP JUMPDEST PUSH1 0x17 SLOAD PUSH1 0x1 PUSH1 0x1 PUSH1 0xA0 SHL SUB AND CALLER EQ PUSH2 0x1716 JUMPI PUSH1 0x40 MLOAD PUSH3 0x461BCD PUSH1 0xE5 SHL DUP2 MSTORE PUSH1 0x20 PUSH1 0x4 DUP3 ADD MSTORE PUSH1 0x11 PUSH1 0x24 DUP3 ADD MSTORE PUSH1 0x0 DUP1 MLOAD PUSH1 0x20 PUSH2 0x4329 DUP4 CODECOPY DUP2 MLOAD SWAP2 MSTORE PUSH1 0x44 DUP3 ADD MSTORE PUSH1 0x64 ADD PUSH2 0xC1F JUMP JUMPDEST PUSH1 0x1 PUSH1 0x1 PUSH1 0xA0 SHL SUB DUP2 AND PUSH2 0x1792 JUMPI PUSH1 0x40 MLOAD PUSH3 0x461BCD PUSH1 0xE5 SHL DUP2 MSTORE PUSH1 0x20 PUSH1 0x4 DUP3 ADD MSTORE PUSH1 0x3D PUSH1 0x24 DUP3 ADD MSTORE PUSH32 0x43616C6C2072656E6F756E63654F776E65727368697020746F207472616E7366 PUSH1 0x44 DUP3 ADD MSTORE PUSH32 0x6572206F776E657220746F20746865207A65726F20616464726573732E000000 PUSH1 0x64 DUP3 ADD MSTORE PUSH1 0x84 ADD PUSH2 0xC1F JUMP JUMPDEST PUSH2 0xDEAC NOT PUSH1 0x1 PUSH1 0x1 PUSH1 0xA0 SHL SUB DUP3 AND ADD PUSH2 0x1813 JUMPI PUSH1 0x40 MLOAD PUSH3 0x461BCD PUSH1 0xE5 SHL DUP2 MSTORE PUSH1 0x20 PUSH1 0x4 DUP3 ADD MSTORE PUSH1 0x3D PUSH1 0x24 DUP3 ADD MSTORE PUSH32 0x43616C6C2072656E6F756E63654F776E65727368697020746F207472616E7366 PUSH1 0x44 DUP3 ADD MSTORE PUSH32 0x6572206F776E657220746F20746865207A65726F20616464726573732E000000 PUSH1 0x64 DUP3 ADD MSTORE PUSH1 0x84 ADD PUSH2 0xC1F JUMP JUMPDEST PUSH1 0x17 SLOAD PUSH2 0x182A SWAP1 PUSH1 0x1 PUSH1 0x1 PUSH1 0xA0 SHL SUB AND PUSH1 0x0 PUSH2 0x18D0 JUMP JUMPDEST PUSH2 0x1835 DUP2 PUSH1 0x1 PUSH2 0x18D0 JUMP JUMPDEST PUSH1 0x17 SLOAD PUSH1 0x1 PUSH1 0x1 PUSH1 0xA0 SHL SUB AND PUSH1 0x0 SWAP1 DUP2 MSTORE PUSH1 0x20 DUP2 SWAP1 MSTORE PUSH1 0x40 SWAP1 KECCAK256 SLOAD ISZERO PUSH2 0x187E JUMPI PUSH1 0x17 SLOAD PUSH1 0x1 PUSH1 0x1 PUSH1 0xA0 SHL SUB AND PUSH1 0x0 DUP2 DUP2 MSTORE PUSH1 0x20 DUP2 SWAP1 MSTORE PUSH1 0x40 SWAP1 KECCAK256 SLOAD PUSH2 0x187C SWAP2 SWAP1 DUP4 SWAP1 PUSH2 0x11FE JUMP JUMPDEST POP JUMPDEST PUSH1 0x17 DUP1 SLOAD PUSH1 0x1 PUSH1 0x1 PUSH1 0xA0 SHL SUB DUP4 DUP2 AND PUSH1 0x1 PUSH1 0x1 PUSH1 0xA0 SHL SUB NOT DUP4 AND DUP2 OR SWAP1 SWAP4 SSTORE PUSH1 0x40 MLOAD SWAP2 AND SWAP2 SWAP1 DUP3 SWAP1 PUSH32 0x8BE0079C531659141344CD1FD0A4F28419497F9722A3DAAFE3B4186F6B6457E0 SWAP1 PUSH1 0x0 SWAP1 LOG3 POP POP JUMP JUMPDEST PUSH1 0x17 SLOAD PUSH1 0x1 PUSH1 0x1 PUSH1 0xA0 SHL SUB AND CALLER EQ PUSH2 0x1918 JUMPI PUSH1 0x40 MLOAD PUSH3 0x461BCD PUSH1 0xE5 SHL DUP2 MSTORE PUSH1 0x20 PUSH1 0x4 DUP3 ADD MSTORE PUSH1 0x11 PUSH1 0x24 DUP3 ADD MSTORE PUSH1 0x0 DUP1 MLOAD PUSH1 0x20 PUSH2 0x4329 DUP4 CODECOPY DUP2 MLOAD SWAP2 MSTORE PUSH1 0x44 DUP3 ADD MSTORE PUSH1 0x64 ADD PUSH2 0xC1F JUMP JUMPDEST PUSH1 0x1 PUSH1 0x1 PUSH1 0xA0 SHL SUB SWAP2 SWAP1 SWAP2 AND PUSH1 0x0 SWAP1 DUP2 MSTORE PUSH1 0x6 PUSH1 0x20 MSTORE PUSH1 0x40 SWAP1 KECCAK256 DUP1 SLOAD PUSH1 0xFF NOT AND SWAP2 ISZERO ISZERO SWAP2 SWAP1 SWAP2 OR SWAP1 SSTORE JUMP JUMPDEST PUSH1 0x17 SLOAD PUSH1 0x1 PUSH1 0x1 PUSH1 0xA0 SHL SUB AND CALLER EQ PUSH2 0x198B JUMPI PUSH1 0x40 MLOAD PUSH3 0x461BCD PUSH1 0xE5 SHL DUP2 MSTORE PUSH1 0x20 PUSH1 0x4 DUP3 ADD MSTORE PUSH1 0x11 PUSH1 0x24 DUP3 ADD MSTORE PUSH1 0x0 DUP1 MLOAD PUSH1 0x20 PUSH2 0x4329 DUP4 CODECOPY DUP2 MLOAD SWAP2 MSTORE PUSH1 0x44 DUP3 ADD MSTORE PUSH1 0x64 ADD PUSH2 0xC1F JUMP JUMPDEST PUSH1 0x15 SLOAD PUSH1 0xFF AND ISZERO PUSH2 0x199B JUMPI PUSH1 0x0 DUP1 REVERT JUMPDEST ADDRESS PUSH1 0x1 PUSH1 0x1 PUSH1 0xA0 SHL SUB DUP3 AND SUB PUSH2 0x19F3 JUMPI PUSH1 0x40 MLOAD PUSH3 0x461BCD PUSH1 0xE5 SHL DUP2 MSTORE PUSH1 0x20 PUSH1 0x4 DUP3 ADD MSTORE PUSH1 0xE PUSH1 0x24 DUP3 ADD MSTORE PUSH32 0x43616E27742062652073656C662E000000000000000000000000000000000000 PUSH1 0x44 DUP3 ADD MSTORE PUSH1 0x64 ADD PUSH2 0xC1F JUMP JUMPDEST PUSH1 0x15 DUP1 SLOAD PUSH1 0x1 PUSH1 0x1 PUSH1 0xA0 SHL SUB SWAP1 SWAP3 AND PUSH3 0x10000 MUL PUSH3 0x10000 PUSH1 0x1 PUSH1 0xB0 SHL SUB NOT SWAP1 SWAP3 AND SWAP2 SWAP1 SWAP2 OR SWAP1 SSTORE JUMP JUMPDEST PUSH1 0x17 SLOAD PUSH1 0x1 PUSH1 0x1 PUSH1 0xA0 SHL SUB AND CALLER EQ PUSH2 0x1A65 JUMPI PUSH1 0x40 MLOAD PUSH3 0x461BCD PUSH1 0xE5 SHL DUP2 MSTORE PUSH1 0x20 PUSH1 0x4 DUP3 ADD MSTORE PUSH1 0x11 PUSH1 0x24 DUP3 ADD MSTORE PUSH1 0x0 DUP1 MLOAD PUSH1 0x20 PUSH2 0x4329 DUP4 CODECOPY DUP2 MLOAD SWAP2 MSTORE PUSH1 0x44 DUP3 ADD MSTORE PUSH1 0x64 ADD PUSH2 0xC1F JUMP JUMPDEST PUSH1 0x17 SLOAD PUSH2 0x1A7C SWAP1 PUSH1 0x1 PUSH1 0x1 PUSH1 0xA0 SHL SUB AND PUSH1 0x0 PUSH2 0x18D0 JUMP JUMPDEST PUSH1 0x17 DUP1 SLOAD PUSH1 0x1 PUSH1 0x1 PUSH1 0xA0 SHL SUB NOT DUP2 AND SWAP1 SWAP2 SSTORE PUSH1 0x40 MLOAD PUSH1 0x1 PUSH1 0x1 PUSH1 0xA0 SHL SUB SWAP1 SWAP2 AND SWAP1 PUSH1 0x0 SWAP1 DUP3 SWAP1 PUSH32 0x8BE0079C531659141344CD1FD0A4F28419497F9722A3DAAFE3B4186F6B6457E0 SWAP1 DUP4 SWAP1 LOG3 POP JUMP JUMPDEST PUSH1 0x17 SLOAD PUSH1 0x1 PUSH1 0x1 PUSH1 0xA0 SHL SUB AND CALLER EQ PUSH2 0x1B12 JUMPI PUSH1 0x40 MLOAD PUSH3 0x461BCD PUSH1 0xE5 SHL DUP2 MSTORE PUSH1 0x20 PUSH1 0x4 DUP3 ADD MSTORE PUSH1 0x11 PUSH1 0x24 DUP3 ADD MSTORE PUSH1 0x0 DUP1 MLOAD PUSH1 0x20 PUSH2 0x4329 DUP4 CODECOPY DUP2 MLOAD SWAP2 MSTORE PUSH1 0x44 DUP3 ADD MSTORE PUSH1 0x64 ADD PUSH2 0xC1F JUMP JUMPDEST PUSH1 0xC DUP1 SLOAD PUSH1 0xFF NOT AND PUSH1 0x1 OR SWAP1 SSTORE JUMP JUMPDEST PUSH1 0x17 SLOAD PUSH1 0x1 PUSH1 0x1 PUSH1 0xA0 SHL SUB AND CALLER EQ PUSH2 0x1B69 JUMPI PUSH1 0x40 MLOAD PUSH3 0x461BCD PUSH1 0xE5 SHL DUP2 MSTORE PUSH1 0x20 PUSH1 0x4 DUP3 ADD MSTORE PUSH1 0x11 PUSH1 0x24 DUP3 ADD MSTORE PUSH1 0x0 DUP1 MLOAD PUSH1 0x20 PUSH2 0x4329 DUP4 CODECOPY DUP2 MLOAD SWAP2 MSTORE PUSH1 0x44 DUP3 ADD MSTORE PUSH1 0x64 ADD PUSH2 0xC1F JUMP JUMPDEST DUP1 PUSH2 0x1BDC JUMPI PUSH1 0x1 PUSH1 0x1 PUSH1 0xA0 SHL SUB DUP3 DUP2 AND PUSH1 0x0 DUP2 DUP2 MSTORE PUSH1 0x1 PUSH1 0x20 MSTORE PUSH1 0x40 DUP1 DUP3 KECCAK256 DUP1 SLOAD PUSH1 0xFF NOT AND SWAP1 SSTORE PUSH1 0x15 SLOAD SWAP1 MLOAD PUSH4 0x80C581D1 PUSH1 0xE0 SHL DUP2 MSTORE PUSH1 0x4 DUP2 ADD SWAP4 SWAP1 SWAP4 MSTORE PUSH1 0x24 DUP4 ADD SWAP2 SWAP1 SWAP2 MSTORE PUSH3 0x10000 SWAP1 DIV SWAP1 SWAP2 AND SWAP1 PUSH4 0x80C581D1 SWAP1 PUSH1 0x44 ADD PUSH1 0x0 PUSH1 0x40 MLOAD DUP1 DUP4 SUB DUP2 PUSH1 0x0 DUP8 DUP1 EXTCODESIZE ISZERO DUP1 ISZERO PUSH2 0xC7D JUMPI PUSH1 0x0 DUP1 REVERT JUMPDEST PUSH1 0x2 SLOAD ISZERO PUSH2 0x1C43 JUMPI PUSH3 0x3F480 PUSH1 0x2 SLOAD TIMESTAMP PUSH2 0x1BF6 SWAP2 SWAP1 PUSH2 0x4193 JUMP JUMPDEST GT PUSH2 0x1C43 JUMPI PUSH1 0x40 MLOAD PUSH3 0x461BCD PUSH1 0xE5 SHL DUP2 MSTORE PUSH1 0x20 PUSH1 0x4 DUP3 ADD MSTORE PUSH1 0xF PUSH1 0x24 DUP3 ADD MSTORE PUSH32 0x332044617920636F6F6C646F776E2E0000000000000000000000000000000000 PUSH1 0x44 DUP3 ADD MSTORE PUSH1 0x64 ADD PUSH2 0xC1F JUMP JUMPDEST PUSH1 0x1 PUSH1 0x1 PUSH1 0xA0 SHL SUB DUP3 AND PUSH1 0x0 SWAP1 DUP2 MSTORE PUSH1 0x1 PUSH1 0x20 MSTORE PUSH1 0x40 SWAP1 KECCAK256 SLOAD PUSH1 0xFF AND ISZERO PUSH2 0x1CAC JUMPI PUSH1 0x40 MLOAD PUSH3 0x461BCD PUSH1 0xE5 SHL DUP2 MSTORE PUSH1 0x20 PUSH1 0x4 DUP3 ADD MSTORE PUSH1 0x1B PUSH1 0x24 DUP3 ADD MSTORE PUSH32 0x5061697220616C726561647920616464656420746F206C6973742E0000000000 PUSH1 0x44 DUP3 ADD MSTORE PUSH1 0x64 ADD PUSH2 0xC1F JUMP JUMPDEST PUSH1 0x1 PUSH1 0x1 PUSH1 0xA0 SHL SUB DUP3 DUP2 AND PUSH1 0x0 DUP2 DUP2 MSTORE PUSH1 0x1 PUSH1 0x20 DUP2 SWAP1 MSTORE PUSH1 0x40 SWAP2 DUP3 SWAP1 KECCAK256 DUP1 SLOAD PUSH1 0xFF NOT AND DUP3 OR SWAP1 SSTORE TIMESTAMP PUSH1 0x2 SSTORE PUSH1 0x15 SLOAD SWAP2 MLOAD PUSH4 0x80C581D1 PUSH1 0xE0 SHL DUP2 MSTORE PUSH1 0x4 DUP2 ADD SWAP4 SWAP1 SWAP4 MSTORE PUSH1 0x24 DUP4 ADD MSTORE PUSH3 0x10000 SWAP1 DIV SWAP1 SWAP2 AND SWAP1 PUSH4 0x80C581D1 SWAP1 PUSH1 0x44 ADD PUSH2 0xC63 JUMP JUMPDEST PUSH1 0x17 SLOAD PUSH1 0x0 SWAP1 PUSH1 0x1 PUSH1 0x1 PUSH1 0xA0 SHL SUB AND CALLER EQ PUSH2 0x1D56 JUMPI PUSH1 0x40 MLOAD PUSH3 0x461BCD PUSH1 0xE5 SHL DUP2 MSTORE PUSH1 0x20 PUSH1 0x4 DUP3 ADD MSTORE PUSH1 0x11 PUSH1 0x24 DUP3 ADD MSTORE PUSH1 0x0 DUP1 MLOAD PUSH1 0x20 PUSH2 0x4329 DUP4 CODECOPY DUP2 MLOAD SWAP2 MSTORE PUSH1 0x44 DUP3 ADD MSTORE PUSH1 0x64 ADD PUSH2 0xC1F JUMP JUMPDEST PUSH1 0xC SLOAD PUSH2 0x1D75 SWAP1 ADDRESS SWAP1 PUSH2 0x100 SWAP1 DIV PUSH1 0x1 PUSH1 0x1 PUSH1 0xA0 SHL SUB AND PUSH1 0x0 NOT PUSH2 0x2D02 JUMP JUMPDEST POP PUSH1 0x1 SWAP1 JUMP JUMPDEST PUSH1 0x17 SLOAD PUSH1 0x1 PUSH1 0x1 PUSH1 0xA0 SHL SUB AND CALLER EQ PUSH2 0x1DC3 JUMPI PUSH1 0x40 MLOAD PUSH3 0x461BCD PUSH1 0xE5 SHL DUP2 MSTORE PUSH1 0x20 PUSH1 0x4 DUP3 ADD MSTORE PUSH1 0x11 PUSH1 0x24 DUP3 ADD MSTORE PUSH1 0x0 DUP1 MLOAD PUSH1 0x20 PUSH2 0x4329 DUP4 CODECOPY DUP2 MLOAD SWAP2 MSTORE PUSH1 0x44 DUP3 ADD MSTORE PUSH1 0x64 ADD PUSH2 0xC1F JUMP JUMPDEST PUSH1 0x15 SLOAD PUSH1 0xFF AND ISZERO PUSH2 0x1E16 JUMPI PUSH1 0x40 MLOAD PUSH3 0x461BCD PUSH1 0xE5 SHL DUP2 MSTORE PUSH1 0x20 PUSH1 0x4 DUP3 ADD MSTORE PUSH1 0x18 PUSH1 0x24 DUP3 ADD MSTORE PUSH32 0x54726164696E6720616C726561647920656E61626C6564210000000000000000 PUSH1 0x44 DUP3 ADD MSTORE PUSH1 0x64 ADD PUSH2 0xC1F JUMP JUMPDEST PUSH1 0x15 SLOAD PUSH2 0x100 SWAP1 DIV PUSH1 0xFF AND PUSH2 0x1E6D JUMPI PUSH1 0x40 MLOAD PUSH3 0x461BCD PUSH1 0xE5 SHL DUP2 MSTORE PUSH1 0x20 PUSH1 0x4 DUP3 ADD MSTORE PUSH1 0x18 PUSH1 0x24 DUP3 ADD MSTORE PUSH32 0x4C6971756964697479206D7573742062652061646465642E0000000000000000 PUSH1 0x44 DUP3 ADD MSTORE PUSH1 0x64 ADD PUSH2 0xC1F JUMP JUMPDEST PUSH1 0x15 SLOAD PUSH3 0x10000 SWAP1 DIV PUSH1 0x1 PUSH1 0x1 PUSH1 0xA0 SHL SUB AND PUSH2 0x1E9D JUMPI PUSH1 0x15 DUP1 SLOAD PUSH3 0x10000 PUSH1 0x1 PUSH1 0xB0 SHL SUB NOT AND ADDRESS PUSH3 0x10000 MUL OR SWAP1 SSTORE JUMPDEST PUSH1 0x15 SLOAD PUSH1 0xD SLOAD PUSH1 0x40 MLOAD PUSH4 0x1B04570D PUSH1 0xE2 SHL DUP2 MSTORE PUSH1 0x1 PUSH1 0x1 PUSH1 0xA0 SHL SUB SWAP2 DUP3 AND PUSH1 0x4 DUP3 ADD MSTORE PUSH4 0xFFFFFFFF NUMBER AND PUSH1 0x24 DUP3 ADD MSTORE PUSH8 0xFFFFFFFFFFFFFFFF TIMESTAMP AND PUSH1 0x44 DUP3 ADD MSTORE PUSH1 0x12 PUSH1 0x64 DUP3 ADD MSTORE PUSH3 0x10000 SWAP1 SWAP3 DIV AND SWAP1 PUSH4 0x6C115C34 SWAP1 PUSH1 0x84 ADD PUSH1 0x0 PUSH1 0x40 MLOAD DUP1 DUP4 SUB DUP2 PUSH1 0x0 DUP8 DUP1 EXTCODESIZE ISZERO DUP1 ISZERO PUSH2 0x1F0F JUMPI PUSH1 0x0 DUP1 REVERT JUMPDEST POP GAS CALL SWAP3 POP POP POP DUP1 ISZERO PUSH2 0x1F20 JUMPI POP PUSH1 0x1 JUMPDEST POP PUSH1 0x15 SLOAD PUSH1 0xD SLOAD PUSH1 0x1 PUSH1 0x1 PUSH1 0xA0 SHL SUB SWAP1 DUP2 AND PUSH1 0x0 SWAP1 DUP2 MSTORE PUSH1 0x20 DUP2 SWAP1 MSTORE PUSH1 0x40 SWAP1 DUP2 SWAP1 KECCAK256 SLOAD SWAP1 MLOAD PUSH4 0x12D38E57 PUSH1 0xE1 SHL DUP2 MSTORE PUSH1 0x4 DUP2 ADD SWAP2 SWAP1 SWAP2 MSTORE PUSH3 0x10000 SWAP1 SWAP3 DIV AND SWAP1 PUSH4 0x25A71CAE SWAP1 PUSH1 0x24 ADD PUSH1 0x40 DUP1 MLOAD DUP1 DUP4 SUB DUP2 PUSH1 0x0 DUP8 GAS CALL SWAP3 POP POP POP DUP1 ISZERO PUSH2 0x1FA3 JUMPI POP PUSH1 0x40 DUP1 MLOAD PUSH1 0x1F RETURNDATASIZE SWAP1 DUP2 ADD PUSH1 0x1F NOT AND DUP3 ADD SWAP1 SWAP3 MSTORE PUSH2 0x1FA0 SWAP2 DUP2 ADD SWAP1 PUSH2 0x4212 JUMP JUMPDEST PUSH1 0x1 JUMPDEST ISZERO PUSH2 0x1FB2 JUMPI PUSH1 0x11 SWAP2 SWAP1 SWAP2 SSTORE PUSH1 0x12 SSTORE JUMPDEST PUSH1 0x15 DUP1 SLOAD PUSH1 0xFF NOT SWAP1 DUP2 AND PUSH1 0x1 OR SWAP1 SWAP2 SSTORE PUSH1 0x9 DUP1 SLOAD SWAP1 SWAP2 AND SWAP1 SSTORE TIMESTAMP PUSH1 0x16 SSTORE JUMP JUMPDEST PUSH1 0x0 PUSH2 0x1FDE CALLER DUP5 DUP5 PUSH2 0x2DFB JUMP JUMPDEST POP PUSH1 0x1 SWAP4 SWAP3 POP POP POP JUMP JUMPDEST PUSH1 0x17 SLOAD PUSH1 0x1 PUSH1 0x1 PUSH1 0xA0 SHL SUB AND CALLER EQ PUSH2 0x2030 JUMPI PUSH1 0x40 MLOAD PUSH3 0x461BCD PUSH1 0xE5 SHL DUP2 MSTORE PUSH1 0x20 PUSH1 0x4 DUP3 ADD MSTORE PUSH1 0x11 PUSH1 0x24 DUP3 ADD MSTORE PUSH1 0x0 DUP1 MLOAD PUSH1 0x20 PUSH2 0x4329 DUP4 CODECOPY DUP2 MLOAD SWAP2 MSTORE PUSH1 0x44 DUP3 ADD MSTORE PUSH1 0x64 ADD PUSH2 0xC1F JUMP JUMPDEST PUSH1 0x15 SLOAD PUSH2 0x100 SWAP1 DIV PUSH1 0xFF AND ISZERO PUSH2 0x2098 JUMPI ADDRESS PUSH1 0x1 PUSH1 0x1 PUSH1 0xA0 SHL SUB DUP3 AND SUB PUSH2 0x2098 JUMPI PUSH1 0x40 MLOAD PUSH3 0x461BCD PUSH1 0xE5 SHL DUP2 MSTORE PUSH1 0x20 PUSH1 0x4 DUP3 ADD MSTORE PUSH1 0x1B PUSH1 0x24 DUP3 ADD MSTORE PUSH32 0x43616E6E6F74207377656570206E617469766520746F6B656E732E0000000000 PUSH1 0x44 DUP3 ADD MSTORE PUSH1 0x64 ADD PUSH2 0xC1F JUMP JUMPDEST PUSH1 0x17 SLOAD PUSH1 0x40 MLOAD PUSH4 0x70A08231 PUSH1 0xE0 SHL DUP2 MSTORE ADDRESS PUSH1 0x4 DUP3 ADD MSTORE DUP3 SWAP2 PUSH1 0x1 PUSH1 0x1 PUSH1 0xA0 SHL SUB DUP1 DUP5 AND SWAP3 PUSH4 0xA9059CBB SWAP3 SWAP2 SWAP1 SWAP2 AND SWAP1 DUP4 SWAP1 PUSH4 0x70A08231 SWAP1 PUSH1 0x24 ADD PUSH1 0x20 PUSH1 0x40 MLOAD DUP1 DUP4 SUB DUP2 DUP7 GAS STATICCALL ISZERO DUP1 ISZERO PUSH2 0x20EF JUMPI RETURNDATASIZE PUSH1 0x0 DUP1 RETURNDATACOPY RETURNDATASIZE PUSH1 0x0 REVERT JUMPDEST POP POP POP POP PUSH1 0x40 MLOAD RETURNDATASIZE PUSH1 0x1F NOT PUSH1 0x1F DUP3 ADD AND DUP3 ADD DUP1 PUSH1 0x40 MSTORE POP DUP2 ADD SWAP1 PUSH2 0x2113 SWAP2 SWAP1 PUSH2 0x4236 JUMP JUMPDEST PUSH1 0x40 MLOAD PUSH1 0x1 PUSH1 0x1 PUSH1 0xE0 SHL SUB NOT PUSH1 0xE0 DUP6 SWAP1 SHL AND DUP2 MSTORE PUSH1 0x1 PUSH1 0x1 PUSH1 0xA0 SHL SUB SWAP1 SWAP3 AND PUSH1 0x4 DUP4 ADD MSTORE PUSH1 0x24 DUP3 ADD MSTORE PUSH1 0x44 ADD PUSH1 0x20 PUSH1 0x40 MLOAD DUP1 DUP4 SUB DUP2 PUSH1 0x0 DUP8 GAS CALL ISZERO DUP1 ISZERO PUSH2 0x215E JUMPI RETURNDATASIZE PUSH1 0x0 DUP1 RETURNDATACOPY RETURNDATASIZE PUSH1 0x0 REVERT JUMPDEST POP POP POP POP PUSH1 0x40 MLOAD RETURNDATASIZE PUSH1 0x1F NOT PUSH1 0x1F DUP3 ADD AND DUP3 ADD DUP1 PUSH1 0x40 MSTORE POP DUP2 ADD SWAP1 PUSH2 0x121B SWAP2 SWAP1 PUSH2 0x424F JUMP JUMPDEST PUSH1 0x18 SLOAD PUSH1 0x1 PUSH1 0x1 PUSH1 0xA0 SHL SUB AND CALLER EQ PUSH2 0x21ED JUMPI PUSH1 0x40 MLOAD PUSH3 0x461BCD PUSH1 0xE5 SHL DUP2 MSTORE PUSH1 0x20 PUSH1 0x4 DUP3 ADD MSTORE PUSH1 0x28 PUSH1 0x24 DUP3 ADD MSTORE PUSH32 0x43616E206F6E6C792062652063616C6C6564206279206F726967696E616C2064 PUSH1 0x44 DUP3 ADD MSTORE PUSH8 0x32B83637BCB2B917 PUSH1 0xC1 SHL PUSH1 0x64 DUP3 ADD MSTORE PUSH1 0x84 ADD PUSH2 0xC1F JUMP JUMPDEST PUSH1 0x19 SLOAD PUSH1 0x1 PUSH1 0x1 PUSH1 0xA0 SHL SUB AND DUP1 ISZERO PUSH2 0x222A JUMPI PUSH1 0x1 PUSH1 0x1 PUSH1 0xA0 SHL SUB DUP2 AND PUSH1 0x0 SWAP1 DUP2 MSTORE PUSH1 0x4 PUSH1 0x20 MSTORE PUSH1 0x40 DUP2 KECCAK256 DUP1 SLOAD PUSH1 0xFF NOT AND SWAP1 SSTORE PUSH2 0x222A SWAP1 DUP3 SWAP1 PUSH2 0x18D0 JUMP JUMPDEST PUSH1 0x19 DUP1 SLOAD PUSH1 0x1 PUSH1 0x1 PUSH1 0xA0 SHL SUB NOT AND PUSH1 0x1 PUSH1 0x1 PUSH1 0xA0 SHL SUB DUP5 AND SWAP1 DUP2 OR SWAP1 SWAP2 SSTORE PUSH1 0x0 SWAP1 DUP2 MSTORE PUSH1 0x4 PUSH1 0x20 MSTORE PUSH1 0x40 SWAP1 KECCAK256 DUP1 SLOAD PUSH1 0xFF NOT AND PUSH1 0x1 SWAP1 DUP2 OR SWAP1 SWAP2 SSTORE PUSH2 0xE15 SWAP1 DUP4 SWAP1 PUSH2 0x18D0 JUMP JUMPDEST PUSH1 0x17 SLOAD PUSH1 0x1 PUSH1 0x1 PUSH1 0xA0 SHL SUB AND CALLER EQ PUSH2 0x22B7 JUMPI PUSH1 0x40 MLOAD PUSH3 0x461BCD PUSH1 0xE5 SHL DUP2 MSTORE PUSH1 0x20 PUSH1 0x4 DUP3 ADD MSTORE PUSH1 0x11 PUSH1 0x24 DUP3 ADD MSTORE PUSH1 0x0 DUP1 MLOAD PUSH1 0x20 PUSH2 0x4329 DUP4 CODECOPY DUP2 MLOAD SWAP2 MSTORE PUSH1 0x44 DUP3 ADD MSTORE PUSH1 0x64 ADD PUSH2 0xC1F JUMP JUMPDEST PUSH1 0xB DUP1 SLOAD PUSH2 0xFFFF DUP4 DUP2 AND PUSH3 0x10000 MUL PUSH4 0xFFFFFFFF NOT SWAP1 SWAP3 AND SWAP1 DUP6 AND OR OR SWAP1 SSTORE PUSH2 0x22E0 DUP2 DUP4 PUSH2 0x41F0 JUMP JUMPDEST PUSH1 0xB DUP1 SLOAD PUSH6 0xFFFF00000000 NOT AND PUSH5 0x100000000 PUSH2 0xFFFF SWAP4 DUP5 AND MUL OR SWAP1 SSTORE PUSH1 0xA SLOAD PUSH1 0x0 SWAP2 PUSH2 0x2316 SWAP2 PUSH3 0x10000 DUP2 DIV DUP3 AND SWAP2 AND PUSH2 0x41F0 JUMP JUMPDEST PUSH1 0xB SLOAD PUSH2 0xFFFF SWAP2 DUP3 AND SWAP3 POP PUSH5 0x100000000 SWAP1 DIV AND DUP2 LT ISZERO PUSH2 0x121B JUMPI PUSH1 0x40 MLOAD PUSH3 0x461BCD PUSH1 0xE5 SHL DUP2 MSTORE PUSH1 0x20 PUSH1 0x4 DUP3 ADD MSTORE PUSH1 0x27 PUSH1 0x24 DUP3 ADD MSTORE PUSH32 0x43616E6E6F74206578636565642073756D206F662062757920616E642073656C PUSH1 0x44 DUP3 ADD MSTORE PUSH7 0x36103332B2B997 PUSH1 0xC9 SHL PUSH1 0x64 DUP3 ADD MSTORE PUSH1 0x84 ADD PUSH2 0xC1F JUMP JUMPDEST PUSH1 0x17 SLOAD PUSH1 0x1 PUSH1 0x1 PUSH1 0xA0 SHL SUB AND CALLER EQ PUSH2 0x23D1 JUMPI PUSH1 0x40 MLOAD PUSH3 0x461BCD PUSH1 0xE5 SHL DUP2 MSTORE PUSH1 0x20 PUSH1 0x4 DUP3 ADD MSTORE PUSH1 0x11 PUSH1 0x24 DUP3 ADD MSTORE PUSH1 0x0 DUP1 MLOAD PUSH1 0x20 PUSH2 0x4329 DUP4 CODECOPY DUP2 MLOAD SWAP2 MSTORE PUSH1 0x44 DUP3 ADD MSTORE PUSH1 0x64 ADD PUSH2 0xC1F JUMP JUMPDEST PUSH1 0x10 DUP1 SLOAD PUSH2 0xFF00 NOT AND PUSH2 0x100 DUP5 ISZERO ISZERO SWAP1 DUP2 MUL SWAP2 SWAP1 SWAP2 OR SWAP1 SWAP2 SSTORE PUSH1 0x13 DUP1 SLOAD PUSH1 0xFF NOT AND DUP4 ISZERO ISZERO OR SWAP1 SSTORE PUSH1 0x40 MLOAD SWAP1 DUP2 MSTORE PUSH32 0x7B0A47D3B0234280B6C9213C5BBFF44C8B6001BEA7770B3950280F9141053257 SWAP1 PUSH1 0x20 ADD JUMPDEST PUSH1 0x40 MLOAD DUP1 SWAP2 SUB SWAP1 LOG1 POP POP JUMP JUMPDEST PUSH1 0x17 SLOAD PUSH1 0x1 PUSH1 0x1 PUSH1 0xA0 SHL SUB AND CALLER EQ PUSH2 0x2478 JUMPI PUSH1 0x40 MLOAD PUSH3 0x461BCD PUSH1 0xE5 SHL DUP2 MSTORE PUSH1 0x20 PUSH1 0x4 DUP3 ADD MSTORE PUSH1 0x11 PUSH1 0x24 DUP3 ADD MSTORE PUSH1 0x0 DUP1 MLOAD PUSH1 0x20 PUSH2 0x4329 DUP4 CODECOPY DUP2 MLOAD SWAP2 MSTORE PUSH1 0x44 DUP3 ADD MSTORE PUSH1 0x64 ADD PUSH2 0xC1F JUMP JUMPDEST PUSH1 0x15 SLOAD PUSH2 0x100 SWAP1 DIV PUSH1 0xFF AND ISZERO PUSH2 0x24D0 JUMPI PUSH1 0x40 MLOAD PUSH3 0x461BCD PUSH1 0xE5 SHL DUP2 MSTORE PUSH1 0x20 PUSH1 0x4 DUP3 ADD MSTORE PUSH1 0x1E PUSH1 0x24 DUP3 ADD MSTORE PUSH32 0x43616E6E6F74206368616E6765206166746572206C69717569646974792E0000 PUSH1 0x44 DUP3 ADD MSTORE PUSH1 0x64 ADD PUSH2 0xC1F JUMP JUMPDEST PUSH1 0x0 DUP2 SWAP1 POP PUSH1 0x0 DUP2 PUSH1 0x1 PUSH1 0x1 PUSH1 0xA0 SHL SUB AND PUSH4 0xC45A0155 PUSH1 0x40 MLOAD DUP2 PUSH4 0xFFFFFFFF AND PUSH1 0xE0 SHL DUP2 MSTORE PUSH1 0x4 ADD PUSH1 0x20 PUSH1 0x40 MLOAD DUP1 DUP4 SUB DUP2 DUP7 GAS STATICCALL ISZERO DUP1 ISZERO PUSH2 0x2515 JUMPI RETURNDATASIZE PUSH1 0x0 DUP1 RETURNDATACOPY RETURNDATASIZE PUSH1 0x0 REVERT JUMPDEST POP POP POP POP PUSH1 0x40 MLOAD RETURNDATASIZE PUSH1 0x1F NOT PUSH1 0x1F DUP3 ADD AND DUP3 ADD DUP1 PUSH1 0x40 MSTORE POP DUP2 ADD SWAP1 PUSH2 0x2539 SWAP2 SWAP1 PUSH2 0x426C JUMP JUMPDEST PUSH1 0x1 PUSH1 0x1 PUSH1 0xA0 SHL SUB AND PUSH4 0xE6A43905 ADDRESS DUP5 PUSH1 0x1 PUSH1 0x1 PUSH1 0xA0 SHL SUB AND PUSH4 0xAD5C4648 PUSH1 0x40 MLOAD DUP2 PUSH4 0xFFFFFFFF AND PUSH1 0xE0 SHL DUP2 MSTORE PUSH1 0x4 ADD PUSH1 0x20 PUSH1 0x40 MLOAD DUP1 DUP4 SUB DUP2 DUP7 GAS STATICCALL ISZERO DUP1 ISZERO PUSH2 0x2586 JUMPI RETURNDATASIZE PUSH1 0x0 DUP1 RETURNDATACOPY RETURNDATASIZE PUSH1 0x0 REVERT JUMPDEST POP POP POP POP PUSH1 0x40 MLOAD RETURNDATASIZE PUSH1 0x1F NOT PUSH1 0x1F DUP3 ADD AND DUP3 ADD DUP1 PUSH1 0x40 MSTORE POP DUP2 ADD SWAP1 PUSH2 0x25AA SWAP2 SWAP1 PUSH2 0x426C JUMP JUMPDEST PUSH1 0x40 MLOAD PUSH1 0x1 PUSH1 0x1 PUSH1 0xE0 SHL SUB NOT PUSH1 0xE0 DUP6 SWAP1 SHL AND DUP2 MSTORE PUSH1 0x1 PUSH1 0x1 PUSH1 0xA0 SHL SUB SWAP3 DUP4 AND PUSH1 0x4 DUP3 ADD MSTORE SWAP2 AND PUSH1 0x24 DUP3 ADD MSTORE PUSH1 0x44 ADD PUSH1 0x20 PUSH1 0x40 MLOAD DUP1 DUP4 SUB DUP2 DUP7 GAS STATICCALL ISZERO DUP1 ISZERO PUSH2 0x25F5 JUMPI RETURNDATASIZE PUSH1 0x0 DUP1 RETURNDATACOPY RETURNDATASIZE PUSH1 0x0 REVERT JUMPDEST POP POP POP POP PUSH1 0x40 MLOAD RETURNDATASIZE PUSH1 0x1F NOT PUSH1 0x1F DUP3 ADD AND DUP3 ADD DUP1 PUSH1 0x40 MSTORE POP DUP2 ADD SWAP1 PUSH2 0x2619 SWAP2 SWAP1 PUSH2 0x426C JUMP JUMPDEST PUSH1 0xD SLOAD PUSH1 0x1 PUSH1 0x1 PUSH1 0xA0 SHL SUB SWAP1 DUP2 AND PUSH1 0x0 SWAP1 DUP2 MSTORE PUSH1 0x1 PUSH1 0x20 MSTORE PUSH1 0x40 SWAP1 KECCAK256 DUP1 SLOAD PUSH1 0xFF NOT AND SWAP1 SSTORE SWAP1 SWAP2 POP DUP2 AND PUSH2 0x27AF JUMPI DUP2 PUSH1 0x1 PUSH1 0x1 PUSH1 0xA0 SHL SUB AND PUSH4 0xC45A0155 PUSH1 0x40 MLOAD DUP2 PUSH4 0xFFFFFFFF AND PUSH1 0xE0 SHL DUP2 MSTORE PUSH1 0x4 ADD PUSH1 0x20 PUSH1 0x40 MLOAD DUP1 DUP4 SUB DUP2 DUP7 GAS STATICCALL ISZERO DUP1 ISZERO PUSH2 0x2684 JUMPI RETURNDATASIZE PUSH1 0x0 DUP1 RETURNDATACOPY RETURNDATASIZE PUSH1 0x0 REVERT JUMPDEST POP POP POP POP PUSH1 0x40 MLOAD RETURNDATASIZE PUSH1 0x1F NOT PUSH1 0x1F DUP3 ADD AND DUP3 ADD DUP1 PUSH1 0x40 MSTORE POP DUP2 ADD SWAP1 PUSH2 0x26A8 SWAP2 SWAP1 PUSH2 0x426C JUMP JUMPDEST PUSH1 0x1 PUSH1 0x1 PUSH1 0xA0 SHL SUB AND PUSH4 0xC9C65396 ADDRESS DUP5 PUSH1 0x1 PUSH1 0x1 PUSH1 0xA0 SHL SUB AND PUSH4 0xAD5C4648 PUSH1 0x40 MLOAD DUP2 PUSH4 0xFFFFFFFF AND PUSH1 0xE0 SHL DUP2 MSTORE PUSH1 0x4 ADD PUSH1 0x20 PUSH1 0x40 MLOAD DUP1 DUP4 SUB DUP2 DUP7 GAS STATICCALL ISZERO DUP1 ISZERO PUSH2 0x26F5 JUMPI RETURNDATASIZE PUSH1 0x0 DUP1 RETURNDATACOPY RETURNDATASIZE PUSH1 0x0 REVERT JUMPDEST POP POP POP POP PUSH1 0x40 MLOAD RETURNDATASIZE PUSH1 0x1F NOT PUSH1 0x1F DUP3 ADD AND DUP3 ADD DUP1 PUSH1 0x40 MSTORE POP DUP2 ADD SWAP1 PUSH2 0x2719 SWAP2 SWAP1 PUSH2 0x426C JUMP JUMPDEST PUSH1 0x40 MLOAD PUSH1 0x1 PUSH1 0x1 PUSH1 0xE0 SHL SUB NOT PUSH1 0xE0 DUP6 SWAP1 SHL AND DUP2 MSTORE PUSH1 0x1 PUSH1 0x1 PUSH1 0xA0 SHL SUB SWAP3 DUP4 AND PUSH1 0x4 DUP3 ADD MSTORE SWAP2 AND PUSH1 0x24 DUP3 ADD MSTORE PUSH1 0x44 ADD PUSH1 0x20 PUSH1 0x40 MLOAD DUP1 DUP4 SUB DUP2 PUSH1 0x0 DUP8 GAS CALL ISZERO DUP1 ISZERO PUSH2 0x2766 JUMPI RETURNDATASIZE PUSH1 0x0 DUP1 RETURNDATACOPY RETURNDATASIZE PUSH1 0x0 REVERT JUMPDEST POP POP POP POP PUSH1 0x40 MLOAD RETURNDATASIZE PUSH1 0x1F NOT PUSH1 0x1F DUP3 ADD AND DUP3 ADD DUP1 PUSH1 0x40 MSTORE POP DUP2 ADD SWAP1 PUSH2 0x278A SWAP2 SWAP1 PUSH2 0x426C JUMP JUMPDEST PUSH1 0xD DUP1 SLOAD PUSH1 0x1 PUSH1 0x1 PUSH1 0xA0 SHL SUB NOT AND PUSH1 0x1 PUSH1 0x1 PUSH1 0xA0 SHL SUB SWAP3 SWAP1 SWAP3 AND SWAP2 SWAP1 SWAP2 OR SWAP1 SSTORE PUSH2 0x27CB JUMP JUMPDEST PUSH1 0xD DUP1 SLOAD PUSH1 0x1 PUSH1 0x1 PUSH1 0xA0 SHL SUB NOT AND PUSH1 0x1 PUSH1 0x1 PUSH1 0xA0 SHL SUB DUP4 AND OR SWAP1 SSTORE JUMPDEST PUSH1 0xC DUP1 SLOAD PUSH21 0xFFFFFFFFFFFFFFFFFFFFFFFFFFFFFFFFFFFFFFFF00 NOT AND PUSH2 0x100 PUSH1 0x1 PUSH1 0x1 PUSH1 0xA0 SHL SUB DUP6 DUP2 AND DUP3 MUL SWAP3 SWAP1 SWAP3 OR DUP4 SSTORE PUSH1 0xD SLOAD DUP3 AND PUSH1 0x0 SWAP1 DUP2 MSTORE PUSH1 0x1 PUSH1 0x20 DUP2 SWAP1 MSTORE PUSH1 0x40 SWAP1 SWAP2 KECCAK256 DUP1 SLOAD PUSH1 0xFF NOT AND SWAP1 SWAP2 OR SWAP1 SSTORE SWAP2 SLOAD PUSH2 0x121B SWAP3 ADDRESS SWAP3 SWAP2 DIV AND PUSH1 0x0 NOT PUSH2 0x2D02 JUMP JUMPDEST PUSH1 0x17 SLOAD PUSH1 0x1 PUSH1 0x1 PUSH1 0xA0 SHL SUB AND CALLER EQ PUSH2 0x2879 JUMPI PUSH1 0x40 MLOAD PUSH3 0x461BCD PUSH1 0xE5 SHL DUP2 MSTORE PUSH1 0x20 PUSH1 0x4 DUP3 ADD MSTORE PUSH1 0x11 PUSH1 0x24 DUP3 ADD MSTORE PUSH1 0x0 DUP1 MLOAD PUSH1 0x20 PUSH2 0x4329 DUP4 CODECOPY DUP2 MLOAD SWAP2 MSTORE PUSH1 0x44 DUP3 ADD MSTORE PUSH1 0x64 ADD PUSH2 0xC1F JUMP JUMPDEST PUSH1 0x1 PUSH1 0x1 PUSH1 0xA0 SHL SUB DUP2 AND PUSH2 0x28CF JUMPI PUSH1 0x40 MLOAD PUSH3 0x461BCD PUSH1 0xE5 SHL DUP2 MSTORE PUSH1 0x20 PUSH1 0x4 DUP3 ADD MSTORE PUSH1 0x17 PUSH1 0x24 DUP3 ADD MSTORE PUSH32 0x43616E6E6F74206265207A65726F20616464726573732E000000000000000000 PUSH1 0x44 DUP3 ADD MSTORE PUSH1 0x64 ADD PUSH2 0xC1F JUMP JUMPDEST PUSH1 0xE DUP1 SLOAD PUSH1 0x1 PUSH1 0x1 PUSH1 0xA0 SHL SUB NOT AND PUSH1 0x1 PUSH1 0x1 PUSH1 0xA0 SHL SUB SWAP3 SWAP1 SWAP3 AND SWAP2 SWAP1 SWAP2 OR SWAP1 SSTORE JUMP JUMPDEST PUSH1 0x17 SLOAD PUSH1 0x1 PUSH1 0x1 PUSH1 0xA0 SHL SUB AND CALLER EQ PUSH2 0x2939 JUMPI PUSH1 0x40 MLOAD PUSH3 0x461BCD PUSH1 0xE5 SHL DUP2 MSTORE PUSH1 0x20 PUSH1 0x4 DUP3 ADD MSTORE PUSH1 0x11 PUSH1 0x24 DUP3 ADD MSTORE PUSH1 0x0 DUP1 MLOAD PUSH1 0x20 PUSH2 0x4329 DUP4 CODECOPY DUP2 MLOAD SWAP2 MSTORE PUSH1 0x44 DUP3 ADD MSTORE PUSH1 0x64 ADD PUSH2 0xC1F JUMP JUMPDEST PUSH1 0x15 SLOAD PUSH2 0x100 SWAP1 DIV PUSH1 0xFF AND ISZERO PUSH2 0x2991 JUMPI PUSH1 0x40 MLOAD PUSH3 0x461BCD PUSH1 0xE5 SHL DUP2 MSTORE PUSH1 0x20 PUSH1 0x4 DUP3 ADD MSTORE PUSH1 0x1C PUSH1 0x24 DUP3 ADD MSTORE PUSH32 0x43616E6E6F742063616C6C206166746572206C69717569646974792E00000000 PUSH1 0x44 DUP3 ADD MSTORE PUSH1 0x64 ADD PUSH2 0xC1F JUMP JUMPDEST PUSH1 0x17 SLOAD PUSH1 0x40 MLOAD PUSH1 0x1 PUSH1 0x1 PUSH1 0xA0 SHL SUB SWAP1 SWAP2 AND SWAP1 SELFBALANCE DUP1 ISZERO PUSH2 0x8FC MUL SWAP2 PUSH1 0x0 DUP2 DUP2 DUP2 DUP6 DUP9 DUP9 CALL SWAP4 POP POP POP POP ISZERO DUP1 ISZERO PUSH2 0x29CA JUMPI RETURNDATASIZE PUSH1 0x0 DUP1 RETURNDATACOPY RETURNDATASIZE PUSH1 0x0 REVERT JUMPDEST POP JUMP JUMPDEST PUSH1 0x17 SLOAD PUSH1 0x1 PUSH1 0x1 PUSH1 0xA0 SHL SUB AND CALLER EQ PUSH2 0x2A15 JUMPI PUSH1 0x40 MLOAD PUSH3 0x461BCD PUSH1 0xE5 SHL DUP2 MSTORE PUSH1 0x20 PUSH1 0x4 DUP3 ADD MSTORE PUSH1 0x11 PUSH1 0x24 DUP3 ADD MSTORE PUSH1 0x0 DUP1 MLOAD PUSH1 0x20 PUSH2 0x4329 DUP4 CODECOPY DUP2 MLOAD SWAP2 MSTORE PUSH1 0x44 DUP3 ADD MSTORE PUSH1 0x64 ADD PUSH2 0xC1F JUMP JUMPDEST DUP3 DUP5 PUSH2 0x2A23 PUSH1 0x12 PUSH1 0xA PUSH2 0x414B JUMP JUMPDEST PUSH2 0x2A31 SWAP1 PUSH4 0x3B9ACA00 PUSH2 0x417C JUMP JUMPDEST PUSH2 0x2A3B SWAP2 SWAP1 PUSH2 0x417C JUMP JUMPDEST PUSH2 0x2A45 SWAP2 SWAP1 PUSH2 0x415A JUMP JUMPDEST PUSH1 0x11 SSTORE DUP1 DUP3 PUSH2 0x2A56 PUSH1 0x12 PUSH1 0xA PUSH2 0x414B JUMP JUMPDEST PUSH2 0x2A64 SWAP1 PUSH4 0x3B9ACA00 PUSH2 0x417C JUMP JUMPDEST PUSH2 0x2A6E SWAP2 SWAP1 PUSH2 0x417C JUMP JUMPDEST PUSH2 0x2A78 SWAP2 SWAP1 PUSH2 0x415A JUMP JUMPDEST PUSH1 0x12 DUP2 SWAP1 SSTORE PUSH1 0x11 SLOAD GT ISZERO PUSH2 0x2AD8 JUMPI PUSH1 0x40 MLOAD PUSH3 0x461BCD PUSH1 0xE5 SHL DUP2 MSTORE PUSH1 0x20 PUSH1 0x4 DUP3 ADD MSTORE PUSH1 0x21 PUSH1 0x24 DUP3 ADD MSTORE PUSH32 0x5468726573686F6C642063616E6E6F742062652061626F766520616D6F756E74 PUSH1 0x44 DUP3 ADD MSTORE PUSH1 0x17 PUSH1 0xF9 SHL PUSH1 0x64 DUP3 ADD MSTORE PUSH1 0x84 ADD PUSH2 0xC1F JUMP JUMPDEST PUSH1 0xD SLOAD PUSH1 0x1 PUSH1 0x1 PUSH1 0xA0 SHL SUB AND PUSH1 0x0 SWAP1 DUP2 MSTORE PUSH1 0x20 DUP2 SWAP1 MSTORE PUSH1 0x40 SWAP1 KECCAK256 SLOAD PUSH2 0x2710 SWAP1 PUSH2 0x2B02 SWAP1 PUSH1 0x96 PUSH2 0x417C JUMP JUMPDEST PUSH2 0x2B0C SWAP2 SWAP1 PUSH2 0x415A JUMP JUMPDEST PUSH1 0x12 SLOAD GT ISZERO PUSH2 0x2B69 JUMPI PUSH1 0x40 MLOAD PUSH3 0x461BCD PUSH1 0xE5 SHL DUP2 MSTORE PUSH1 0x20 PUSH1 0x4 DUP3 ADD MSTORE PUSH1 0x23 PUSH1 0x24 DUP3 ADD MSTORE PUSH32 0x43616E6E6F742062652061626F766520312E3525206F662063757272656E7420 PUSH1 0x44 DUP3 ADD MSTORE PUSH3 0x282497 PUSH1 0xE9 SHL PUSH1 0x64 DUP3 ADD MSTORE PUSH1 0x84 ADD PUSH2 0xC1F JUMP JUMPDEST PUSH3 0xF4240 PUSH2 0x2B79 PUSH1 0x12 PUSH1 0xA PUSH2 0x414B JUMP JUMPDEST PUSH2 0x2B87 SWAP1 PUSH4 0x3B9ACA00 PUSH2 0x417C JUMP JUMPDEST PUSH2 0x2B91 SWAP2 SWAP1 PUSH2 0x415A JUMP JUMPDEST PUSH1 0x12 SLOAD LT ISZERO PUSH2 0x2BF9 JUMPI PUSH1 0x40 MLOAD PUSH3 0x461BCD PUSH1 0xE5 SHL DUP2 MSTORE PUSH1 0x20 PUSH1 0x4 DUP3 ADD MSTORE PUSH1 0x2E PUSH1 0x24 DUP3 ADD MSTORE PUSH32 0x43616E6E6F74206265206C6F776572207468616E20302E303030303125206F66 PUSH1 0x44 DUP3 ADD MSTORE PUSH14 0x103A37BA30B61039BAB838363C97 PUSH1 0x91 SHL PUSH1 0x64 DUP3 ADD MSTORE PUSH1 0x84 ADD PUSH2 0xC1F JUMP JUMPDEST PUSH3 0xF4240 PUSH2 0x2C09 PUSH1 0x12 PUSH1 0xA PUSH2 0x414B JUMP JUMPDEST PUSH2 0x2C17 SWAP1 PUSH4 0x3B9ACA00 PUSH2 0x417C JUMP JUMPDEST PUSH2 0x2C21 SWAP2 SWAP1 PUSH2 0x415A JUMP JUMPDEST PUSH1 0x11 SLOAD LT ISZERO PUSH2 0x2C89 JUMPI PUSH1 0x40 MLOAD PUSH3 0x461BCD PUSH1 0xE5 SHL DUP2 MSTORE PUSH1 0x20 PUSH1 0x4 DUP3 ADD MSTORE PUSH1 0x2E PUSH1 0x24 DUP3 ADD MSTORE PUSH32 0x43616E6E6F74206265206C6F776572207468616E20302E303030303125206F66 PUSH1 0x44 DUP3 ADD MSTORE PUSH14 0x103A37BA30B61039BAB838363C97 PUSH1 0x91 SHL PUSH1 0x64 DUP3 ADD MSTORE PUSH1 0x84 ADD PUSH2 0xC1F JUMP JUMPDEST POP POP POP POP JUMP JUMPDEST PUSH1 0x17 SLOAD PUSH1 0x1 PUSH1 0x1 PUSH1 0xA0 SHL SUB AND CALLER EQ PUSH2 0x2CD7 JUMPI PUSH1 0x40 MLOAD PUSH3 0x461BCD PUSH1 0xE5 SHL DUP2 MSTORE PUSH1 0x20 PUSH1 0x4 DUP3 ADD MSTORE PUSH1 0x11 PUSH1 0x24 DUP3 ADD MSTORE PUSH1 0x0 DUP1 MLOAD PUSH1 0x20 PUSH2 0x4329 DUP4 CODECOPY DUP2 MLOAD SWAP2 MSTORE PUSH1 0x44 DUP3 ADD MSTORE PUSH1 0x64 ADD PUSH2 0xC1F JUMP JUMPDEST PUSH1 0x1 PUSH1 0x1 PUSH1 0xA0 SHL SUB SWAP2 SWAP1 SWAP2 AND PUSH1 0x0 SWAP1 DUP2 MSTORE PUSH1 0x5 PUSH1 0x20 MSTORE PUSH1 0x40 SWAP1 KECCAK256 DUP1 SLOAD PUSH1 0xFF NOT AND SWAP2 ISZERO ISZERO SWAP2 SWAP1 SWAP2 OR SWAP1 SSTORE JUMP JUMPDEST PUSH1 0x1 PUSH1 0x1 PUSH1 0xA0 SHL SUB DUP4 AND PUSH2 0x2D4E JUMPI PUSH1 0x40 MLOAD PUSH3 0x461BCD PUSH1 0xE5 SHL DUP2 MSTORE PUSH1 0x20 PUSH1 0x4 DUP3 ADD MSTORE PUSH1 0x13 PUSH1 0x24 DUP3 ADD MSTORE PUSH19 0x45524332303A205A65726F2041646472657373 PUSH1 0x68 SHL PUSH1 0x44 DUP3 ADD MSTORE PUSH1 0x64 ADD PUSH2 0xC1F JUMP JUMPDEST PUSH1 0x1 PUSH1 0x1 PUSH1 0xA0 SHL SUB DUP3 AND PUSH2 0x2D9A JUMPI PUSH1 0x40 MLOAD PUSH3 0x461BCD PUSH1 0xE5 SHL DUP2 MSTORE PUSH1 0x20 PUSH1 0x4 DUP3 ADD MSTORE PUSH1 0x13 PUSH1 0x24 DUP3 ADD MSTORE PUSH19 0x45524332303A205A65726F2041646472657373 PUSH1 0x68 SHL PUSH1 0x44 DUP3 ADD MSTORE PUSH1 0x64 ADD PUSH2 0xC1F JUMP JUMPDEST PUSH1 0x1 PUSH1 0x1 PUSH1 0xA0 SHL SUB DUP4 DUP2 AND PUSH1 0x0 DUP2 DUP2 MSTORE PUSH1 0x3 PUSH1 0x20 SWAP1 DUP2 MSTORE PUSH1 0x40 DUP1 DUP4 KECCAK256 SWAP5 DUP8 AND DUP1 DUP5 MSTORE SWAP5 DUP3 MSTORE SWAP2 DUP3 SWAP1 KECCAK256 DUP6 SWAP1 SSTORE SWAP1 MLOAD DUP5 DUP2 MSTORE PUSH32 0x8C5BE1E5EBEC7D5BD14F71427D1E84F3DD0314C0F7B2291E5B200AC8C7C3B925 SWAP2 ADD PUSH1 0x40 MLOAD DUP1 SWAP2 SUB SWAP1 LOG3 POP POP POP JUMP JUMPDEST PUSH1 0x0 PUSH1 0x1 PUSH1 0x1 PUSH1 0xA0 SHL SUB DUP5 AND PUSH2 0x2E61 JUMPI PUSH1 0x40 MLOAD PUSH3 0x461BCD PUSH1 0xE5 SHL DUP2 MSTORE PUSH1 0x20 PUSH1 0x4 DUP3 ADD MSTORE PUSH1 0x25 PUSH1 0x24 DUP3 ADD MSTORE PUSH32 0x45524332303A207472616E736665722066726F6D20746865207A65726F206164 PUSH1 0x44 DUP3 ADD MSTORE PUSH5 0x6472657373 PUSH1 0xD8 SHL PUSH1 0x64 DUP3 ADD MSTORE PUSH1 0x84 ADD PUSH2 0xC1F JUMP JUMPDEST PUSH1 0x1 PUSH1 0x1 PUSH1 0xA0 SHL SUB DUP4 AND PUSH2 0x2EC3 JUMPI PUSH1 0x40 MLOAD PUSH3 0x461BCD PUSH1 0xE5 SHL DUP2 MSTORE PUSH1 0x20 PUSH1 0x4 DUP3 ADD MSTORE PUSH1 0x23 PUSH1 0x24 DUP3 ADD MSTORE PUSH32 0x45524332303A207472616E7366657220746F20746865207A65726F2061646472 PUSH1 0x44 DUP3 ADD MSTORE PUSH3 0x657373 PUSH1 0xE8 SHL PUSH1 0x64 DUP3 ADD MSTORE PUSH1 0x84 ADD PUSH2 0xC1F JUMP JUMPDEST PUSH1 0x0 DUP3 GT PUSH2 0x2F25 JUMPI PUSH1 0x40 MLOAD PUSH3 0x461BCD PUSH1 0xE5 SHL DUP2 MSTORE PUSH1 0x20 PUSH1 0x4 DUP3 ADD MSTORE PUSH1 0x29 PUSH1 0x24 DUP3 ADD MSTORE PUSH32 0x5472616E7366657220616D6F756E74206D757374206265206772656174657220 PUSH1 0x44 DUP3 ADD MSTORE PUSH9 0x7468616E207A65726F PUSH1 0xB8 SHL PUSH1 0x64 DUP3 ADD MSTORE PUSH1 0x84 ADD PUSH2 0xC1F JUMP JUMPDEST PUSH1 0x1 PUSH1 0x1 PUSH1 0xA0 SHL SUB DUP5 AND PUSH1 0x0 SWAP1 DUP2 MSTORE PUSH1 0x1 PUSH1 0x20 MSTORE PUSH1 0x40 DUP2 KECCAK256 SLOAD DUP2 SWAP1 DUP2 SWAP1 PUSH1 0xFF AND ISZERO PUSH2 0x2F53 JUMPI PUSH1 0x1 SWAP3 POP PUSH2 0x2F81 JUMP JUMPDEST PUSH1 0x1 PUSH1 0x1 PUSH1 0xA0 SHL SUB DUP7 AND PUSH1 0x0 SWAP1 DUP2 MSTORE PUSH1 0x1 PUSH1 0x20 MSTORE PUSH1 0x40 SWAP1 KECCAK256 SLOAD PUSH1 0xFF AND ISZERO PUSH2 0x2F7D JUMPI PUSH1 0x1 SWAP2 POP PUSH2 0x2F81 JUMP JUMPDEST POP PUSH1 0x1 JUMPDEST PUSH2 0x2F8B DUP8 DUP8 PUSH2 0x350D JUMP JUMPDEST ISZERO PUSH2 0x3160 JUMPI PUSH1 0x15 SLOAD PUSH1 0xFF AND PUSH2 0x308C JUMPI DUP1 PUSH2 0x2FE7 JUMPI PUSH1 0x40 MLOAD PUSH3 0x461BCD PUSH1 0xE5 SHL DUP2 MSTORE PUSH1 0x20 PUSH1 0x4 DUP3 ADD MSTORE PUSH1 0x18 PUSH1 0x24 DUP3 ADD MSTORE PUSH32 0x54726164696E67206E6F742079657420656E61626C6564210000000000000000 PUSH1 0x44 DUP3 ADD MSTORE PUSH1 0x64 ADD PUSH2 0xC1F JUMP JUMPDEST PUSH1 0x1 PUSH1 0x1 PUSH1 0xA0 SHL SUB DUP8 AND PUSH1 0x0 SWAP1 DUP2 MSTORE PUSH1 0x5 PUSH1 0x20 MSTORE PUSH1 0x40 SWAP1 KECCAK256 SLOAD PUSH1 0xFF AND ISZERO DUP1 ISZERO PUSH2 0x3029 JUMPI POP PUSH1 0x1 PUSH1 0x1 PUSH1 0xA0 SHL SUB DUP7 AND PUSH1 0x0 SWAP1 DUP2 MSTORE PUSH1 0x5 PUSH1 0x20 MSTORE PUSH1 0x40 SWAP1 KECCAK256 SLOAD PUSH1 0xFF AND ISZERO JUMPDEST ISZERO PUSH2 0x308C JUMPI PUSH1 0x40 MLOAD PUSH3 0x461BCD PUSH1 0xE5 SHL DUP2 MSTORE PUSH1 0x20 PUSH1 0x4 DUP3 ADD MSTORE PUSH1 0x2D PUSH1 0x24 DUP3 ADD MSTORE PUSH32 0x546F6B656E732063616E6E6F74206265206D6F76656420756E74696C20747261 PUSH1 0x44 DUP3 ADD MSTORE PUSH13 0x3234B7339034B9903634BB3297 PUSH1 0x99 SHL PUSH1 0x64 DUP3 ADD MSTORE PUSH1 0x84 ADD PUSH2 0xC1F JUMP JUMPDEST PUSH1 0xC SLOAD PUSH1 0x1 PUSH1 0x1 PUSH1 0xA0 SHL SUB DUP8 DUP2 AND PUSH2 0x100 SWAP1 SWAP3 DIV AND EQ DUP1 ISZERO SWAP1 PUSH2 0x30AD JUMPI POP DUP2 ISZERO JUMPDEST ISZERO PUSH2 0x3160 JUMPI PUSH1 0x1 PUSH1 0x1 PUSH1 0xA0 SHL SUB DUP7 AND PUSH1 0x0 SWAP1 DUP2 MSTORE PUSH1 0x7 PUSH1 0x20 MSTORE PUSH1 0x40 SWAP1 KECCAK256 SLOAD PUSH1 0xFF AND PUSH2 0x3160 JUMPI PUSH1 0xF SLOAD DUP6 PUSH2 0x30F5 DUP9 PUSH1 0x1 PUSH1 0x1 PUSH1 0xA0 SHL SUB AND PUSH1 0x0 SWAP1 DUP2 MSTORE PUSH1 0x20 DUP2 SWAP1 MSTORE PUSH1 0x40 SWAP1 KECCAK256 SLOAD SWAP1 JUMP JUMPDEST PUSH2 0x30FF SWAP2 SWAP1 PUSH2 0x41DD JUMP JUMPDEST GT ISZERO PUSH2 0x3160 JUMPI PUSH1 0x40 MLOAD PUSH3 0x461BCD PUSH1 0xE5 SHL DUP2 MSTORE PUSH1 0x20 PUSH1 0x4 DUP3 ADD MSTORE PUSH1 0x2A PUSH1 0x24 DUP3 ADD MSTORE PUSH32 0x5472616E7366657220616D6F756E74206578636565647320746865206D617857 PUSH1 0x44 DUP3 ADD MSTORE PUSH10 0x30B63632BA29B4BD3297 PUSH1 0xB1 SHL PUSH1 0x64 DUP3 ADD MSTORE PUSH1 0x84 ADD PUSH2 0xC1F JUMP JUMPDEST DUP2 ISZERO PUSH2 0x3241 JUMPI PUSH1 0x10 SLOAD PUSH1 0xFF AND PUSH2 0x3241 JUMPI PUSH1 0x10 SLOAD PUSH2 0x100 SWAP1 DIV PUSH1 0xFF AND DUP1 ISZERO PUSH2 0x31A0 JUMPI POP PUSH1 0x1 PUSH1 0x1 PUSH1 0xA0 SHL SUB DUP7 AND PUSH1 0x0 SWAP1 DUP2 MSTORE PUSH1 0x8 PUSH1 0x20 MSTORE PUSH1 0x40 SWAP1 KECCAK256 SLOAD PUSH1 0xFF AND ISZERO JUMPDEST DUP1 ISZERO PUSH2 0x31C5 JUMPI POP PUSH1 0x1 PUSH1 0x1 PUSH1 0xA0 SHL SUB DUP8 AND PUSH1 0x0 SWAP1 DUP2 MSTORE PUSH1 0x8 PUSH1 0x20 MSTORE PUSH1 0x40 SWAP1 KECCAK256 SLOAD PUSH1 0xFF AND ISZERO JUMPDEST ISZERO PUSH2 0x3241 JUMPI ADDRESS PUSH1 0x0 SWAP1 DUP2 MSTORE PUSH1 0x20 DUP2 SWAP1 MSTORE PUSH1 0x40 SWAP1 KECCAK256 SLOAD PUSH1 0x11 SLOAD DUP2 LT PUSH2 0x323F JUMPI PUSH1 0x12 SLOAD PUSH1 0x13 SLOAD PUSH1 0xFF AND ISZERO PUSH2 0x3229 JUMPI PUSH1 0x14 SLOAD PUSH1 0xD SLOAD PUSH1 0x1 PUSH1 0x1 PUSH1 0xA0 SHL SUB AND PUSH1 0x0 SWAP1 DUP2 MSTORE PUSH1 0x20 DUP2 SWAP1 MSTORE PUSH1 0x40 SWAP1 KECCAK256 SLOAD PUSH2 0x2710 SWAP2 PUSH2 0x321C SWAP2 PUSH2 0x417C JUMP JUMPDEST PUSH2 0x3226 SWAP2 SWAP1 PUSH2 0x415A JUMP JUMPDEST SWAP1 POP JUMPDEST DUP1 DUP3 LT PUSH2 0x3234 JUMPI DUP1 SWAP2 POP JUMPDEST PUSH2 0x323D DUP3 PUSH2 0x3624 JUMP JUMPDEST POP JUMPDEST POP JUMPDEST PUSH2 0x324F DUP8 DUP8 DUP8 DUP7 DUP7 DUP7 PUSH2 0x325A JUMP JUMPDEST SWAP8 SWAP7 POP POP POP POP POP POP POP JUMP JUMPDEST PUSH1 0x0 PUSH2 0x3266 DUP8 DUP8 PUSH2 0x350D JUMP JUMPDEST ISZERO PUSH2 0x3300 JUMPI PUSH1 0x15 SLOAD PUSH1 0x40 MLOAD PUSH4 0xECD07A53 PUSH1 0xE0 SHL DUP2 MSTORE PUSH1 0x1 PUSH1 0x1 PUSH1 0xA0 SHL SUB DUP10 DUP2 AND PUSH1 0x4 DUP4 ADD MSTORE DUP9 DUP2 AND PUSH1 0x24 DUP4 ADD MSTORE PUSH1 0x44 DUP3 ADD DUP9 SWAP1 MSTORE PUSH1 0x0 SWAP3 PUSH3 0x10000 SWAP1 DIV AND SWAP1 PUSH4 0xECD07A53 SWAP1 PUSH1 0x64 ADD PUSH1 0x20 PUSH1 0x40 MLOAD DUP1 DUP4 SUB DUP2 PUSH1 0x0 DUP8 GAS CALL SWAP3 POP POP POP DUP1 ISZERO PUSH2 0x32E9 JUMPI POP PUSH1 0x40 DUP1 MLOAD PUSH1 0x1F RETURNDATASIZE SWAP1 DUP2 ADD PUSH1 0x1F NOT AND DUP3 ADD SWAP1 SWAP3 MSTORE PUSH2 0x32E6 SWAP2 DUP2 ADD SWAP1 PUSH2 0x424F JUMP JUMPDEST PUSH1 0x1 JUMPDEST PUSH2 0x32F2 JUMPI PUSH1 0x0 DUP1 REVERT JUMPDEST SWAP1 POP DUP1 PUSH2 0x32FE JUMPI PUSH1 0x0 DUP1 REVERT JUMPDEST POP JUMPDEST PUSH1 0x1 PUSH1 0x1 PUSH1 0xA0 SHL SUB DUP8 AND PUSH1 0x0 SWAP1 DUP2 MSTORE PUSH1 0x6 PUSH1 0x20 MSTORE PUSH1 0x40 SWAP1 KECCAK256 SLOAD PUSH1 0x1 SWAP1 PUSH1 0xFF AND DUP1 PUSH2 0x3342 JUMPI POP PUSH1 0x1 PUSH1 0x1 PUSH1 0xA0 SHL SUB DUP8 AND PUSH1 0x0 SWAP1 DUP2 MSTORE PUSH1 0x6 PUSH1 0x20 MSTORE PUSH1 0x40 SWAP1 KECCAK256 SLOAD PUSH1 0xFF AND JUMPDEST ISZERO PUSH2 0x334B JUMPI POP PUSH1 0x0 JUMPDEST PUSH1 0x1 PUSH1 0x1 PUSH1 0xA0 SHL SUB DUP9 AND PUSH1 0x0 SWAP1 DUP2 MSTORE PUSH1 0x20 DUP2 SWAP1 MSTORE PUSH1 0x40 DUP2 KECCAK256 DUP1 SLOAD DUP9 SWAP3 SWAP1 PUSH2 0x3373 SWAP1 DUP5 SWAP1 PUSH2 0x4193 JUMP JUMPDEST SWAP1 SWAP2 SSTORE POP PUSH1 0x0 SWAP1 POP DUP2 PUSH2 0x3386 JUMPI DUP7 PUSH2 0x3392 JUMP JUMPDEST PUSH2 0x3392 DUP10 DUP8 DUP8 DUP11 PUSH2 0x39EA JUMP JUMPDEST SWAP1 POP DUP1 PUSH1 0x0 DUP1 DUP11 PUSH1 0x1 PUSH1 0x1 PUSH1 0xA0 SHL SUB AND PUSH1 0x1 PUSH1 0x1 PUSH1 0xA0 SHL SUB AND DUP2 MSTORE PUSH1 0x20 ADD SWAP1 DUP2 MSTORE PUSH1 0x20 ADD PUSH1 0x0 KECCAK256 PUSH1 0x0 DUP3 DUP3 SLOAD PUSH2 0x33C8 SWAP2 SWAP1 PUSH2 0x41DD JUMP JUMPDEST SWAP3 POP POP DUP2 SWAP1 SSTORE POP DUP8 PUSH1 0x1 PUSH1 0x1 PUSH1 0xA0 SHL SUB AND DUP10 PUSH1 0x1 PUSH1 0x1 PUSH1 0xA0 SHL SUB AND PUSH32 0xDDF252AD1BE2C89B69C2B068FC378DAA952BA7F163C4A11628F55A4DF523B3EF DUP4 PUSH1 0x40 MLOAD PUSH2 0x3414 SWAP2 DUP2 MSTORE PUSH1 0x20 ADD SWAP1 JUMP JUMPDEST PUSH1 0x40 MLOAD DUP1 SWAP2 SUB SWAP1 LOG3 PUSH1 0x15 SLOAD PUSH2 0x100 SWAP1 DIV PUSH1 0xFF AND PUSH2 0x34FE JUMPI PUSH2 0x3435 DUP10 DUP10 PUSH2 0x3AFF JUMP JUMPDEST PUSH1 0x15 SLOAD PUSH2 0x100 SWAP1 DIV PUSH1 0xFF AND ISZERO DUP1 ISZERO PUSH2 0x3452 JUMPI POP PUSH2 0x3452 DUP10 DUP10 PUSH2 0x350D JUMP JUMPDEST DUP1 ISZERO PUSH2 0x3477 JUMPI POP PUSH1 0x1 PUSH1 0x1 PUSH1 0xA0 SHL SUB DUP10 AND PUSH1 0x0 SWAP1 DUP2 MSTORE PUSH1 0x5 PUSH1 0x20 MSTORE PUSH1 0x40 SWAP1 KECCAK256 SLOAD PUSH1 0xFF AND ISZERO JUMPDEST DUP1 ISZERO PUSH2 0x349C JUMPI POP PUSH1 0x1 PUSH1 0x1 PUSH1 0xA0 SHL SUB DUP9 AND PUSH1 0x0 SWAP1 DUP2 MSTORE PUSH1 0x5 PUSH1 0x20 MSTORE PUSH1 0x40 SWAP1 KECCAK256 SLOAD PUSH1 0xFF AND ISZERO JUMPDEST DUP1 ISZERO PUSH2 0x34A6 JUMPI POP DUP4 ISZERO JUMPDEST ISZERO PUSH2 0x34FE JUMPI PUSH1 0x40 MLOAD PUSH3 0x461BCD PUSH1 0xE5 SHL DUP2 MSTORE PUSH1 0x20 PUSH1 0x4 DUP3 ADD MSTORE PUSH1 0x22 PUSH1 0x24 DUP3 ADD MSTORE PUSH32 0x5072652D6C6971756964697479207472616E736665722070726F74656374696F PUSH1 0x44 DUP3 ADD MSTORE PUSH2 0x3717 PUSH1 0xF1 SHL PUSH1 0x64 DUP3 ADD MSTORE PUSH1 0x84 ADD PUSH2 0xC1F JUMP JUMPDEST POP PUSH1 0x1 SWAP9 SWAP8 POP POP POP POP POP POP POP POP JUMP JUMPDEST PUSH1 0x17 SLOAD PUSH1 0x0 SWAP1 PUSH1 0x1 PUSH1 0x1 PUSH1 0xA0 SHL SUB DUP5 DUP2 AND SWAP2 AND EQ DUP1 ISZERO SWAP1 PUSH2 0x353C JUMPI POP PUSH1 0x17 SLOAD PUSH1 0x1 PUSH1 0x1 PUSH1 0xA0 SHL SUB DUP4 DUP2 AND SWAP2 AND EQ ISZERO JUMPDEST DUP1 ISZERO PUSH2 0x3553 JUMPI POP PUSH1 0x17 SLOAD PUSH1 0x1 PUSH1 0x1 PUSH1 0xA0 SHL SUB AND ORIGIN EQ ISZERO JUMPDEST DUP1 ISZERO PUSH2 0x3578 JUMPI POP PUSH1 0x1 PUSH1 0x1 PUSH1 0xA0 SHL SUB DUP3 AND PUSH1 0x0 SWAP1 DUP2 MSTORE PUSH1 0x4 PUSH1 0x20 MSTORE PUSH1 0x40 SWAP1 KECCAK256 SLOAD PUSH1 0xFF AND ISZERO JUMPDEST DUP1 ISZERO PUSH2 0x359D JUMPI POP PUSH1 0x1 PUSH1 0x1 PUSH1 0xA0 SHL SUB DUP4 AND PUSH1 0x0 SWAP1 DUP2 MSTORE PUSH1 0x4 PUSH1 0x20 MSTORE PUSH1 0x40 SWAP1 KECCAK256 SLOAD PUSH1 0xFF AND ISZERO JUMPDEST DUP1 ISZERO PUSH2 0x35B4 JUMPI POP PUSH1 0x1 PUSH1 0x1 PUSH1 0xA0 SHL SUB DUP3 AND PUSH2 0xDEAD EQ ISZERO JUMPDEST DUP1 ISZERO PUSH2 0x35C8 JUMPI POP PUSH1 0x1 PUSH1 0x1 PUSH1 0xA0 SHL SUB DUP3 AND ISZERO ISZERO JUMPDEST DUP1 ISZERO PUSH2 0x35DD JUMPI POP PUSH1 0x1 PUSH1 0x1 PUSH1 0xA0 SHL SUB DUP4 AND ADDRESS EQ ISZERO JUMPDEST DUP1 ISZERO PUSH2 0x35FD JUMPI POP PUSH1 0x15 SLOAD PUSH1 0x1 PUSH1 0x1 PUSH1 0xA0 SHL SUB DUP5 DUP2 AND PUSH3 0x10000 SWAP1 SWAP3 DIV AND EQ ISZERO JUMPDEST DUP1 ISZERO PUSH2 0x361D JUMPI POP PUSH1 0x15 SLOAD PUSH1 0x1 PUSH1 0x1 PUSH1 0xA0 SHL SUB DUP4 DUP2 AND PUSH3 0x10000 SWAP1 SWAP3 DIV AND EQ ISZERO JUMPDEST SWAP4 SWAP3 POP POP POP JUMP JUMPDEST PUSH1 0x10 DUP1 SLOAD PUSH1 0xFF NOT AND PUSH1 0x1 OR SWAP1 SSTORE PUSH1 0x40 DUP1 MLOAD PUSH1 0x60 DUP2 ADD DUP3 MSTORE PUSH1 0xB SLOAD PUSH2 0xFFFF DUP1 DUP3 AND DUP4 MSTORE PUSH3 0x10000 DUP3 DIV DUP2 AND PUSH1 0x20 DUP5 ADD MSTORE PUSH5 0x100000000 SWAP1 SWAP2 DIV AND SWAP2 DUP2 ADD DUP3 SWAP1 MSTORE SWAP1 PUSH1 0x0 SUB PUSH2 0x3671 JUMPI POP PUSH2 0x39DD JUMP JUMPDEST ADDRESS PUSH1 0x0 SWAP1 DUP2 MSTORE PUSH1 0x3 PUSH1 0x20 SWAP1 DUP2 MSTORE PUSH1 0x40 DUP1 DUP4 KECCAK256 PUSH1 0xC SLOAD PUSH2 0x100 SWAP1 DIV PUSH1 0x1 PUSH1 0x1 PUSH1 0xA0 SHL SUB AND DUP5 MSTORE SWAP1 SWAP2 MSTORE SWAP1 KECCAK256 SLOAD PUSH1 0x0 NOT EQ PUSH2 0x36D4 JUMPI ADDRESS PUSH1 0x0 SWAP1 DUP2 MSTORE PUSH1 0x3 PUSH1 0x20 SWAP1 DUP2 MSTORE PUSH1 0x40 DUP1 DUP4 KECCAK256 PUSH1 0xC SLOAD PUSH2 0x100 SWAP1 DIV PUSH1 0x1 PUSH1 0x1 PUSH1 0xA0 SHL SUB AND DUP5 MSTORE SWAP1 SWAP2 MSTORE SWAP1 KECCAK256 PUSH1 0x0 NOT SWAP1 SSTORE JUMPDEST PUSH1 0x0 PUSH1 0x2 DUP3 PUSH1 0x40 ADD MLOAD PUSH2 0xFFFF AND DUP4 PUSH1 0x0 ADD MLOAD PUSH2 0xFFFF AND DUP6 PUSH2 0x36F5 SWAP2 SWAP1 PUSH2 0x417C JUMP JUMPDEST PUSH2 0x36FF SWAP2 SWAP1 PUSH2 0x415A JUMP JUMPDEST PUSH2 0x3709 SWAP2 SWAP1 PUSH2 0x415A JUMP JUMPDEST SWAP1 POP PUSH1 0x0 PUSH2 0x3717 DUP3 DUP6 PUSH2 0x4193 JUMP JUMPDEST PUSH1 0x40 DUP1 MLOAD PUSH1 0x2 DUP1 DUP3 MSTORE PUSH1 0x60 DUP3 ADD DUP4 MSTORE SWAP3 SWAP4 POP PUSH1 0x0 SWAP3 SWAP1 SWAP2 PUSH1 0x20 DUP4 ADD SWAP1 DUP1 CALLDATASIZE DUP4 CALLDATACOPY ADD SWAP1 POP POP SWAP1 POP ADDRESS DUP2 PUSH1 0x0 DUP2 MLOAD DUP2 LT PUSH2 0x3751 JUMPI PUSH2 0x3751 PUSH2 0x41A6 JUMP JUMPDEST PUSH1 0x20 MUL PUSH1 0x20 ADD ADD SWAP1 PUSH1 0x1 PUSH1 0x1 PUSH1 0xA0 SHL SUB AND SWAP1 DUP2 PUSH1 0x1 PUSH1 0x1 PUSH1 0xA0 SHL SUB AND DUP2 MSTORE POP POP PUSH1 0xC PUSH1 0x1 SWAP1 SLOAD SWAP1 PUSH2 0x100 EXP SWAP1 DIV PUSH1 0x1 PUSH1 0x1 PUSH1 0xA0 SHL SUB AND PUSH1 0x1 PUSH1 0x1 PUSH1 0xA0 SHL SUB AND PUSH4 0xAD5C4648 PUSH1 0x40 MLOAD DUP2 PUSH4 0xFFFFFFFF AND PUSH1 0xE0 SHL DUP2 MSTORE PUSH1 0x4 ADD PUSH1 0x20 PUSH1 0x40 MLOAD DUP1 DUP4 SUB DUP2 DUP7 GAS STATICCALL ISZERO DUP1 ISZERO PUSH2 0x37C4 JUMPI RETURNDATASIZE PUSH1 0x0 DUP1 RETURNDATACOPY RETURNDATASIZE PUSH1 0x0 REVERT JUMPDEST POP POP POP POP PUSH1 0x40 MLOAD RETURNDATASIZE PUSH1 0x1F NOT PUSH1 0x1F DUP3 ADD AND DUP3 ADD DUP1 PUSH1 0x40 MSTORE POP DUP2 ADD SWAP1 PUSH2 0x37E8 SWAP2 SWAP1 PUSH2 0x426C JUMP JUMPDEST DUP2 PUSH1 0x1 DUP2 MLOAD DUP2 LT PUSH2 0x37FB JUMPI PUSH2 0x37FB PUSH2 0x41A6 JUMP JUMPDEST PUSH1 0x1 PUSH1 0x1 PUSH1 0xA0 SHL SUB SWAP3 DUP4 AND PUSH1 0x20 SWAP2 DUP3 MUL SWAP3 SWAP1 SWAP3 ADD ADD MSTORE PUSH1 0xC SLOAD PUSH1 0x40 MLOAD PUSH4 0x791AC947 PUSH1 0xE0 SHL DUP2 MSTORE PUSH2 0x100 SWAP1 SWAP2 DIV SWAP1 SWAP2 AND SWAP1 PUSH4 0x791AC947 SWAP1 PUSH2 0x3848 SWAP1 DUP6 SWAP1 PUSH1 0x0 SWAP1 DUP7 SWAP1 ADDRESS SWAP1 TIMESTAMP SWAP1 PUSH1 0x4 ADD PUSH2 0x4289 JUMP JUMPDEST PUSH1 0x0 PUSH1 0x40 MLOAD DUP1 DUP4 SUB DUP2 PUSH1 0x0 DUP8 DUP1 EXTCODESIZE ISZERO DUP1 ISZERO PUSH2 0x3862 JUMPI PUSH1 0x0 DUP1 REVERT JUMPDEST POP GAS CALL SWAP3 POP POP POP DUP1 ISZERO PUSH2 0x3873 JUMPI POP PUSH1 0x1 JUMPDEST PUSH2 0x3880 JUMPI POP POP POP POP PUSH2 0x39DD JUMP JUMPDEST SELFBALANCE PUSH1 0x0 DUP4 PUSH2 0x388E DUP7 DUP5 PUSH2 0x417C JUMP JUMPDEST PUSH2 0x3898 SWAP2 SWAP1 PUSH2 0x415A JUMP JUMPDEST SWAP1 POP DUP5 ISZERO PUSH2 0x397B JUMPI PUSH1 0xC SLOAD PUSH1 0x40 MLOAD PUSH4 0xF305D719 PUSH1 0xE0 SHL DUP2 MSTORE ADDRESS PUSH1 0x4 DUP3 ADD MSTORE PUSH1 0x24 DUP2 ADD DUP8 SWAP1 MSTORE PUSH1 0x0 PUSH1 0x44 DUP3 ADD DUP2 SWAP1 MSTORE PUSH1 0x64 DUP3 ADD MSTORE PUSH2 0xDEAD PUSH1 0x84 DUP3 ADD MSTORE TIMESTAMP PUSH1 0xA4 DUP3 ADD MSTORE PUSH2 0x100 SWAP1 SWAP2 DIV PUSH1 0x1 PUSH1 0x1 PUSH1 0xA0 SHL SUB AND SWAP1 PUSH4 0xF305D719 SWAP1 DUP4 SWAP1 PUSH1 0xC4 ADD PUSH1 0x60 PUSH1 0x40 MLOAD DUP1 DUP4 SUB DUP2 DUP6 DUP9 GAS CALL SWAP4 POP POP POP POP DUP1 ISZERO PUSH2 0x392F JUMPI POP PUSH1 0x40 DUP1 MLOAD PUSH1 0x1F RETURNDATASIZE SWAP1 DUP2 ADD PUSH1 0x1F NOT AND DUP3 ADD SWAP1 SWAP3 MSTORE PUSH2 0x392C SWAP2 DUP2 ADD SWAP1 PUSH2 0x42FA JUMP JUMPDEST PUSH1 0x1 JUMPDEST PUSH2 0x393E JUMPI POP POP POP POP POP POP PUSH2 0x39DD JUMP JUMPDEST POP POP PUSH1 0x40 DUP1 MLOAD DUP4 DUP2 MSTORE PUSH1 0x20 DUP2 ADD DUP9 SWAP1 MSTORE PUSH32 0x424DB2872186FA7E7AFA7A5E902ED3B49A2EF19C2F5431E672462495DD6B4506 SWAP3 POP ADD PUSH1 0x40 MLOAD DUP1 SWAP2 SUB SWAP1 LOG1 JUMPDEST PUSH1 0xE SLOAD PUSH1 0x40 MLOAD PUSH1 0x0 SWAP2 PUSH1 0x1 PUSH1 0x1 PUSH1 0xA0 SHL SUB AND SWAP1 PUSH2 0xD6D8 SWAP1 SELFBALANCE SWAP1 DUP5 DUP2 DUP2 DUP2 DUP6 DUP9 DUP9 CALL SWAP4 POP POP POP POP RETURNDATASIZE DUP1 PUSH1 0x0 DUP2 EQ PUSH2 0x39CD JUMPI PUSH1 0x40 MLOAD SWAP2 POP PUSH1 0x1F NOT PUSH1 0x3F RETURNDATASIZE ADD AND DUP3 ADD PUSH1 0x40 MSTORE RETURNDATASIZE DUP3 MSTORE RETURNDATASIZE PUSH1 0x0 PUSH1 0x20 DUP5 ADD RETURNDATACOPY PUSH2 0x39D2 JUMP JUMPDEST PUSH1 0x60 SWAP2 POP JUMPDEST POP POP POP POP POP POP POP POP POP POP JUMPDEST POP PUSH1 0x10 DUP1 SLOAD PUSH1 0xFF NOT AND SWAP1 SSTORE JUMP JUMPDEST PUSH1 0x0 DUP1 DUP5 ISZERO PUSH2 0x3A00 JUMPI POP PUSH1 0xA SLOAD PUSH2 0xFFFF AND PUSH2 0x3A2A JUMP JUMPDEST DUP4 ISZERO PUSH2 0x3A19 JUMPI POP PUSH1 0xA SLOAD PUSH3 0x10000 SWAP1 DIV PUSH2 0xFFFF AND PUSH2 0x3A2A JUMP JUMPDEST POP PUSH1 0xA SLOAD PUSH5 0x100000000 SWAP1 DIV PUSH2 0xFFFF AND JUMPDEST DUP1 PUSH1 0x0 SUB PUSH2 0x3A3B JUMPI DUP3 SWAP2 POP POP PUSH2 0xF1A JUMP JUMPDEST PUSH1 0x15 SLOAD PUSH3 0x10000 SWAP1 DIV PUSH1 0x1 PUSH1 0x1 PUSH1 0xA0 SHL SUB AND ADDRESS EQ DUP1 ISZERO PUSH2 0x3A65 JUMPI POP CHAINID PUSH1 0x1 EQ DUP1 PUSH2 0x3A65 JUMPI POP CHAINID PUSH1 0x38 EQ JUMPDEST ISZERO PUSH2 0x3A6F JUMPI POP PUSH2 0x1194 JUMPDEST PUSH1 0x0 PUSH2 0x2710 PUSH2 0x3A7E DUP4 DUP7 PUSH2 0x417C JUMP JUMPDEST PUSH2 0x3A88 SWAP2 SWAP1 PUSH2 0x415A JUMP JUMPDEST SWAP1 POP DUP1 ISZERO PUSH2 0x3AF5 JUMPI ADDRESS PUSH1 0x0 SWAP1 DUP2 MSTORE PUSH1 0x20 DUP2 SWAP1 MSTORE PUSH1 0x40 DUP2 KECCAK256 DUP1 SLOAD DUP4 SWAP3 SWAP1 PUSH2 0x3AAF SWAP1 DUP5 SWAP1 PUSH2 0x41DD JUMP JUMPDEST SWAP1 SWAP2 SSTORE POP POP PUSH1 0x40 MLOAD DUP2 DUP2 MSTORE ADDRESS SWAP1 PUSH1 0x1 PUSH1 0x1 PUSH1 0xA0 SHL SUB DUP10 AND SWAP1 PUSH32 0xDDF252AD1BE2C89B69C2B068FC378DAA952BA7F163C4A11628F55A4DF523B3EF SWAP1 PUSH1 0x20 ADD PUSH1 0x40 MLOAD DUP1 SWAP2 SUB SWAP1 LOG3 JUMPDEST PUSH2 0x324F DUP2 DUP6 PUSH2 0x4193 JUMP JUMPDEST PUSH1 0x15 SLOAD PUSH2 0x100 SWAP1 DIV PUSH1 0xFF AND ISZERO PUSH2 0x3B63 JUMPI PUSH1 0x40 MLOAD PUSH3 0x461BCD PUSH1 0xE5 SHL DUP2 MSTORE PUSH1 0x20 PUSH1 0x4 DUP3 ADD MSTORE PUSH1 0x23 PUSH1 0x24 DUP3 ADD MSTORE PUSH32 0x4C697175696469747920616C726561647920616464656420616E64206D61726B PUSH1 0x44 DUP3 ADD MSTORE PUSH3 0x32B217 PUSH1 0xE9 SHL PUSH1 0x64 DUP3 ADD MSTORE PUSH1 0x84 ADD PUSH2 0xC1F JUMP JUMPDEST PUSH2 0x3B6D DUP3 DUP3 PUSH2 0x350D JUMP JUMPDEST ISZERO DUP1 ISZERO PUSH2 0x3B87 JUMPI POP PUSH1 0xD SLOAD PUSH1 0x1 PUSH1 0x1 PUSH1 0xA0 SHL SUB DUP3 DUP2 AND SWAP2 AND EQ JUMPDEST ISZERO PUSH2 0xE15 JUMPI PUSH1 0x1 PUSH1 0x1 PUSH1 0xA0 SHL SUB DUP1 DUP4 AND PUSH1 0x0 SWAP1 DUP2 MSTORE PUSH1 0x4 PUSH1 0x20 SWAP1 DUP2 MSTORE PUSH1 0x40 DUP1 DUP4 KECCAK256 DUP1 SLOAD PUSH1 0xFF NOT SWAP1 DUP2 AND PUSH1 0x1 SWAP1 DUP2 OR SWAP1 SWAP3 SSTORE PUSH1 0x6 SWAP1 SWAP4 MSTORE SWAP3 KECCAK256 DUP1 SLOAD SWAP1 SWAP2 AND SWAP1 SWAP2 OR SWAP1 SSTORE PUSH1 0x15 DUP1 SLOAD PUSH2 0xFF00 NOT AND PUSH2 0x100 OR SWAP1 DUP2 SWAP1 SSTORE PUSH3 0x10000 SWAP1 DIV AND PUSH2 0x3BFF JUMPI PUSH1 0x15 DUP1 SLOAD PUSH3 0x10000 PUSH1 0x1 PUSH1 0xB0 SHL SUB NOT AND ADDRESS PUSH3 0x10000 MUL OR SWAP1 SSTORE JUMPDEST PUSH1 0x10 DUP1 SLOAD PUSH2 0xFF00 NOT AND PUSH2 0x100 OR SWAP1 SSTORE PUSH1 0x40 MLOAD PUSH1 0x1 DUP2 MSTORE PUSH32 0x7B0A47D3B0234280B6C9213C5BBFF44C8B6001BEA7770B3950280F9141053257 SWAP1 PUSH1 0x20 ADD PUSH2 0x2424 JUMP JUMPDEST DUP1 ISZERO ISZERO DUP2 EQ PUSH2 0x29CA JUMPI PUSH1 0x0 DUP1 REVERT JUMPDEST PUSH1 0x0 DUP1 PUSH1 0x40 DUP4 DUP6 SUB SLT ISZERO PUSH2 0x3C60 JUMPI PUSH1 0x0 DUP1 REVERT JUMPDEST DUP3 CALLDATALOAD PUSH2 0x3C6B DUP2 PUSH2 0x3C3F JUMP JUMPDEST SWAP2 POP PUSH1 0x20 DUP4 ADD CALLDATALOAD PUSH2 0x3C7B DUP2 PUSH2 0x3C3F JUMP JUMPDEST DUP1 SWAP2 POP POP SWAP3 POP SWAP3 SWAP1 POP JUMP JUMPDEST PUSH1 0x0 PUSH1 0x20 DUP1 DUP4 MSTORE DUP4 MLOAD DUP1 DUP3 DUP6 ADD MSTORE PUSH1 0x0 JUMPDEST DUP2 DUP2 LT ISZERO PUSH2 0x3CB3 JUMPI DUP6 DUP2 ADD DUP4 ADD MLOAD DUP6 DUP3 ADD PUSH1 0x40 ADD MSTORE DUP3 ADD PUSH2 0x3C97 JUMP JUMPDEST POP PUSH1 0x0 PUSH1 0x40 DUP3 DUP7 ADD ADD MSTORE PUSH1 0x40 PUSH1 0x1F NOT PUSH1 0x1F DUP4 ADD AND DUP6 ADD ADD SWAP3 POP POP POP SWAP3 SWAP2 POP POP JUMP JUMPDEST PUSH1 0x1 PUSH1 0x1 PUSH1 0xA0 SHL SUB DUP2 AND DUP2 EQ PUSH2 0x29CA JUMPI PUSH1 0x0 DUP1 REVERT JUMPDEST PUSH1 0x0 DUP1 PUSH1 0x40 DUP4 DUP6 SUB SLT ISZERO PUSH2 0x3CFC JUMPI PUSH1 0x0 DUP1 REVERT JUMPDEST DUP3 CALLDATALOAD PUSH2 0x3D07 DUP2 PUSH2 0x3CD4 JUMP JUMPDEST SWAP5 PUSH1 0x20 SWAP4 SWAP1 SWAP4 ADD CALLDATALOAD SWAP4 POP POP POP JUMP JUMPDEST PUSH1 0x0 PUSH1 0x20 DUP3 DUP5 SUB SLT ISZERO PUSH2 0x3D27 JUMPI PUSH1 0x0 DUP1 REVERT JUMPDEST DUP2 CALLDATALOAD PUSH2 0x361D DUP2 PUSH2 0x3CD4 JUMP JUMPDEST PUSH1 0x0 DUP1 PUSH1 0x40 DUP4 DUP6 SUB SLT ISZERO PUSH2 0x3D45 JUMPI PUSH1 0x0 DUP1 REVERT JUMPDEST DUP3 CALLDATALOAD PUSH2 0x3D50 DUP2 PUSH2 0x3CD4 JUMP JUMPDEST SWAP2 POP PUSH1 0x20 DUP4 ADD CALLDATALOAD PUSH2 0x3C7B DUP2 PUSH2 0x3CD4 JUMP JUMPDEST PUSH1 0x0 DUP1 PUSH1 0x0 PUSH1 0x60 DUP5 DUP7 SUB SLT ISZERO PUSH2 0x3D75 JUMPI PUSH1 0x0 DUP1 REVERT JUMPDEST DUP4 CALLDATALOAD PUSH2 0x3D80 DUP2 PUSH2 0x3CD4 JUMP JUMPDEST SWAP3 POP PUSH1 0x20 DUP5 ADD CALLDATALOAD PUSH2 0x3D90 DUP2 PUSH2 0x3CD4 JUMP JUMPDEST SWAP3 SWAP6 SWAP3 SWAP5 POP POP POP PUSH1 0x40 SWAP2 SWAP1 SWAP2 ADD CALLDATALOAD SWAP1 JUMP JUMPDEST PUSH1 0x0 DUP1 PUSH1 0x40 DUP4 DUP6 SUB SLT ISZERO PUSH2 0x3DB4 JUMPI PUSH1 0x0 DUP1 REVERT JUMPDEST POP POP DUP1 CALLDATALOAD SWAP3 PUSH1 0x20 SWAP1 SWAP2 ADD CALLDATALOAD SWAP2 POP JUMP JUMPDEST PUSH4 0x4E487B71 PUSH1 0xE0 SHL PUSH1 0x0 MSTORE PUSH1 0x41 PUSH1 0x4 MSTORE PUSH1 0x24 PUSH1 0x0 REVERT JUMPDEST PUSH1 0x40 MLOAD PUSH1 0x1F DUP3 ADD PUSH1 0x1F NOT AND DUP2 ADD PUSH8 0xFFFFFFFFFFFFFFFF DUP2 GT DUP3 DUP3 LT OR ISZERO PUSH2 0x3E02 JUMPI PUSH2 0x3E02 PUSH2 0x3DC3 JUMP JUMPDEST PUSH1 0x40 MSTORE SWAP2 SWAP1 POP JUMP JUMPDEST PUSH1 0x0 PUSH8 0xFFFFFFFFFFFFFFFF DUP3 GT ISZERO PUSH2 0x3E24 JUMPI PUSH2 0x3E24 PUSH2 0x3DC3 JUMP JUMPDEST POP PUSH1 0x5 SHL PUSH1 0x20 ADD SWAP1 JUMP JUMPDEST PUSH1 0x0 DUP3 PUSH1 0x1F DUP4 ADD SLT PUSH2 0x3E3F JUMPI PUSH1 0x0 DUP1 REVERT JUMPDEST DUP2 CALLDATALOAD PUSH1 0x20 PUSH2 0x3E54 PUSH2 0x3E4F DUP4 PUSH2 0x3E0A JUMP JUMPDEST PUSH2 0x3DD9 JUMP JUMPDEST DUP3 DUP2 MSTORE PUSH1 0x5 SWAP3 SWAP1 SWAP3 SHL DUP5 ADD DUP2 ADD SWAP2 DUP2 DUP2 ADD SWAP1 DUP7 DUP5 GT ISZERO PUSH2 0x3E73 JUMPI PUSH1 0x0 DUP1 REVERT JUMPDEST DUP3 DUP7 ADD JUMPDEST DUP5 DUP2 LT ISZERO PUSH2 0x3E8E JUMPI DUP1 CALLDATALOAD DUP4 MSTORE SWAP2 DUP4 ADD SWAP2 DUP4 ADD PUSH2 0x3E77 JUMP JUMPDEST POP SWAP7 SWAP6 POP POP POP POP POP POP JUMP JUMPDEST PUSH1 0x0 DUP1 PUSH1 0x40 DUP4 DUP6 SUB SLT ISZERO PUSH2 0x3EAC JUMPI PUSH1 0x0 DUP1 REVERT JUMPDEST DUP3 CALLDATALOAD PUSH8 0xFFFFFFFFFFFFFFFF DUP1 DUP3 GT ISZERO PUSH2 0x3EC4 JUMPI PUSH1 0x0 DUP1 REVERT JUMPDEST DUP2 DUP6 ADD SWAP2 POP DUP6 PUSH1 0x1F DUP4 ADD SLT PUSH2 0x3ED8 JUMPI PUSH1 0x0 DUP1 REVERT JUMPDEST DUP2 CALLDATALOAD PUSH1 0x20 PUSH2 0x3EE8 PUSH2 0x3E4F DUP4 PUSH2 0x3E0A JUMP JUMPDEST DUP3 DUP2 MSTORE PUSH1 0x5 SWAP3 SWAP1 SWAP3 SHL DUP5 ADD DUP2 ADD SWAP2 DUP2 DUP2 ADD SWAP1 DUP10 DUP5 GT ISZERO PUSH2 0x3F07 JUMPI PUSH1 0x0 DUP1 REVERT JUMPDEST SWAP5 DUP3 ADD SWAP5 JUMPDEST DUP4 DUP7 LT ISZERO PUSH2 0x3F2E JUMPI DUP6 CALLDATALOAD PUSH2 0x3F1F DUP2 PUSH2 0x3CD4 JUMP JUMPDEST DUP3 MSTORE SWAP5 DUP3 ADD SWAP5 SWAP1 DUP3 ADD SWAP1 PUSH2 0x3F0C JUMP JUMPDEST SWAP7 POP POP DUP7 ADD CALLDATALOAD SWAP3 POP POP DUP1 DUP3 GT ISZERO PUSH2 0x3F44 JUMPI PUSH1 0x0 DUP1 REVERT JUMPDEST POP PUSH2 0x3F51 DUP6 DUP3 DUP7 ADD PUSH2 0x3E2E JUMP JUMPDEST SWAP2 POP POP SWAP3 POP SWAP3 SWAP1 POP JUMP JUMPDEST DUP1 CALLDATALOAD PUSH2 0xFFFF DUP2 AND DUP2 EQ PUSH2 0x3F6D JUMPI PUSH1 0x0 DUP1 REVERT JUMPDEST SWAP2 SWAP1 POP JUMP JUMPDEST PUSH1 0x0 DUP1 PUSH1 0x0 PUSH1 0x60 DUP5 DUP7 SUB SLT ISZERO PUSH2 0x3F87 JUMPI PUSH1 0x0 DUP1 REVERT JUMPDEST PUSH2 0x3F90 DUP5 PUSH2 0x3F5B JUMP JUMPDEST SWAP3 POP PUSH2 0x3F9E PUSH1 0x20 DUP6 ADD PUSH2 0x3F5B JUMP JUMPDEST SWAP2 POP PUSH2 0x3FAC PUSH1 0x40 DUP6 ADD PUSH2 0x3F5B JUMP JUMPDEST SWAP1 POP SWAP3 POP SWAP3 POP SWAP3 JUMP JUMPDEST PUSH1 0x0 DUP1 PUSH1 0x40 DUP4 DUP6 SUB SLT ISZERO PUSH2 0x3FC8 JUMPI PUSH1 0x0 DUP1 REVERT JUMPDEST DUP3 CALLDATALOAD PUSH2 0x3C6B DUP2 PUSH2 0x3CD4 JUMP JUMPDEST PUSH1 0x0 PUSH1 0x20 DUP3 DUP5 SUB SLT ISZERO PUSH2 0x3FE5 JUMPI PUSH1 0x0 DUP1 REVERT JUMPDEST POP CALLDATALOAD SWAP2 SWAP1 POP JUMP JUMPDEST PUSH1 0x0 DUP1 PUSH1 0x40 DUP4 DUP6 SUB SLT ISZERO PUSH2 0x3FFF JUMPI PUSH1 0x0 DUP1 REVERT JUMPDEST PUSH2 0x4008 DUP4 PUSH2 0x3F5B JUMP JUMPDEST SWAP2 POP PUSH2 0x4016 PUSH1 0x20 DUP5 ADD PUSH2 0x3F5B JUMP JUMPDEST SWAP1 POP SWAP3 POP SWAP3 SWAP1 POP JUMP JUMPDEST PUSH1 0x0 DUP1 PUSH1 0x0 DUP1 PUSH1 0x80 DUP6 DUP8 SUB SLT ISZERO PUSH2 0x4035 JUMPI PUSH1 0x0 DUP1 REVERT JUMPDEST POP POP DUP3 CALLDATALOAD SWAP5 PUSH1 0x20 DUP5 ADD CALLDATALOAD SWAP5 POP PUSH1 0x40 DUP5 ADD CALLDATALOAD SWAP4 PUSH1 0x60 ADD CALLDATALOAD SWAP3 POP SWAP1 POP JUMP JUMPDEST PUSH4 0x4E487B71 PUSH1 0xE0 SHL PUSH1 0x0 MSTORE PUSH1 0x11 PUSH1 0x4 MSTORE PUSH1 0x24 PUSH1 0x0 REVERT JUMPDEST PUSH1 0x1 DUP2 DUP2 JUMPDEST DUP1 DUP6 GT ISZERO PUSH2 0x40A2 JUMPI DUP2 PUSH1 0x0 NOT DIV DUP3 GT ISZERO PUSH2 0x4088 JUMPI PUSH2 0x4088 PUSH2 0x4051 JUMP JUMPDEST DUP1 DUP6 AND ISZERO PUSH2 0x4095 JUMPI SWAP2 DUP2 MUL SWAP2 JUMPDEST SWAP4 DUP5 SHR SWAP4 SWAP1 DUP1 MUL SWAP1 PUSH2 0x406C JUMP JUMPDEST POP SWAP3 POP SWAP3 SWAP1 POP JUMP JUMPDEST PUSH1 0x0 DUP3 PUSH2 0x40B9 JUMPI POP PUSH1 0x1 PUSH2 0xCAA JUMP JUMPDEST DUP2 PUSH2 0x40C6 JUMPI POP PUSH1 0x0 PUSH2 0xCAA JUMP JUMPDEST DUP2 PUSH1 0x1 DUP2 EQ PUSH2 0x40DC JUMPI PUSH1 0x2 DUP2 EQ PUSH2 0x40E6 JUMPI PUSH2 0x4102 JUMP JUMPDEST PUSH1 0x1 SWAP2 POP POP PUSH2 0xCAA JUMP JUMPDEST PUSH1 0xFF DUP5 GT ISZERO PUSH2 0x40F7 JUMPI PUSH2 0x40F7 PUSH2 0x4051 JUMP JUMPDEST POP POP PUSH1 0x1 DUP3 SHL PUSH2 0xCAA JUMP JUMPDEST POP PUSH1 0x20 DUP4 LT PUSH2 0x133 DUP4 LT AND PUSH1 0x4E DUP5 LT PUSH1 0xB DUP5 LT AND OR ISZERO PUSH2 0x4125 JUMPI POP DUP2 DUP2 EXP PUSH2 0xCAA JUMP JUMPDEST PUSH2 0x412F DUP4 DUP4 PUSH2 0x4067 JUMP JUMPDEST DUP1 PUSH1 0x0 NOT DIV DUP3 GT ISZERO PUSH2 0x4143 JUMPI PUSH2 0x4143 PUSH2 0x4051 JUMP JUMPDEST MUL SWAP4 SWAP3 POP POP POP JUMP JUMPDEST PUSH1 0x0 PUSH2 0x361D PUSH1 0xFF DUP5 AND DUP4 PUSH2 0x40AA JUMP JUMPDEST PUSH1 0x0 DUP3 PUSH2 0x4177 JUMPI PUSH4 0x4E487B71 PUSH1 0xE0 SHL PUSH1 0x0 MSTORE PUSH1 0x12 PUSH1 0x4 MSTORE PUSH1 0x24 PUSH1 0x0 REVERT JUMPDEST POP DIV SWAP1 JUMP JUMPDEST DUP1 DUP3 MUL DUP2 ISZERO DUP3 DUP3 DIV DUP5 EQ OR PUSH2 0xCAA JUMPI PUSH2 0xCAA PUSH2 0x4051 JUMP JUMPDEST DUP2 DUP2 SUB DUP2 DUP2 GT ISZERO PUSH2 0xCAA JUMPI PUSH2 0xCAA PUSH2 0x4051 JUMP JUMPDEST PUSH4 0x4E487B71 PUSH1 0xE0 SHL PUSH1 0x0 MSTORE PUSH1 0x32 PUSH1 0x4 MSTORE PUSH1 0x24 PUSH1 0x0 REVERT JUMPDEST PUSH1 0x0 PUSH2 0xFFFF DUP1 DUP4 AND DUP2 DUP2 SUB PUSH2 0x41D3 JUMPI PUSH2 0x41D3 PUSH2 0x4051 JUMP JUMPDEST PUSH1 0x1 ADD SWAP4 SWAP3 POP POP POP JUMP JUMPDEST DUP1 DUP3 ADD DUP1 DUP3 GT ISZERO PUSH2 0xCAA JUMPI PUSH2 0xCAA PUSH2 0x4051 JUMP JUMPDEST PUSH2 0xFFFF DUP2 DUP2 AND DUP4 DUP3 AND ADD SWAP1 DUP1 DUP3 GT ISZERO PUSH2 0x420B JUMPI PUSH2 0x420B PUSH2 0x4051 JUMP JUMPDEST POP SWAP3 SWAP2 POP POP JUMP JUMPDEST PUSH1 0x0 DUP1 PUSH1 0x40 DUP4 DUP6 SUB SLT ISZERO PUSH2 0x4225 JUMPI PUSH1 0x0 DUP1 REVERT JUMPDEST POP POP DUP1 MLOAD PUSH1 0x20 SWAP1 SWAP2 ADD MLOAD SWAP1 SWAP3 SWAP1 SWAP2 POP JUMP JUMPDEST PUSH1 0x0 PUSH1 0x20 DUP3 DUP5 SUB SLT ISZERO PUSH2 0x4248 JUMPI PUSH1 0x0 DUP1 REVERT JUMPDEST POP MLOAD SWAP2 SWAP1 POP JUMP JUMPDEST PUSH1 0x0 PUSH1 0x20 DUP3 DUP5 SUB SLT ISZERO PUSH2 0x4261 JUMPI PUSH1 0x0 DUP1 REVERT JUMPDEST DUP2 MLOAD PUSH2 0x361D DUP2 PUSH2 0x3C3F JUMP JUMPDEST PUSH1 0x0 PUSH1 0x20 DUP3 DUP5 SUB SLT ISZERO PUSH2 0x427E JUMPI PUSH1 0x0 DUP1 REVERT JUMPDEST DUP2 MLOAD PUSH2 0x361D DUP2 PUSH2 0x3CD4 JUMP JUMPDEST PUSH1 0x0 PUSH1 0xA0 DUP3 ADD DUP8 DUP4 MSTORE PUSH1 0x20 DUP8 DUP2 DUP6 ADD MSTORE PUSH1 0xA0 PUSH1 0x40 DUP6 ADD MSTORE DUP2 DUP8 MLOAD DUP1 DUP5 MSTORE PUSH1 0xC0 DUP7 ADD SWAP2 POP DUP3 DUP10 ADD SWAP4 POP PUSH1 0x0 JUMPDEST DUP2 DUP2 LT ISZERO PUSH2 0x42D9 JUMPI DUP5 MLOAD PUSH1 0x1 PUSH1 0x1 PUSH1 0xA0 SHL SUB AND DUP4 MSTORE SWAP4 DUP4 ADD SWAP4 SWAP2 DUP4 ADD SWAP2 PUSH1 0x1 ADD PUSH2 0x42B4 JUMP JUMPDEST POP POP PUSH1 0x1 PUSH1 0x1 PUSH1 0xA0 SHL SUB SWAP7 SWAP1 SWAP7 AND PUSH1 0x60 DUP6 ADD MSTORE POP POP POP PUSH1 0x80 ADD MSTORE SWAP4 SWAP3 POP POP POP JUMP JUMPDEST PUSH1 0x0 DUP1 PUSH1 0x0 PUSH1 0x60 DUP5 DUP7 SUB SLT ISZERO PUSH2 0x430F JUMPI PUSH1 0x0 DUP1 REVERT JUMPDEST DUP4 MLOAD SWAP3 POP PUSH1 0x20 DUP5 ADD MLOAD SWAP2 POP PUSH1 0x40 DUP5 ADD MLOAD SWAP1 POP SWAP3 POP SWAP3 POP SWAP3 JUMP INVALID NUMBER PUSH2 0x6C6C PUSH6 0x72203D2F3D20 PUSH16 0x776E65722E0000000000000000000000 STOP STOP STOP STOP LOG2 PUSH5 0x6970667358 0x22 SLT KECCAK256 0xC8 0xC4 0xDE DUP8 0x26 LOG4 0xCC 0x22 0xA6 0xAF 0x23 JUMP PUSH24 0x405077410AC0268F7CA6283A31FB1008E0D3DC64736F6C63 NUMBER STOP ADDMOD SLT STOP CALLER "
		},
		"gasEstimates": {
			"creation": {
				"codeDepositCost": "3455600",
				"executionCost": "infinite",
				"totalCost": "infinite"
			},
			"external": {
				"DEAD()": "275",
				"_hasLiqBeenAdded()": "2390",
				"_ratios()": "2483",
				"_taxRates()": "2485",
				"allowance(address,address)": "infinite",
				"approve(address,uint256)": "24660",
				"approveContractContingency()": "28780",
				"balanceOf(address)": "2646",
				"contractSwapEnabled()": "2431",
				"decimals()": "245",
				"dexRouter()": "2450",
				"enableTrading()": "infinite",
				"excludePresaleAddresses(address,address)": "infinite",
				"getCirculatingSupply()": "infinite",
				"getMaxWallet()": "2818",
				"getOwner()": "2387",
				"getTokenAmountAtPriceImpact(uint256)": "infinite",
				"isExcludedFromFees(address)": "2676",
				"isExcludedFromLimits(address)": "2633",
				"isExcludedFromProtection(address)": "2634",
				"launchStamp()": "2430",
				"lockTaxes()": "infinite",
				"lpPair()": "2416",
				"marketingWallet()": "2394",
				"maxBuyTaxes()": "308",
				"maxRoundtripTax()": "307",
				"maxSellTaxes()": "262",
				"maxTransferTaxes()": "307",
				"multiSendTokens(address[],uint256[])": "infinite",
				"name()": "infinite",
				"operator()": "2417",
				"originalDeployer()": "2460",
				"piContractSwapsEnabled()": "2399",
				"piSwapPercent()": "2364",
				"removeSniper(address)": "infinite",
				"renounceOriginalDeployer()": "infinite",
				"renounceOwnership()": "infinite",
				"setContractSwapEnabled(bool,bool)": "infinite",
				"setExcludedFromFees(address,bool)": "infinite",
				"setExcludedFromLimits(address,bool)": "infinite",
				"setExcludedFromProtection(address,bool)": "infinite",
				"setInitializer(address)": "28950",
				"setLpPair(address,bool)": "infinite",
				"setMaxWalletSize(uint256,uint256)": "infinite",
				"setNewRouter(address)": "infinite",
				"setOperator(address)": "infinite",
				"setPriceImpactSwapAmount(uint256)": "infinite",
				"setProtectionSettings(bool,bool)": "infinite",
				"setRatios(uint16,uint16)": "infinite",
				"setSwapSettings(uint256,uint256,uint256,uint256)": "infinite",
				"setTaxes(uint16,uint16,uint16)": "infinite",
				"setWallets(address)": "26873",
				"swapAmount()": "2430",
				"swapThreshold()": "2387",
				"sweepContingency()": "infinite",
				"sweepExternalTokens(address)": "infinite",
				"symbol()": "infinite",
				"taxesAreLocked()": "2445",
				"totalSupply()": "infinite",
				"tradingEnabled()": "2444",
				"transfer(address,uint256)": "infinite",
				"transferFrom(address,address,uint256)": "infinite",
				"transferOwner(address)": "infinite"
			},
			"internal": {
				"_approve(address,address,uint256)": "infinite",
				"_checkLiquidityAdd(address,address)": "infinite",
				"_hasLimits(address,address)": "15422",
				"_transfer(address,address,uint256)": "infinite",
				"contractSwap(uint256)": "infinite",
				"finalizeTransfer(address,address,uint256,bool,bool,bool)": "infinite",
				"takeTaxes(address,bool,bool,uint256)": "infinite"
			}
		},
		"methodIdentifiers": {
			"DEAD()": "03fd2a45",
			"_hasLiqBeenAdded()": "50a8e016",
			"_ratios()": "cf847706",
			"_taxRates()": "069d955f",
			"allowance(address,address)": "dd62ed3e",
			"approve(address,uint256)": "095ea7b3",
			"approveContractContingency()": "8a63bd9b",
			"balanceOf(address)": "70a08231",
			"contractSwapEnabled()": "fdb78c0e",
			"decimals()": "313ce567",
			"dexRouter()": "0758d924",
			"enableTrading()": "8a8c523c",
			"excludePresaleAddresses(address,address)": "13b4a7f4",
			"getCirculatingSupply()": "2b112e49",
			"getMaxWallet()": "0fa604e4",
			"getOwner()": "893d20e8",
			"getTokenAmountAtPriceImpact(uint256)": "4bbb93eb",
			"isExcludedFromFees(address)": "4fbee193",
			"isExcludedFromLimits(address)": "5cce86cd",
			"isExcludedFromProtection(address)": "0dcbcf1c",
			"launchStamp()": "5a6f0918",
			"lockTaxes()": "78648edf",
			"lpPair()": "452ed4f1",
			"marketingWallet()": "75f0a874",
			"maxBuyTaxes()": "2b28fc7a",
			"maxRoundtripTax()": "46ea7ac8",
			"maxSellTaxes()": "b3d514fb",
			"maxTransferTaxes()": "b1b08f71",
			"multiSendTokens(address[],uint256[])": "2610eaca",
			"name()": "06fdde03",
			"operator()": "570ca735",
			"originalDeployer()": "81cf58a9",
			"piContractSwapsEnabled()": "b7df8b36",
			"piSwapPercent()": "28577751",
			"removeSniper(address)": "33251a0b",
			"renounceOriginalDeployer()": "39a05902",
			"renounceOwnership()": "715018a6",
			"setContractSwapEnabled(bool,bool)": "bfc2fc35",
			"setExcludedFromFees(address,bool)": "590ffdce",
			"setExcludedFromLimits(address,bool)": "36fddb04",
			"setExcludedFromProtection(address,bool)": "feadde9c",
			"setInitializer(address)": "5c24b074",
			"setLpPair(address,bool)": "80c581d1",
			"setMaxWalletSize(uint256,uint256)": "26003957",
			"setNewRouter(address)": "eafb5a3c",
			"setOperator(address)": "b3ab15fb",
			"setPriceImpactSwapAmount(uint256)": "4e718e48",
			"setProtectionSettings(bool,bool)": "044df726",
			"setRatios(uint16,uint16)": "bcd96a25",
			"setSwapSettings(uint256,uint256,uint256,uint256)": "fb78680d",
			"setTaxes(uint16,uint16,uint16)": "32cde664",
			"setWallets(address)": "eb50e70e",
			"swapAmount()": "2e8fa821",
			"swapThreshold()": "0445b667",
			"sweepContingency()": "ee5d9c2d",
			"sweepExternalTokens(address)": "ab558e4d",
			"symbol()": "95d89b41",
			"taxesAreLocked()": "07dd79e0",
			"totalSupply()": "18160ddd",
			"tradingEnabled()": "4ada218b",
			"transfer(address,uint256)": "a9059cbb",
			"transferFrom(address,address,uint256)": "23b872dd",
			"transferOwner(address)": "4fb2e45d"
		}
	},
	"abi": [
		{
			"inputs": [],
			"stateMutability": "payable",
			"type": "constructor"
		},
		{
			"anonymous": false,
			"inputs": [
				{
					"indexed": true,
					"internalType": "address",
					"name": "owner",
					"type": "address"
				},
				{
					"indexed": true,
					"internalType": "address",
					"name": "spender",
					"type": "address"
				},
				{
					"indexed": false,
					"internalType": "uint256",
					"name": "value",
					"type": "uint256"
				}
			],
			"name": "Approval",
			"type": "event"
		},
		{
			"anonymous": false,
			"inputs": [
				{
					"indexed": false,
					"internalType": "uint256",
					"name": "amountCurrency",
					"type": "uint256"
				},
				{
					"indexed": false,
					"internalType": "uint256",
					"name": "amountTokens",
					"type": "uint256"
				}
			],
			"name": "AutoLiquify",
			"type": "event"
		},
		{
			"anonymous": false,
			"inputs": [
				{
					"indexed": false,
					"internalType": "bool",
					"name": "enabled",
					"type": "bool"
				}
			],
			"name": "ContractSwapEnabledUpdated",
			"type": "event"
		},
		{
			"anonymous": false,
			"inputs": [
				{
					"indexed": true,
					"internalType": "address",
					"name": "previousOwner",
					"type": "address"
				},
				{
					"indexed": true,
					"internalType": "address",
					"name": "newOwner",
					"type": "address"
				}
			],
			"name": "OwnershipTransferred",
			"type": "event"
		},
		{
			"anonymous": false,
			"inputs": [
				{
					"indexed": true,
					"internalType": "address",
					"name": "from",
					"type": "address"
				},
				{
					"indexed": true,
					"internalType": "address",
					"name": "to",
					"type": "address"
				},
				{
					"indexed": false,
					"internalType": "uint256",
					"name": "value",
					"type": "uint256"
				}
			],
			"name": "Transfer",
			"type": "event"
		},
		{
			"inputs": [],
			"name": "DEAD",
			"outputs": [
				{
					"internalType": "address",
					"name": "",
					"type": "address"
				}
			],
			"stateMutability": "view",
			"type": "function"
		},
		{
			"inputs": [],
			"name": "_hasLiqBeenAdded",
			"outputs": [
				{
					"internalType": "bool",
					"name": "",
					"type": "bool"
				}
			],
			"stateMutability": "view",
			"type": "function"
		},
		{
			"inputs": [],
			"name": "_ratios",
			"outputs": [
				{
					"internalType": "uint16",
					"name": "liquidity",
					"type": "uint16"
				},
				{
					"internalType": "uint16",
					"name": "marketing",
					"type": "uint16"
				},
				{
					"internalType": "uint16",
					"name": "totalSwap",
					"type": "uint16"
				}
			],
			"stateMutability": "view",
			"type": "function"
		},
		{
			"inputs": [],
			"name": "_taxRates",
			"outputs": [
				{
					"internalType": "uint16",
					"name": "buyFee",
					"type": "uint16"
				},
				{
					"internalType": "uint16",
					"name": "sellFee",
					"type": "uint16"
				},
				{
					"internalType": "uint16",
					"name": "transferFee",
					"type": "uint16"
				}
			],
			"stateMutability": "view",
			"type": "function"
		},
		{
			"inputs": [
				{
					"internalType": "address",
					"name": "holder",
					"type": "address"
				},
				{
					"internalType": "address",
					"name": "spender",
					"type": "address"
				}
			],
			"name": "allowance",
			"outputs": [
				{
					"internalType": "uint256",
					"name": "",
					"type": "uint256"
				}
			],
			"stateMutability": "view",
			"type": "function"
		},
		{
			"inputs": [
				{
					"internalType": "address",
					"name": "spender",
					"type": "address"
				},
				{
					"internalType": "uint256",
					"name": "amount",
					"type": "uint256"
				}
			],
			"name": "approve",
			"outputs": [
				{
					"internalType": "bool",
					"name": "",
					"type": "bool"
				}
			],
			"stateMutability": "nonpayable",
			"type": "function"
		},
		{
			"inputs": [],
			"name": "approveContractContingency",
			"outputs": [
				{
					"internalType": "bool",
					"name": "",
					"type": "bool"
				}
			],
			"stateMutability": "nonpayable",
			"type": "function"
		},
		{
			"inputs": [
				{
					"internalType": "address",
					"name": "account",
					"type": "address"
				}
			],
			"name": "balanceOf",
			"outputs": [
				{
					"internalType": "uint256",
					"name": "",
					"type": "uint256"
				}
			],
			"stateMutability": "view",
			"type": "function"
		},
		{
			"inputs": [],
			"name": "contractSwapEnabled",
			"outputs": [
				{
					"internalType": "bool",
					"name": "",
					"type": "bool"
				}
			],
			"stateMutability": "view",
			"type": "function"
		},
		{
			"inputs": [],
			"name": "decimals",
			"outputs": [
				{
					"internalType": "uint8",
					"name": "",
					"type": "uint8"
				}
			],
			"stateMutability": "pure",
			"type": "function"
		},
		{
			"inputs": [],
			"name": "dexRouter",
			"outputs": [
				{
					"internalType": "contract IRouter02",
					"name": "",
					"type": "address"
				}
			],
			"stateMutability": "view",
			"type": "function"
		},
		{
			"inputs": [],
			"name": "enableTrading",
			"outputs": [],
			"stateMutability": "nonpayable",
			"type": "function"
		},
		{
			"inputs": [
				{
					"internalType": "address",
					"name": "router",
					"type": "address"
				},
				{
					"internalType": "address",
					"name": "presale",
					"type": "address"
				}
			],
			"name": "excludePresaleAddresses",
			"outputs": [],
			"stateMutability": "nonpayable",
			"type": "function"
		},
		{
			"inputs": [],
			"name": "getCirculatingSupply",
			"outputs": [
				{
					"internalType": "uint256",
					"name": "",
					"type": "uint256"
				}
			],
			"stateMutability": "view",
			"type": "function"
		},
		{
			"inputs": [],
			"name": "getMaxWallet",
			"outputs": [
				{
					"internalType": "uint256",
					"name": "",
					"type": "uint256"
				}
			],
			"stateMutability": "view",
			"type": "function"
		},
		{
			"inputs": [],
			"name": "getOwner",
			"outputs": [
				{
					"internalType": "address",
					"name": "",
					"type": "address"
				}
			],
			"stateMutability": "view",
			"type": "function"
		},
		{
			"inputs": [
				{
					"internalType": "uint256",
					"name": "priceImpactInHundreds",
					"type": "uint256"
				}
			],
			"name": "getTokenAmountAtPriceImpact",
			"outputs": [
				{
					"internalType": "uint256",
					"name": "",
					"type": "uint256"
				}
			],
			"stateMutability": "view",
			"type": "function"
		},
		{
			"inputs": [
				{
					"internalType": "address",
					"name": "account",
					"type": "address"
				}
			],
			"name": "isExcludedFromFees",
			"outputs": [
				{
					"internalType": "bool",
					"name": "",
					"type": "bool"
				}
			],
			"stateMutability": "view",
			"type": "function"
		},
		{
			"inputs": [
				{
					"internalType": "address",
					"name": "account",
					"type": "address"
				}
			],
			"name": "isExcludedFromLimits",
			"outputs": [
				{
					"internalType": "bool",
					"name": "",
					"type": "bool"
				}
			],
			"stateMutability": "view",
			"type": "function"
		},
		{
			"inputs": [
				{
					"internalType": "address",
					"name": "account",
					"type": "address"
				}
			],
			"name": "isExcludedFromProtection",
			"outputs": [
				{
					"internalType": "bool",
					"name": "",
					"type": "bool"
				}
			],
			"stateMutability": "view",
			"type": "function"
		},
		{
			"inputs": [],
			"name": "launchStamp",
			"outputs": [
				{
					"internalType": "uint256",
					"name": "",
					"type": "uint256"
				}
			],
			"stateMutability": "view",
			"type": "function"
		},
		{
			"inputs": [],
			"name": "lockTaxes",
			"outputs": [],
			"stateMutability": "nonpayable",
			"type": "function"
		},
		{
			"inputs": [],
			"name": "lpPair",
			"outputs": [
				{
					"internalType": "address",
					"name": "",
					"type": "address"
				}
			],
			"stateMutability": "view",
			"type": "function"
		},
		{
			"inputs": [],
			"name": "marketingWallet",
			"outputs": [
				{
					"internalType": "address payable",
					"name": "",
					"type": "address"
				}
			],
			"stateMutability": "view",
			"type": "function"
		},
		{
			"inputs": [],
			"name": "maxBuyTaxes",
			"outputs": [
				{
					"internalType": "uint256",
					"name": "",
					"type": "uint256"
				}
			],
			"stateMutability": "view",
			"type": "function"
		},
		{
			"inputs": [],
			"name": "maxRoundtripTax",
			"outputs": [
				{
					"internalType": "uint256",
					"name": "",
					"type": "uint256"
				}
			],
			"stateMutability": "view",
			"type": "function"
		},
		{
			"inputs": [],
			"name": "maxSellTaxes",
			"outputs": [
				{
					"internalType": "uint256",
					"name": "",
					"type": "uint256"
				}
			],
			"stateMutability": "view",
			"type": "function"
		},
		{
			"inputs": [],
			"name": "maxTransferTaxes",
			"outputs": [
				{
					"internalType": "uint256",
					"name": "",
					"type": "uint256"
				}
			],
			"stateMutability": "view",
			"type": "function"
		},
		{
			"inputs": [
				{
					"internalType": "address[]",
					"name": "accounts",
					"type": "address[]"
				},
				{
					"internalType": "uint256[]",
					"name": "amounts",
					"type": "uint256[]"
				}
			],
			"name": "multiSendTokens",
			"outputs": [],
			"stateMutability": "nonpayable",
			"type": "function"
		},
		{
			"inputs": [],
			"name": "name",
			"outputs": [
				{
					"internalType": "string",
					"name": "",
					"type": "string"
				}
			],
			"stateMutability": "pure",
			"type": "function"
		},
		{
			"inputs": [],
			"name": "operator",
			"outputs": [
				{
					"internalType": "address",
					"name": "",
					"type": "address"
				}
			],
			"stateMutability": "view",
			"type": "function"
		},
		{
			"inputs": [],
			"name": "originalDeployer",
			"outputs": [
				{
					"internalType": "address",
					"name": "",
					"type": "address"
				}
			],
			"stateMutability": "view",
			"type": "function"
		},
		{
			"inputs": [],
			"name": "piContractSwapsEnabled",
			"outputs": [
				{
					"internalType": "bool",
					"name": "",
					"type": "bool"
				}
			],
			"stateMutability": "view",
			"type": "function"
		},
		{
			"inputs": [],
			"name": "piSwapPercent",
			"outputs": [
				{
					"internalType": "uint256",
					"name": "",
					"type": "uint256"
				}
			],
			"stateMutability": "view",
			"type": "function"
		},
		{
			"inputs": [
				{
					"internalType": "address",
					"name": "account",
					"type": "address"
				}
			],
			"name": "removeSniper",
			"outputs": [],
			"stateMutability": "nonpayable",
			"type": "function"
		},
		{
			"inputs": [],
			"name": "renounceOriginalDeployer",
			"outputs": [],
			"stateMutability": "nonpayable",
			"type": "function"
		},
		{
			"inputs": [],
			"name": "renounceOwnership",
			"outputs": [],
			"stateMutability": "nonpayable",
			"type": "function"
		},
		{
			"inputs": [
				{
					"internalType": "bool",
					"name": "swapEnabled",
					"type": "bool"
				},
				{
					"internalType": "bool",
					"name": "priceImpactSwapEnabled",
					"type": "bool"
				}
			],
			"name": "setContractSwapEnabled",
			"outputs": [],
			"stateMutability": "nonpayable",
			"type": "function"
		},
		{
			"inputs": [
				{
					"internalType": "address",
					"name": "account",
					"type": "address"
				},
				{
					"internalType": "bool",
					"name": "enabled",
					"type": "bool"
				}
			],
			"name": "setExcludedFromFees",
			"outputs": [],
			"stateMutability": "nonpayable",
			"type": "function"
		},
		{
			"inputs": [
				{
					"internalType": "address",
					"name": "account",
					"type": "address"
				},
				{
					"internalType": "bool",
					"name": "enabled",
					"type": "bool"
				}
			],
			"name": "setExcludedFromLimits",
			"outputs": [],
			"stateMutability": "nonpayable",
			"type": "function"
		},
		{
			"inputs": [
				{
					"internalType": "address",
					"name": "account",
					"type": "address"
				},
				{
					"internalType": "bool",
					"name": "enabled",
					"type": "bool"
				}
			],
			"name": "setExcludedFromProtection",
			"outputs": [],
			"stateMutability": "nonpayable",
			"type": "function"
		},
		{
			"inputs": [
				{
					"internalType": "address",
					"name": "initializer",
					"type": "address"
				}
			],
			"name": "setInitializer",
			"outputs": [],
			"stateMutability": "nonpayable",
			"type": "function"
		},
		{
			"inputs": [
				{
					"internalType": "address",
					"name": "pair",
					"type": "address"
				},
				{
					"internalType": "bool",
					"name": "enabled",
					"type": "bool"
				}
			],
			"name": "setLpPair",
			"outputs": [],
			"stateMutability": "nonpayable",
			"type": "function"
		},
		{
			"inputs": [
				{
					"internalType": "uint256",
					"name": "percent",
					"type": "uint256"
				},
				{
					"internalType": "uint256",
					"name": "divisor",
					"type": "uint256"
				}
			],
			"name": "setMaxWalletSize",
			"outputs": [],
			"stateMutability": "nonpayable",
			"type": "function"
		},
		{
			"inputs": [
				{
					"internalType": "address",
					"name": "newRouter",
					"type": "address"
				}
			],
			"name": "setNewRouter",
			"outputs": [],
			"stateMutability": "nonpayable",
			"type": "function"
		},
		{
			"inputs": [
				{
					"internalType": "address",
					"name": "newOperator",
					"type": "address"
				}
			],
			"name": "setOperator",
			"outputs": [],
			"stateMutability": "nonpayable",
			"type": "function"
		},
		{
			"inputs": [
				{
					"internalType": "uint256",
					"name": "priceImpactSwapPercent",
					"type": "uint256"
				}
			],
			"name": "setPriceImpactSwapAmount",
			"outputs": [],
			"stateMutability": "nonpayable",
			"type": "function"
		},
		{
			"inputs": [
				{
					"internalType": "bool",
					"name": "_antiSnipe",
					"type": "bool"
				},
				{
					"internalType": "bool",
					"name": "_antiBlock",
					"type": "bool"
				}
			],
			"name": "setProtectionSettings",
			"outputs": [],
			"stateMutability": "nonpayable",
			"type": "function"
		},
		{
			"inputs": [
				{
					"internalType": "uint16",
					"name": "liquidity",
					"type": "uint16"
				},
				{
					"internalType": "uint16",
					"name": "marketing",
					"type": "uint16"
				}
			],
			"name": "setRatios",
			"outputs": [],
			"stateMutability": "nonpayable",
			"type": "function"
		},
		{
			"inputs": [
				{
					"internalType": "uint256",
					"name": "thresholdPercent",
					"type": "uint256"
				},
				{
					"internalType": "uint256",
					"name": "thresholdDivisor",
					"type": "uint256"
				},
				{
					"internalType": "uint256",
					"name": "amountPercent",
					"type": "uint256"
				},
				{
					"internalType": "uint256",
					"name": "amountDivisor",
					"type": "uint256"
				}
			],
			"name": "setSwapSettings",
			"outputs": [],
			"stateMutability": "nonpayable",
			"type": "function"
		},
		{
			"inputs": [
				{
					"internalType": "uint16",
					"name": "buyFee",
					"type": "uint16"
				},
				{
					"internalType": "uint16",
					"name": "sellFee",
					"type": "uint16"
				},
				{
					"internalType": "uint16",
					"name": "transferFee",
					"type": "uint16"
				}
			],
			"name": "setTaxes",
			"outputs": [],
			"stateMutability": "nonpayable",
			"type": "function"
		},
		{
			"inputs": [
				{
					"internalType": "address payable",
					"name": "marketing",
					"type": "address"
				}
			],
			"name": "setWallets",
			"outputs": [],
			"stateMutability": "nonpayable",
			"type": "function"
		},
		{
			"inputs": [],
			"name": "swapAmount",
			"outputs": [
				{
					"internalType": "uint256",
					"name": "",
					"type": "uint256"
				}
			],
			"stateMutability": "view",
			"type": "function"
		},
		{
			"inputs": [],
			"name": "swapThreshold",
			"outputs": [
				{
					"internalType": "uint256",
					"name": "",
					"type": "uint256"
				}
			],
			"stateMutability": "view",
			"type": "function"
		},
		{
			"inputs": [],
			"name": "sweepContingency",
			"outputs": [],
			"stateMutability": "nonpayable",
			"type": "function"
		},
		{
			"inputs": [
				{
					"internalType": "address",
					"name": "token",
					"type": "address"
				}
			],
			"name": "sweepExternalTokens",
			"outputs": [],
			"stateMutability": "nonpayable",
			"type": "function"
		},
		{
			"inputs": [],
			"name": "symbol",
			"outputs": [
				{
					"internalType": "string",
					"name": "",
					"type": "string"
				}
			],
			"stateMutability": "pure",
			"type": "function"
		},
		{
			"inputs": [],
			"name": "taxesAreLocked",
			"outputs": [
				{
					"internalType": "bool",
					"name": "",
					"type": "bool"
				}
			],
			"stateMutability": "view",
			"type": "function"
		},
		{
			"inputs": [],
			"name": "totalSupply",
			"outputs": [
				{
					"internalType": "uint256",
					"name": "",
					"type": "uint256"
				}
			],
			"stateMutability": "pure",
			"type": "function"
		},
		{
			"inputs": [],
			"name": "tradingEnabled",
			"outputs": [
				{
					"internalType": "bool",
					"name": "",
					"type": "bool"
				}
			],
			"stateMutability": "view",
			"type": "function"
		},
		{
			"inputs": [
				{
					"internalType": "address",
					"name": "recipient",
					"type": "address"
				},
				{
					"internalType": "uint256",
					"name": "amount",
					"type": "uint256"
				}
			],
			"name": "transfer",
			"outputs": [
				{
					"internalType": "bool",
					"name": "",
					"type": "bool"
				}
			],
			"stateMutability": "nonpayable",
			"type": "function"
		},
		{
			"inputs": [
				{
					"internalType": "address",
					"name": "sender",
					"type": "address"
				},
				{
					"internalType": "address",
					"name": "recipient",
					"type": "address"
				},
				{
					"internalType": "uint256",
					"name": "amount",
					"type": "uint256"
				}
			],
			"name": "transferFrom",
			"outputs": [
				{
					"internalType": "bool",
					"name": "",
					"type": "bool"
				}
			],
			"stateMutability": "nonpayable",
			"type": "function"
		},
		{
			"inputs": [
				{
					"internalType": "address",
					"name": "newOwner",
					"type": "address"
				}
			],
			"name": "transferOwner",
			"outputs": [],
			"stateMutability": "nonpayable",
			"type": "function"
		},
		{
			"stateMutability": "payable",
			"type": "receive"
		}
	]
}